{
  "contractName": "UniswapV2Factory",
  "abi": [
    {
      "inputs": [
        {
          "internalType": "address",
          "name": "_feeToSetter",
          "type": "address"
        }
      ],
      "stateMutability": "nonpayable",
      "type": "constructor"
    },
    {
      "anonymous": false,
      "inputs": [
        {
          "indexed": true,
          "internalType": "address",
          "name": "token0",
          "type": "address"
        },
        {
          "indexed": true,
          "internalType": "address",
          "name": "token1",
          "type": "address"
        },
        {
          "indexed": false,
          "internalType": "address",
          "name": "pair",
          "type": "address"
        },
        {
          "indexed": false,
          "internalType": "uint256",
          "name": "",
          "type": "uint256"
        }
      ],
      "name": "PairCreated",
      "type": "event"
    },
    {
      "inputs": [
        {
          "internalType": "uint256",
          "name": "",
          "type": "uint256"
        }
      ],
      "name": "allPairs",
      "outputs": [
        {
          "internalType": "address",
          "name": "",
          "type": "address"
        }
      ],
      "stateMutability": "view",
      "type": "function",
      "constant": true
    },
    {
      "inputs": [],
      "name": "feeTo",
      "outputs": [
        {
          "internalType": "address",
          "name": "",
          "type": "address"
        }
      ],
      "stateMutability": "view",
      "type": "function",
      "constant": true
    },
    {
      "inputs": [],
      "name": "feeToSetter",
      "outputs": [
        {
          "internalType": "address",
          "name": "",
          "type": "address"
        }
      ],
      "stateMutability": "view",
      "type": "function",
      "constant": true
    },
    {
      "inputs": [
        {
          "internalType": "address",
          "name": "",
          "type": "address"
        },
        {
          "internalType": "address",
          "name": "",
          "type": "address"
        }
      ],
      "name": "getPair",
      "outputs": [
        {
          "internalType": "address",
          "name": "",
          "type": "address"
        }
      ],
      "stateMutability": "view",
      "type": "function",
      "constant": true
    },
    {
      "inputs": [],
      "name": "allPairsLength",
      "outputs": [
        {
          "internalType": "uint256",
          "name": "",
          "type": "uint256"
        }
      ],
      "stateMutability": "view",
      "type": "function",
      "constant": true
    },
    {
      "inputs": [
        {
          "internalType": "address",
          "name": "tokenA",
          "type": "address"
        },
        {
          "internalType": "address",
          "name": "tokenB",
          "type": "address"
        }
      ],
      "name": "createPair",
      "outputs": [
        {
          "internalType": "address",
          "name": "pair",
          "type": "address"
        }
      ],
      "stateMutability": "nonpayable",
      "type": "function"
    },
    {
      "inputs": [
        {
          "internalType": "address",
          "name": "_feeTo",
          "type": "address"
        }
      ],
      "name": "setFeeTo",
      "outputs": [],
      "stateMutability": "nonpayable",
      "type": "function"
    },
    {
      "inputs": [
        {
          "internalType": "address",
          "name": "_feeToSetter",
          "type": "address"
        }
      ],
      "name": "setFeeToSetter",
      "outputs": [],
      "stateMutability": "nonpayable",
      "type": "function"
    }
  ],
  "bytecode": "0x608060405234801561001057600080fd5b506040516200521e3803806200521e833981810160405281019061003491906100de565b80600160006101000a81548173ffffffffffffffffffffffffffffffffffffffff021916908373ffffffffffffffffffffffffffffffffffffffff1602179055505061010b565b600080fd5b600073ffffffffffffffffffffffffffffffffffffffff82169050919050565b60006100ab82610080565b9050919050565b6100bb816100a0565b81146100c657600080fd5b50565b6000815190506100d8816100b2565b92915050565b6000602082840312156100f4576100f361007b565b5b6000610102848285016100c9565b91505092915050565b615103806200011b6000396000f3fe60806040523480156200001157600080fd5b5060043610620000945760003560e01c8063a2e74af61162000063578063a2e74af61462000135578063c9c653961462000155578063e6a43905146200018b578063f46901ed14620001c15762000094565b8063017e7e581462000099578063094b741514620000bb5780631e3dd18b14620000dd578063574f2ba31462000113575b600080fd5b620000a3620001e1565b604051620000b2919062000a1a565b60405180910390f35b620000c562000205565b604051620000d4919062000a1a565b60405180910390f35b620000fb6004803603810190620000f5919062000a77565b6200022b565b6040516200010a919062000a1a565b60405180910390f35b6200011d6200026b565b6040516200012c919062000aba565b60405180910390f35b6200015360048036038101906200014d919062000b08565b62000278565b005b6200017360048036038101906200016d919062000b3a565b6200034f565b60405162000182919062000a1a565b60405180910390f35b620001a96004803603810190620001a3919062000b3a565b620008af565b604051620001b8919062000a1a565b60405180910390f35b620001df6004803603810190620001d9919062000b08565b620008f1565b005b60008054906101000a900473ffffffffffffffffffffffffffffffffffffffff1681565b600160009054906101000a900473ffffffffffffffffffffffffffffffffffffffff1681565b600381815481106200023c57600080fd5b906000526020600020016000915054906101000a900473ffffffffffffffffffffffffffffffffffffffff1681565b6000600380549050905090565b600160009054906101000a900473ffffffffffffffffffffffffffffffffffffffff1673ffffffffffffffffffffffffffffffffffffffff163373ffffffffffffffffffffffffffffffffffffffff16146200030b576040517f08c379a0000000000000000000000000000000000000000000000000000000008152600401620003029062000be2565b60405180910390fd5b80600160006101000a81548173ffffffffffffffffffffffffffffffffffffffff021916908373ffffffffffffffffffffffffffffffffffffffff16021790555050565b60008173ffffffffffffffffffffffffffffffffffffffff168373ffffffffffffffffffffffffffffffffffffffff1603620003c2576040517f08c379a0000000000000000000000000000000000000000000000000000000008152600401620003b99062000c54565b60405180910390fd5b6000808373ffffffffffffffffffffffffffffffffffffffff168573ffffffffffffffffffffffffffffffffffffffff16106200040157838562000404565b84845b91509150600073ffffffffffffffffffffffffffffffffffffffff168273ffffffffffffffffffffffffffffffffffffffff16036200047a576040517f08c379a0000000000000000000000000000000000000000000000000000000008152600401620004719062000cc6565b60405180910390fd5b600073ffffffffffffffffffffffffffffffffffffffff16600260008473ffffffffffffffffffffffffffffffffffffffff1673ffffffffffffffffffffffffffffffffffffffff16815260200190815260200160002060008373ffffffffffffffffffffffffffffffffffffffff1673ffffffffffffffffffffffffffffffffffffffff16815260200190815260200160002060009054906101000a900473ffffffffffffffffffffffffffffffffffffffff1673ffffffffffffffffffffffffffffffffffffffff161462000588576040517f08c379a00000000000000000000000000000000000000000000000000000000081526004016200057f9062000d38565b60405180910390fd5b6000604051806020016200059c90620009c7565b6020820181038252601f19601f82011660405250905060008383604051602001620005c992919062000daa565b604051602081830303815290604052805190602001209050808251602084016000f594508473ffffffffffffffffffffffffffffffffffffffff1663485cc95585856040518363ffffffff1660e01b81526004016200062a92919062000dda565b600060405180830381600087803b1580156200064557600080fd5b505af11580156200065a573d6000803e3d6000fd5b5050505084600260008673ffffffffffffffffffffffffffffffffffffffff1673ffffffffffffffffffffffffffffffffffffffff16815260200190815260200160002060008573ffffffffffffffffffffffffffffffffffffffff1673ffffffffffffffffffffffffffffffffffffffff16815260200190815260200160002060006101000a81548173ffffffffffffffffffffffffffffffffffffffff021916908373ffffffffffffffffffffffffffffffffffffffff16021790555084600260008573ffffffffffffffffffffffffffffffffffffffff1673ffffffffffffffffffffffffffffffffffffffff16815260200190815260200160002060008673ffffffffffffffffffffffffffffffffffffffff1673ffffffffffffffffffffffffffffffffffffffff16815260200190815260200160002060006101000a81548173ffffffffffffffffffffffffffffffffffffffff021916908373ffffffffffffffffffffffffffffffffffffffff1602179055506003859080600181540180825580915050600190039060005260206000200160009091909190916101000a81548173ffffffffffffffffffffffffffffffffffffffff021916908373ffffffffffffffffffffffffffffffffffffffff1602179055508273ffffffffffffffffffffffffffffffffffffffff168473ffffffffffffffffffffffffffffffffffffffff167f0d3648bd0f6ba80134a33ba9275ac585d9d315f0ad8355cddefde31afa28d0e9876003805490506040516200089d92919062000e07565b60405180910390a35050505092915050565b60026020528160005260406000206020528060005260406000206000915091509054906101000a900473ffffffffffffffffffffffffffffffffffffffff1681565b600160009054906101000a900473ffffffffffffffffffffffffffffffffffffffff1673ffffffffffffffffffffffffffffffffffffffff163373ffffffffffffffffffffffffffffffffffffffff161462000984576040517f08c379a00000000000000000000000000000000000000000000000000000000081526004016200097b9062000be2565b60405180910390fd5b806000806101000a81548173ffffffffffffffffffffffffffffffffffffffff021916908373ffffffffffffffffffffffffffffffffffffffff16021790555050565b6142998062000e3583390190565b600073ffffffffffffffffffffffffffffffffffffffff82169050919050565b600062000a0282620009d5565b9050919050565b62000a1481620009f5565b82525050565b600060208201905062000a31600083018462000a09565b92915050565b600080fd5b6000819050919050565b62000a518162000a3c565b811462000a5d57600080fd5b50565b60008135905062000a718162000a46565b92915050565b60006020828403121562000a905762000a8f62000a37565b5b600062000aa08482850162000a60565b91505092915050565b62000ab48162000a3c565b82525050565b600060208201905062000ad1600083018462000aa9565b92915050565b62000ae281620009f5565b811462000aee57600080fd5b50565b60008135905062000b028162000ad7565b92915050565b60006020828403121562000b215762000b2062000a37565b5b600062000b318482850162000af1565b91505092915050565b6000806040838503121562000b545762000b5362000a37565b5b600062000b648582860162000af1565b925050602062000b778582860162000af1565b9150509250929050565b600082825260208201905092915050565b7f556e697377617056323a20464f5242494444454e000000000000000000000000600082015250565b600062000bca60148362000b81565b915062000bd78262000b92565b602082019050919050565b6000602082019050818103600083015262000bfd8162000bbb565b9050919050565b7f556e697377617056323a204944454e544943414c5f4144445245535345530000600082015250565b600062000c3c601e8362000b81565b915062000c498262000c04565b602082019050919050565b6000602082019050818103600083015262000c6f8162000c2d565b9050919050565b7f556e697377617056323a205a45524f5f41444452455353000000000000000000600082015250565b600062000cae60178362000b81565b915062000cbb8262000c76565b602082019050919050565b6000602082019050818103600083015262000ce18162000c9f565b9050919050565b7f556e697377617056323a20504149525f45584953545300000000000000000000600082015250565b600062000d2060168362000b81565b915062000d2d8262000ce8565b602082019050919050565b6000602082019050818103600083015262000d538162000d11565b9050919050565b60008160601b9050919050565b600062000d748262000d5a565b9050919050565b600062000d888262000d67565b9050919050565b62000da462000d9e82620009f5565b62000d7b565b82525050565b600062000db8828562000d8f565b60148201915062000dca828462000d8f565b6014820191508190509392505050565b600060408201905062000df1600083018562000a09565b62000e00602083018462000a09565b9392505050565b600060408201905062000e1e600083018562000a09565b62000e2d602083018462000aa9565b939250505056fe60806040526001600c553480156200001657600080fd5b5060004690507f8b73c3c69bb8fe3d512ecc4cf759cc79239f7b179b0ffacaa9a75d522b39400f6040518060400160405280600a81526020017f556e697377617020563200000000000000000000000000000000000000000000815250805190602001206040518060400160405280600181526020017f3100000000000000000000000000000000000000000000000000000000000000815250805190602001208330604051602001620000cf959493929190620001ae565b604051602081830303815290604052805190602001206003819055505033600560006101000a81548173ffffffffffffffffffffffffffffffffffffffff021916908373ffffffffffffffffffffffffffffffffffffffff1602179055506200020b565b6000819050919050565b620001488162000133565b82525050565b6000819050919050565b62000163816200014e565b82525050565b600073ffffffffffffffffffffffffffffffffffffffff82169050919050565b6000620001968262000169565b9050919050565b620001a88162000189565b82525050565b600060a082019050620001c560008301886200013d565b620001d460208301876200013d565b620001e360408301866200013d565b620001f2606083018562000158565b6200020160808301846200019d565b9695505050505050565b61407e806200021b6000396000f3fe608060405234801561001057600080fd5b50600436106101a95760003560e01c80636a627842116100f9578063ba9a7a5611610097578063d21220a711610071578063d21220a7146104db578063d505accf146104f9578063dd62ed3e14610515578063fff6cae914610545576101a9565b8063ba9a7a5614610483578063bc25cf77146104a1578063c45a0155146104bd576101a9565b80637ecebe00116100d35780637ecebe00146103d457806389afcb441461040457806395d89b4114610435578063a9059cbb14610453576101a9565b80636a6278421461035657806370a08231146103865780637464fc3d146103b6576101a9565b806323b872dd116101665780633644e515116101405780633644e515146102e0578063485cc955146102fe5780635909c0d51461031a5780635a3d549314610338576101a9565b806323b872dd1461027457806330adf81f146102a4578063313ce567146102c2576101a9565b8063022c0d9f146101ae57806306fdde03146101ca5780630902f1ac146101e8578063095ea7b3146102085780630dfe16811461023857806318160ddd14610256575b600080fd5b6101c860048036038101906101c39190612d5f565b61054f565b005b6101d2610ba1565b6040516101df9190612e80565b60405180910390f35b6101f0610bda565b6040516101ff93929190612eea565b60405180910390f35b610222600480360381019061021d9190612f21565b610c37565b60405161022f9190612f7c565b60405180910390f35b610240610c4e565b60405161024d9190612fa6565b60405180910390f35b61025e610c74565b60405161026b9190612fd0565b60405180910390f35b61028e60048036038101906102899190612feb565b610c7a565b60405161029b9190612f7c565b60405180910390f35b6102ac610e45565b6040516102b99190613057565b60405180910390f35b6102ca610e6c565b6040516102d7919061308e565b60405180910390f35b6102e8610e71565b6040516102f59190613057565b60405180910390f35b610318600480360381019061031391906130a9565b610e77565b005b610322610f8d565b60405161032f9190612fd0565b60405180910390f35b610340610f93565b60405161034d9190612fd0565b60405180910390f35b610370600480360381019061036b91906130e9565b610f99565b60405161037d9190612fd0565b60405180910390f35b6103a0600480360381019061039b91906130e9565b611382565b6040516103ad9190612fd0565b60405180910390f35b6103be61139a565b6040516103cb9190612fd0565b60405180910390f35b6103ee60048036038101906103e991906130e9565b6113a0565b6040516103fb9190612fd0565b60405180910390f35b61041e600480360381019061041991906130e9565b6113b8565b60405161042c929190613116565b60405180910390f35b61043d611862565b60405161044a9190612e80565b60405180910390f35b61046d60048036038101906104689190612f21565b61189b565b60405161047a9190612f7c565b60405180910390f35b61048b6118b2565b6040516104989190612fd0565b60405180910390f35b6104bb60048036038101906104b691906130e9565b6118b8565b005b6104c5611ae4565b6040516104d29190612fa6565b60405180910390f35b6104e3611b0a565b6040516104f09190612fa6565b60405180910390f35b610513600480360381019061050e9190613197565b611b30565b005b61052f600480360381019061052a91906130a9565b611d58565b60405161053c9190612fd0565b60405180910390f35b61054d611d7d565b005b6001600c5414610594576040517f08c379a000000000000000000000000000000000000000000000000000000000815260040161058b90613285565b60405180910390fd5b6000600c8190555060008511806105ab5750600084115b6105ea576040517f08c379a00000000000000000000000000000000000000000000000000000000081526004016105e190613317565b60405180910390fd5b6000806105f5610bda565b5091509150816dffffffffffffffffffffffffffff16871080156106285750806dffffffffffffffffffffffffffff1686105b610667576040517f08c379a000000000000000000000000000000000000000000000000000000000815260040161065e906133a9565b60405180910390fd5b6000806000600660009054906101000a900473ffffffffffffffffffffffffffffffffffffffff1690506000600760009054906101000a900473ffffffffffffffffffffffffffffffffffffffff1690508173ffffffffffffffffffffffffffffffffffffffff168973ffffffffffffffffffffffffffffffffffffffff161415801561072057508073ffffffffffffffffffffffffffffffffffffffff168973ffffffffffffffffffffffffffffffffffffffff1614155b61075f576040517f08c379a000000000000000000000000000000000000000000000000000000000815260040161075690613415565b60405180910390fd5b60008b111561077457610773828a8d611f4e565b5b60008a111561078957610788818a8c611f4e565b5b6000888890501115610809578873ffffffffffffffffffffffffffffffffffffffff166310d1e85c338d8d8c8c6040518663ffffffff1660e01b81526004016107d6959493929190613482565b600060405180830381600087803b1580156107f057600080fd5b505af1158015610804573d6000803e3d6000fd5b505050505b8173ffffffffffffffffffffffffffffffffffffffff166370a08231306040518263ffffffff1660e01b81526004016108429190612fa6565b602060405180830381865afa15801561085f573d6000803e3d6000fd5b505050506040513d601f19601f8201168201806040525081019061088391906134e5565b93508073ffffffffffffffffffffffffffffffffffffffff166370a08231306040518263ffffffff1660e01b81526004016108be9190612fa6565b602060405180830381865afa1580156108db573d6000803e3d6000fd5b505050506040513d601f19601f820116820180604052508101906108ff91906134e5565b92505050600089856dffffffffffffffffffffffffffff166109219190613541565b831161092e576000610956565b89856dffffffffffffffffffffffffffff1661094a9190613541565b836109559190613541565b5b9050600089856dffffffffffffffffffffffffffff166109769190613541565b83116109835760006109ab565b89856dffffffffffffffffffffffffffff1661099f9190613541565b836109aa9190613541565b5b905060008211806109bc5750600081115b6109fb576040517f08c379a00000000000000000000000000000000000000000000000000000000081526004016109f2906135e7565b60405180910390fd5b6000610a37610a146003856120d890919063ffffffff16565b610a296103e8886120d890919063ffffffff16565b61214590919063ffffffff16565b90506000610a75610a526003856120d890919063ffffffff16565b610a676103e8886120d890919063ffffffff16565b61214590919063ffffffff16565b9050610abf620f4240610ab1896dffffffffffffffffffffffffffff168b6dffffffffffffffffffffffffffff166120d890919063ffffffff16565b6120d890919063ffffffff16565b610ad282846120d890919063ffffffff16565b1015610b13576040517f08c379a0000000000000000000000000000000000000000000000000000000008152600401610b0a90613653565b60405180910390fd5b5050610b218484888861219e565b8873ffffffffffffffffffffffffffffffffffffffff163373ffffffffffffffffffffffffffffffffffffffff167fd78ad95fa46c994b6551d0da85fc275fe613ce37657fb8d5e3d130840159d82284848f8f604051610b849493929190613673565b60405180910390a35050505050506001600c819055505050505050565b6040518060400160405280600a81526020017f556e69737761702056320000000000000000000000000000000000000000000081525081565b6000806000600860009054906101000a90046dffffffffffffffffffffffffffff1692506008600e9054906101000a90046dffffffffffffffffffffffffffff1691506008601c9054906101000a900463ffffffff169050909192565b6000610c44338484612492565b6001905092915050565b600660009054906101000a900473ffffffffffffffffffffffffffffffffffffffff1681565b60005481565b60007fffffffffffffffffffffffffffffffffffffffffffffffffffffffffffffffff600260008673ffffffffffffffffffffffffffffffffffffffff1673ffffffffffffffffffffffffffffffffffffffff16815260200190815260200160002060003373ffffffffffffffffffffffffffffffffffffffff1673ffffffffffffffffffffffffffffffffffffffff1681526020019081526020016000205414610e2f57610dae82600260008773ffffffffffffffffffffffffffffffffffffffff1673ffffffffffffffffffffffffffffffffffffffff16815260200190815260200160002060003373ffffffffffffffffffffffffffffffffffffffff1673ffffffffffffffffffffffffffffffffffffffff1681526020019081526020016000205461214590919063ffffffff16565b600260008673ffffffffffffffffffffffffffffffffffffffff1673ffffffffffffffffffffffffffffffffffffffff16815260200190815260200160002060003373ffffffffffffffffffffffffffffffffffffffff1673ffffffffffffffffffffffffffffffffffffffff168152602001908152602001600020819055505b610e3a84848461257d565b600190509392505050565b7f6e71edae12b1b97f4d1f60370fef10105fa2faae0126114a169c64845d6126c960001b81565b601281565b60035481565b600560009054906101000a900473ffffffffffffffffffffffffffffffffffffffff1673ffffffffffffffffffffffffffffffffffffffff163373ffffffffffffffffffffffffffffffffffffffff1614610f07576040517f08c379a0000000000000000000000000000000000000000000000000000000008152600401610efe90613704565b60405180910390fd5b81600660006101000a81548173ffffffffffffffffffffffffffffffffffffffff021916908373ffffffffffffffffffffffffffffffffffffffff16021790555080600760006101000a81548173ffffffffffffffffffffffffffffffffffffffff021916908373ffffffffffffffffffffffffffffffffffffffff1602179055505050565b60095481565b600a5481565b60006001600c5414610fe0576040517f08c379a0000000000000000000000000000000000000000000000000000000008152600401610fd790613285565b60405180910390fd5b6000600c81905550600080610ff3610bda565b50915091506000600660009054906101000a900473ffffffffffffffffffffffffffffffffffffffff1673ffffffffffffffffffffffffffffffffffffffff166370a08231306040518263ffffffff1660e01b81526004016110559190612fa6565b602060405180830381865afa158015611072573d6000803e3d6000fd5b505050506040513d601f19601f8201168201806040525081019061109691906134e5565b90506000600760009054906101000a900473ffffffffffffffffffffffffffffffffffffffff1673ffffffffffffffffffffffffffffffffffffffff166370a08231306040518263ffffffff1660e01b81526004016110f59190612fa6565b602060405180830381865afa158015611112573d6000803e3d6000fd5b505050506040513d601f19601f8201168201806040525081019061113691906134e5565b9050600061115d856dffffffffffffffffffffffffffff168461214590919063ffffffff16565b90506000611184856dffffffffffffffffffffffffffff168461214590919063ffffffff16565b905060006111928787612711565b9050600080549050600081036111e5576111d16103e86111c36111be86886120d890919063ffffffff16565b6128e2565b61214590919063ffffffff16565b98506111e060006103e861295c565b61124c565b611249886dffffffffffffffffffffffffffff1661120c83876120d890919063ffffffff16565b6112169190613753565b886dffffffffffffffffffffffffffff1661123a84876120d890919063ffffffff16565b6112449190613753565b612a76565b98505b6000891161128f576040517f08c379a0000000000000000000000000000000000000000000000000000000008152600401611286906137f6565b60405180910390fd5b6112998a8a61295c565b6112a586868a8a61219e565b811561131d576113166008600e9054906101000a90046dffffffffffffffffffffffffffff166dffffffffffffffffffffffffffff16600860009054906101000a90046dffffffffffffffffffffffffffff166dffffffffffffffffffffffffffff166120d890919063ffffffff16565b600b819055505b3373ffffffffffffffffffffffffffffffffffffffff167f4c209b5fc8ad50758f13e2e1088ba56a560dff690a1c6fef26394f4c03821c4f8585604051611365929190613116565b60405180910390a250505050505050506001600c81905550919050565b60016020528060005260406000206000915090505481565b600b5481565b60046020528060005260406000206000915090505481565b6000806001600c5414611400576040517f08c379a00000000000000000000000000000000000000000000000000000000081526004016113f790613285565b60405180910390fd5b6000600c81905550600080611413610bda565b50915091506000600660009054906101000a900473ffffffffffffffffffffffffffffffffffffffff1690506000600760009054906101000a900473ffffffffffffffffffffffffffffffffffffffff16905060008273ffffffffffffffffffffffffffffffffffffffff166370a08231306040518263ffffffff1660e01b81526004016114a19190612fa6565b602060405180830381865afa1580156114be573d6000803e3d6000fd5b505050506040513d601f19601f820116820180604052508101906114e291906134e5565b905060008273ffffffffffffffffffffffffffffffffffffffff166370a08231306040518263ffffffff1660e01b815260040161151f9190612fa6565b602060405180830381865afa15801561153c573d6000803e3d6000fd5b505050506040513d601f19601f8201168201806040525081019061156091906134e5565b90506000600160003073ffffffffffffffffffffffffffffffffffffffff1673ffffffffffffffffffffffffffffffffffffffff16815260200190815260200160002054905060006115b28888612711565b9050600080549050806115ce86856120d890919063ffffffff16565b6115d89190613753565b9a50806115ee85856120d890919063ffffffff16565b6115f89190613753565b995060008b11801561160a575060008a115b611649576040517f08c379a000000000000000000000000000000000000000000000000000000000815260040161164090613888565b60405180910390fd5b6116533084612a8f565b61165e878d8d611f4e565b611669868d8c611f4e565b8673ffffffffffffffffffffffffffffffffffffffff166370a08231306040518263ffffffff1660e01b81526004016116a29190612fa6565b602060405180830381865afa1580156116bf573d6000803e3d6000fd5b505050506040513d601f19601f820116820180604052508101906116e391906134e5565b94508573ffffffffffffffffffffffffffffffffffffffff166370a08231306040518263ffffffff1660e01b815260040161171e9190612fa6565b602060405180830381865afa15801561173b573d6000803e3d6000fd5b505050506040513d601f19601f8201168201806040525081019061175f91906134e5565b935061176d85858b8b61219e565b81156117e5576117de6008600e9054906101000a90046dffffffffffffffffffffffffffff166dffffffffffffffffffffffffffff16600860009054906101000a90046dffffffffffffffffffffffffffff166dffffffffffffffffffffffffffff166120d890919063ffffffff16565b600b819055505b8b73ffffffffffffffffffffffffffffffffffffffff163373ffffffffffffffffffffffffffffffffffffffff167fdccd412f0b1252819cb1fd330b93224ca42612892bb3f4f789976e6d819364968d8d604051611844929190613116565b60405180910390a35050505050505050506001600c81905550915091565b6040518060400160405280600681526020017f554e492d5632000000000000000000000000000000000000000000000000000081525081565b60006118a833848461257d565b6001905092915050565b6103e881565b6001600c54146118fd576040517f08c379a00000000000000000000000000000000000000000000000000000000081526004016118f490613285565b60405180910390fd5b6000600c819055506000600660009054906101000a900473ffffffffffffffffffffffffffffffffffffffff1690506000600760009054906101000a900473ffffffffffffffffffffffffffffffffffffffff169050611a158284611a10600860009054906101000a90046dffffffffffffffffffffffffffff166dffffffffffffffffffffffffffff168673ffffffffffffffffffffffffffffffffffffffff166370a08231306040518263ffffffff1660e01b81526004016119c19190612fa6565b602060405180830381865afa1580156119de573d6000803e3d6000fd5b505050506040513d601f19601f82011682018060405250810190611a0291906134e5565b61214590919063ffffffff16565b611f4e565b611ad78184611ad26008600e9054906101000a90046dffffffffffffffffffffffffffff166dffffffffffffffffffffffffffff168573ffffffffffffffffffffffffffffffffffffffff166370a08231306040518263ffffffff1660e01b8152600401611a839190612fa6565b602060405180830381865afa158015611aa0573d6000803e3d6000fd5b505050506040513d601f19601f82011682018060405250810190611ac491906134e5565b61214590919063ffffffff16565b611f4e565b50506001600c8190555050565b600560009054906101000a900473ffffffffffffffffffffffffffffffffffffffff1681565b600760009054906101000a900473ffffffffffffffffffffffffffffffffffffffff1681565b42841015611b73576040517f08c379a0000000000000000000000000000000000000000000000000000000008152600401611b6a906138f4565b60405180910390fd5b60006003547f6e71edae12b1b97f4d1f60370fef10105fa2faae0126114a169c64845d6126c960001b898989600460008e73ffffffffffffffffffffffffffffffffffffffff1673ffffffffffffffffffffffffffffffffffffffff1681526020019081526020016000206000815480929190611bef90613914565b919050558a604051602001611c099695949392919061395c565b60405160208183030381529060405280519060200120604051602001611c30929190613a35565b604051602081830303815290604052805190602001209050600060018286868660405160008152602001604052604051611c6d9493929190613a6c565b6020604051602081039080840390855afa158015611c8f573d6000803e3d6000fd5b505050602060405103519050600073ffffffffffffffffffffffffffffffffffffffff168173ffffffffffffffffffffffffffffffffffffffff1614158015611d0357508873ffffffffffffffffffffffffffffffffffffffff168173ffffffffffffffffffffffffffffffffffffffff16145b611d42576040517f08c379a0000000000000000000000000000000000000000000000000000000008152600401611d3990613afd565b60405180910390fd5b611d4d898989612492565b505050505050505050565b6002602052816000526040600020602052806000526040600020600091509150505481565b6001600c5414611dc2576040517f08c379a0000000000000000000000000000000000000000000000000000000008152600401611db990613285565b60405180910390fd5b6000600c81905550611f44600660009054906101000a900473ffffffffffffffffffffffffffffffffffffffff1673ffffffffffffffffffffffffffffffffffffffff166370a08231306040518263ffffffff1660e01b8152600401611e289190612fa6565b602060405180830381865afa158015611e45573d6000803e3d6000fd5b505050506040513d601f19601f82011682018060405250810190611e6991906134e5565b600760009054906101000a900473ffffffffffffffffffffffffffffffffffffffff1673ffffffffffffffffffffffffffffffffffffffff166370a08231306040518263ffffffff1660e01b8152600401611ec49190612fa6565b602060405180830381865afa158015611ee1573d6000803e3d6000fd5b505050506040513d601f19601f82011682018060405250810190611f0591906134e5565b600860009054906101000a90046dffffffffffffffffffffffffffff166008600e9054906101000a90046dffffffffffffffffffffffffffff1661219e565b6001600c81905550565b6000808473ffffffffffffffffffffffffffffffffffffffff166040518060400160405280601981526020017f7472616e7366657228616464726573732c75696e743235362900000000000000815250805190602001208585604051602401611fb8929190613b1d565b604051602081830303815290604052907bffffffffffffffffffffffffffffffffffffffffffffffffffffffff19166020820180517bffffffffffffffffffffffffffffffffffffffffffffffffffffffff83818316178352505050506040516120229190613b8d565b6000604051808303816000865af19150503d806000811461205f576040519150601f19603f3d011682016040523d82523d6000602084013e612064565b606091505b509150915081801561209257506000815114806120915750808060200190518101906120909190613bd0565b5b5b6120d1576040517f08c379a00000000000000000000000000000000000000000000000000000000081526004016120c890613c49565b60405180910390fd5b5050505050565b6000808214806121005750828283856120f19190613c69565b9250826120fe9190613753565b145b61213f576040517f08c379a000000000000000000000000000000000000000000000000000000000815260040161213690613d0f565b60405180910390fd5b92915050565b60008282846121549190613541565b9150811115612198576040517f08c379a000000000000000000000000000000000000000000000000000000000815260040161218f90613d7b565b60405180910390fd5b92915050565b6dffffffffffffffffffffffffffff801684111580156121ce57506dffffffffffffffffffffffffffff80168311155b61220d576040517f08c379a000000000000000000000000000000000000000000000000000000000815260040161220490613de7565b60405180910390fd5b6000640100000000426122209190613e07565b905060006008601c9054906101000a900463ffffffff16826122429190613e38565b905060008163ffffffff1611801561226b57506000846dffffffffffffffffffffffffffff1614155b801561228857506000836dffffffffffffffffffffffffffff1614155b1561238e578063ffffffff166122cd856122a186612ba9565b7bffffffffffffffffffffffffffffffffffffffffffffffffffffffff16612bdd90919063ffffffff16565b7bffffffffffffffffffffffffffffffffffffffffffffffffffffffff166122f59190613c69565b600960008282546123069190613e6c565b925050819055508063ffffffff1661234d8461232187612ba9565b7bffffffffffffffffffffffffffffffffffffffffffffffffffffffff16612bdd90919063ffffffff16565b7bffffffffffffffffffffffffffffffffffffffffffffffffffffffff166123759190613c69565b600a60008282546123869190613e6c565b925050819055505b85600860006101000a8154816dffffffffffffffffffffffffffff02191690836dffffffffffffffffffffffffffff160217905550846008600e6101000a8154816dffffffffffffffffffffffffffff02191690836dffffffffffffffffffffffffffff160217905550816008601c6101000a81548163ffffffff021916908363ffffffff1602179055507f1c411e9a96e071241c2f21f7726b17ae89e3cab4c78be50e062b03a9fffbbad1600860009054906101000a90046dffffffffffffffffffffffffffff166008600e9054906101000a90046dffffffffffffffffffffffffffff16604051612482929190613ec2565b60405180910390a1505050505050565b80600260008573ffffffffffffffffffffffffffffffffffffffff1673ffffffffffffffffffffffffffffffffffffffff16815260200190815260200160002060008473ffffffffffffffffffffffffffffffffffffffff1673ffffffffffffffffffffffffffffffffffffffff168152602001908152602001600020819055508173ffffffffffffffffffffffffffffffffffffffff168373ffffffffffffffffffffffffffffffffffffffff167f8c5be1e5ebec7d5bd14f71427d1e84f3dd0314c0f7b2291e5b200ac8c7c3b925836040516125709190612fd0565b60405180910390a3505050565b6125cf81600160008673ffffffffffffffffffffffffffffffffffffffff1673ffffffffffffffffffffffffffffffffffffffff1681526020019081526020016000205461214590919063ffffffff16565b600160008573ffffffffffffffffffffffffffffffffffffffff1673ffffffffffffffffffffffffffffffffffffffff1681526020019081526020016000208190555061266481600160008573ffffffffffffffffffffffffffffffffffffffff1673ffffffffffffffffffffffffffffffffffffffff16815260200190815260200160002054612c0390919063ffffffff16565b600160008473ffffffffffffffffffffffffffffffffffffffff1673ffffffffffffffffffffffffffffffffffffffff168152602001908152602001600020819055508173ffffffffffffffffffffffffffffffffffffffff168373ffffffffffffffffffffffffffffffffffffffff167fddf252ad1be2c89b69c2b068fc378daa952ba7f163c4a11628f55a4df523b3ef836040516127049190612fd0565b60405180910390a3505050565b600080600560009054906101000a900473ffffffffffffffffffffffffffffffffffffffff1673ffffffffffffffffffffffffffffffffffffffff1663017e7e586040518163ffffffff1660e01b8152600401602060405180830381865afa158015612781573d6000803e3d6000fd5b505050506040513d601f19601f820116820180604052508101906127a59190613f00565b9050600073ffffffffffffffffffffffffffffffffffffffff168173ffffffffffffffffffffffffffffffffffffffff16141591506000600b54905082156128c857600081146128c357600061282c612827866dffffffffffffffffffffffffffff16886dffffffffffffffffffffffffffff166120d890919063ffffffff16565b6128e2565b90506000612839836128e2565b9050808211156128c057600061286c61285b838561214590919063ffffffff16565b6000546120d890919063ffffffff16565b90506000612896836128886005876120d890919063ffffffff16565b612c0390919063ffffffff16565b9050600081836128a69190613753565b905060008111156128bc576128bb878261295c565b5b5050505b50505b6128da565b600081146128d9576000600b819055505b5b505092915050565b6000600382111561294957819050600060016002846129019190613753565b61290b9190613e6c565b90505b818110156129435780915060028182856129289190613753565b6129329190613e6c565b61293c9190613753565b905061290e565b50612957565b6000821461295657600190505b5b919050565b61297181600054612c0390919063ffffffff16565b6000819055506129c981600160008573ffffffffffffffffffffffffffffffffffffffff1673ffffffffffffffffffffffffffffffffffffffff16815260200190815260200160002054612c0390919063ffffffff16565b600160008473ffffffffffffffffffffffffffffffffffffffff1673ffffffffffffffffffffffffffffffffffffffff168152602001908152602001600020819055508173ffffffffffffffffffffffffffffffffffffffff16600073ffffffffffffffffffffffffffffffffffffffff167fddf252ad1be2c89b69c2b068fc378daa952ba7f163c4a11628f55a4df523b3ef83604051612a6a9190612fd0565b60405180910390a35050565b6000818310612a855781612a87565b825b905092915050565b612ae181600160008573ffffffffffffffffffffffffffffffffffffffff1673ffffffffffffffffffffffffffffffffffffffff1681526020019081526020016000205461214590919063ffffffff16565b600160008473ffffffffffffffffffffffffffffffffffffffff1673ffffffffffffffffffffffffffffffffffffffff16815260200190815260200160002081905550612b398160005461214590919063ffffffff16565b600081905550600073ffffffffffffffffffffffffffffffffffffffff168273ffffffffffffffffffffffffffffffffffffffff167fddf252ad1be2c89b69c2b068fc378daa952ba7f163c4a11628f55a4df523b3ef83604051612b9d9190612fd0565b60405180910390a35050565b60006e010000000000000000000000000000826dffffffffffffffffffffffffffff16612bd69190613f55565b9050919050565b6000816dffffffffffffffffffffffffffff1683612bfb9190613fab565b905092915050565b6000828284612c129190613e6c565b9150811015612c56576040517f08c379a0000000000000000000000000000000000000000000000000000000008152600401612c4d90614028565b60405180910390fd5b92915050565b600080fd5b600080fd5b6000819050919050565b612c7981612c66565b8114612c8457600080fd5b50565b600081359050612c9681612c70565b92915050565b600073ffffffffffffffffffffffffffffffffffffffff82169050919050565b6000612cc782612c9c565b9050919050565b612cd781612cbc565b8114612ce257600080fd5b50565b600081359050612cf481612cce565b92915050565b600080fd5b600080fd5b600080fd5b60008083601f840112612d1f57612d1e612cfa565b5b8235905067ffffffffffffffff811115612d3c57612d3b612cff565b5b602083019150836001820283011115612d5857612d57612d04565b5b9250929050565b600080600080600060808688031215612d7b57612d7a612c5c565b5b6000612d8988828901612c87565b9550506020612d9a88828901612c87565b9450506040612dab88828901612ce5565b935050606086013567ffffffffffffffff811115612dcc57612dcb612c61565b5b612dd888828901612d09565b92509250509295509295909350565b600081519050919050565b600082825260208201905092915050565b60005b83811015612e21578082015181840152602081019050612e06565b83811115612e30576000848401525b50505050565b6000601f19601f8301169050919050565b6000612e5282612de7565b612e5c8185612df2565b9350612e6c818560208601612e03565b612e7581612e36565b840191505092915050565b60006020820190508181036000830152612e9a8184612e47565b905092915050565b60006dffffffffffffffffffffffffffff82169050919050565b612ec581612ea2565b82525050565b600063ffffffff82169050919050565b612ee481612ecb565b82525050565b6000606082019050612eff6000830186612ebc565b612f0c6020830185612ebc565b612f196040830184612edb565b949350505050565b60008060408385031215612f3857612f37612c5c565b5b6000612f4685828601612ce5565b9250506020612f5785828601612c87565b9150509250929050565b60008115159050919050565b612f7681612f61565b82525050565b6000602082019050612f916000830184612f6d565b92915050565b612fa081612cbc565b82525050565b6000602082019050612fbb6000830184612f97565b92915050565b612fca81612c66565b82525050565b6000602082019050612fe56000830184612fc1565b92915050565b60008060006060848603121561300457613003612c5c565b5b600061301286828701612ce5565b935050602061302386828701612ce5565b925050604061303486828701612c87565b9150509250925092565b6000819050919050565b6130518161303e565b82525050565b600060208201905061306c6000830184613048565b92915050565b600060ff82169050919050565b61308881613072565b82525050565b60006020820190506130a3600083018461307f565b92915050565b600080604083850312156130c0576130bf612c5c565b5b60006130ce85828601612ce5565b92505060206130df85828601612ce5565b9150509250929050565b6000602082840312156130ff576130fe612c5c565b5b600061310d84828501612ce5565b91505092915050565b600060408201905061312b6000830185612fc1565b6131386020830184612fc1565b9392505050565b61314881613072565b811461315357600080fd5b50565b6000813590506131658161313f565b92915050565b6131748161303e565b811461317f57600080fd5b50565b6000813590506131918161316b565b92915050565b600080600080600080600060e0888a0312156131b6576131b5612c5c565b5b60006131c48a828b01612ce5565b97505060206131d58a828b01612ce5565b96505060406131e68a828b01612c87565b95505060606131f78a828b01612c87565b94505060806132088a828b01613156565b93505060a06132198a828b01613182565b92505060c061322a8a828b01613182565b91505092959891949750929550565b7f556e697377617056323a204c4f434b4544000000000000000000000000000000600082015250565b600061326f601183612df2565b915061327a82613239565b602082019050919050565b6000602082019050818103600083015261329e81613262565b9050919050565b7f556e697377617056323a20494e53554646494349454e545f4f55545055545f4160008201527f4d4f554e54000000000000000000000000000000000000000000000000000000602082015250565b6000613301602583612df2565b915061330c826132a5565b604082019050919050565b60006020820190508181036000830152613330816132f4565b9050919050565b7f556e697377617056323a20494e53554646494349454e545f4c4951554944495460008201527f5900000000000000000000000000000000000000000000000000000000000000602082015250565b6000613393602183612df2565b915061339e82613337565b604082019050919050565b600060208201905081810360008301526133c281613386565b9050919050565b7f556e697377617056323a20494e56414c49445f544f0000000000000000000000600082015250565b60006133ff601583612df2565b915061340a826133c9565b602082019050919050565b6000602082019050818103600083015261342e816133f2565b9050919050565b600082825260208201905092915050565b82818337600083830152505050565b60006134618385613435565b935061346e838584613446565b61347783612e36565b840190509392505050565b60006080820190506134976000830188612f97565b6134a46020830187612fc1565b6134b16040830186612fc1565b81810360608301526134c4818486613455565b90509695505050505050565b6000815190506134df81612c70565b92915050565b6000602082840312156134fb576134fa612c5c565b5b6000613509848285016134d0565b91505092915050565b7f4e487b7100000000000000000000000000000000000000000000000000000000600052601160045260246000fd5b600061354c82612c66565b915061355783612c66565b92508282101561356a57613569613512565b5b828203905092915050565b7f556e697377617056323a20494e53554646494349454e545f494e5055545f414d60008201527f4f554e5400000000000000000000000000000000000000000000000000000000602082015250565b60006135d1602483612df2565b91506135dc82613575565b604082019050919050565b60006020820190508181036000830152613600816135c4565b9050919050565b7f556e697377617056323a204b0000000000000000000000000000000000000000600082015250565b600061363d600c83612df2565b915061364882613607565b602082019050919050565b6000602082019050818103600083015261366c81613630565b9050919050565b60006080820190506136886000830187612fc1565b6136956020830186612fc1565b6136a26040830185612fc1565b6136af6060830184612fc1565b95945050505050565b7f556e697377617056323a20464f5242494444454e000000000000000000000000600082015250565b60006136ee601483612df2565b91506136f9826136b8565b602082019050919050565b6000602082019050818103600083015261371d816136e1565b9050919050565b7f4e487b7100000000000000000000000000000000000000000000000000000000600052601260045260246000fd5b600061375e82612c66565b915061376983612c66565b92508261377957613778613724565b5b828204905092915050565b7f556e697377617056323a20494e53554646494349454e545f4c4951554944495460008201527f595f4d494e544544000000000000000000000000000000000000000000000000602082015250565b60006137e0602883612df2565b91506137eb82613784565b604082019050919050565b6000602082019050818103600083015261380f816137d3565b9050919050565b7f556e697377617056323a20494e53554646494349454e545f4c4951554944495460008201527f595f4255524e4544000000000000000000000000000000000000000000000000602082015250565b6000613872602883612df2565b915061387d82613816565b604082019050919050565b600060208201905081810360008301526138a181613865565b9050919050565b7f556e697377617056323a20455850495245440000000000000000000000000000600082015250565b60006138de601283612df2565b91506138e9826138a8565b602082019050919050565b6000602082019050818103600083015261390d816138d1565b9050919050565b600061391f82612c66565b91507fffffffffffffffffffffffffffffffffffffffffffffffffffffffffffffffff820361395157613950613512565b5b600182019050919050565b600060c0820190506139716000830189613048565b61397e6020830188612f97565b61398b6040830187612f97565b6139986060830186612fc1565b6139a56080830185612fc1565b6139b260a0830184612fc1565b979650505050505050565b600081905092915050565b7f1901000000000000000000000000000000000000000000000000000000000000600082015250565b60006139fe6002836139bd565b9150613a09826139c8565b600282019050919050565b6000819050919050565b613a2f613a2a8261303e565b613a14565b82525050565b6000613a40826139f1565b9150613a4c8285613a1e565b602082019150613a5c8284613a1e565b6020820191508190509392505050565b6000608082019050613a816000830187613048565b613a8e602083018661307f565b613a9b6040830185613048565b613aa86060830184613048565b95945050505050565b7f556e697377617056323a20494e56414c49445f5349474e415455524500000000600082015250565b6000613ae7601c83612df2565b9150613af282613ab1565b602082019050919050565b60006020820190508181036000830152613b1681613ada565b9050919050565b6000604082019050613b326000830185612f97565b613b3f6020830184612fc1565b9392505050565b600081519050919050565b600081905092915050565b6000613b6782613b46565b613b718185613b51565b9350613b81818560208601612e03565b80840191505092915050565b6000613b998284613b5c565b915081905092915050565b613bad81612f61565b8114613bb857600080fd5b50565b600081519050613bca81613ba4565b92915050565b600060208284031215613be657613be5612c5c565b5b6000613bf484828501613bbb565b91505092915050565b7f556e697377617056323a205452414e534645525f4641494c4544000000000000600082015250565b6000613c33601a83612df2565b9150613c3e82613bfd565b602082019050919050565b60006020820190508181036000830152613c6281613c26565b9050919050565b6000613c7482612c66565b9150613c7f83612c66565b9250817fffffffffffffffffffffffffffffffffffffffffffffffffffffffffffffffff0483118215151615613cb857613cb7613512565b5b828202905092915050565b7f64732d6d6174682d6d756c2d6f766572666c6f77000000000000000000000000600082015250565b6000613cf9601483612df2565b9150613d0482613cc3565b602082019050919050565b60006020820190508181036000830152613d2881613cec565b9050919050565b7f64732d6d6174682d7375622d756e646572666c6f770000000000000000000000600082015250565b6000613d65601583612df2565b9150613d7082613d2f565b602082019050919050565b60006020820190508181036000830152613d9481613d58565b9050919050565b7f556e697377617056323a204f564552464c4f5700000000000000000000000000600082015250565b6000613dd1601383612df2565b9150613ddc82613d9b565b602082019050919050565b60006020820190508181036000830152613e0081613dc4565b9050919050565b6000613e1282612c66565b9150613e1d83612c66565b925082613e2d57613e2c613724565b5b828206905092915050565b6000613e4382612ecb565b9150613e4e83612ecb565b925082821015613e6157613e60613512565b5b828203905092915050565b6000613e7782612c66565b9150613e8283612c66565b9250827fffffffffffffffffffffffffffffffffffffffffffffffffffffffffffffffff03821115613eb757613eb6613512565b5b828201905092915050565b6000604082019050613ed76000830185612ebc565b613ee46020830184612ebc565b9392505050565b600081519050613efa81612cce565b92915050565b600060208284031215613f1657613f15612c5c565b5b6000613f2484828501613eeb565b91505092915050565b60007bffffffffffffffffffffffffffffffffffffffffffffffffffffffff82169050919050565b6000613f6082613f2d565b9150613f6b83613f2d565b9250817bffffffffffffffffffffffffffffffffffffffffffffffffffffffff0483118215151615613fa057613f9f613512565b5b828202905092915050565b6000613fb682613f2d565b9150613fc183613f2d565b925082613fd157613fd0613724565b5b828204905092915050565b7f64732d6d6174682d6164642d6f766572666c6f77000000000000000000000000600082015250565b6000614012601483612df2565b915061401d82613fdc565b602082019050919050565b6000602082019050818103600083015261404181614005565b905091905056fea2646970667358221220e8e8be0031c07768e4b96ee8b1c88422d04e614d2e3aabd499aee9f442fe937264736f6c634300080d0033a2646970667358221220f9791f2f65543fc981e2dc3eb1de8c54b6f8634acc3e6b59fcdc82b74ce6d66b64736f6c634300080d0033",
  "immutableReferences": {},
  "source": "pragma solidity >=0.8.13;\n\nimport './interfaces/IUniswapV2Factory.sol';\nimport './UniswapV2Pair.sol';\n\ncontract UniswapV2Factory is IUniswapV2Factory {\n    address public feeTo;\n    address public feeToSetter;\n\n    mapping(address => mapping(address => address)) public getPair;\n    address[] public allPairs;\n\n    constructor(address _feeToSetter) {\n        feeToSetter = _feeToSetter;\n    }\n\n    function allPairsLength() external view returns (uint) {\n        return allPairs.length;\n    }\n\n    function createPair(address tokenA, address tokenB) external returns (address pair) {\n        require(tokenA != tokenB, 'UniswapV2: IDENTICAL_ADDRESSES');\n        (address token0, address token1) = tokenA < tokenB ? (tokenA, tokenB) : (tokenB, tokenA);\n        require(token0 != address(0), 'UniswapV2: ZERO_ADDRESS');\n        require(getPair[token0][token1] == address(0), 'UniswapV2: PAIR_EXISTS'); // single check is sufficient\n        bytes memory bytecode = type(UniswapV2Pair).creationCode;\n        bytes32 salt = keccak256(abi.encodePacked(token0, token1));\n        assembly {\n            pair := create2(0, add(bytecode, 32), mload(bytecode), salt)\n        }\n        IUniswapV2Pair(pair).initialize(token0, token1);\n        getPair[token0][token1] = pair;\n        getPair[token1][token0] = pair; // populate mapping in the reverse direction\n        allPairs.push(pair);\n        emit PairCreated(token0, token1, pair, allPairs.length);\n    }\n\n    function setFeeTo(address _feeTo) external {\n        require(msg.sender == feeToSetter, 'UniswapV2: FORBIDDEN');\n        feeTo = _feeTo;\n    }\n\n    function setFeeToSetter(address _feeToSetter) external {\n        require(msg.sender == feeToSetter, 'UniswapV2: FORBIDDEN');\n        feeToSetter = _feeToSetter;\n    }\n}\n",
  "sourcePath": "/home/dung/workspace/adaswap/adaswap-core/contracts/UniswapV2Factory.sol",
  "compiler": {
    "name": "solc",
    "version": "0.8.13+commit.abaa5c0e.Emscripten.clang"
  },
  "schemaVersion": "3.4.4",
  "updatedAt": "2022-03-18T15:40:48.474Z",
  "networkType": "ethereum",
  "devdoc": {
    "kind": "dev",
    "methods": {},
    "version": 1
  },
  "userdoc": {
    "kind": "user",
    "methods": {},
    "version": 1
  }
}