{
  "contractName": "ExampleOracleSimple",
  "abi": [
    {
      "inputs": [
        {
          "internalType": "address",
          "name": "factory",
          "type": "address"
        },
        {
          "internalType": "address",
          "name": "tokenA",
          "type": "address"
        },
        {
          "internalType": "address",
          "name": "tokenB",
          "type": "address"
        }
      ],
      "stateMutability": "nonpayable",
      "type": "constructor"
    },
    {
      "inputs": [],
      "name": "PERIOD",
      "outputs": [
        {
          "internalType": "uint256",
          "name": "",
          "type": "uint256"
        }
      ],
      "stateMutability": "view",
      "type": "function"
    },
    {
      "inputs": [],
      "name": "blockTimestampLast",
      "outputs": [
        {
          "internalType": "uint32",
          "name": "",
          "type": "uint32"
        }
      ],
      "stateMutability": "view",
      "type": "function"
    },
    {
      "inputs": [],
      "name": "price0Average",
      "outputs": [
        {
          "internalType": "uint224",
          "name": "_x",
          "type": "uint224"
        }
      ],
      "stateMutability": "view",
      "type": "function"
    },
    {
      "inputs": [],
      "name": "price0CumulativeLast",
      "outputs": [
        {
          "internalType": "uint256",
          "name": "",
          "type": "uint256"
        }
      ],
      "stateMutability": "view",
      "type": "function"
    },
    {
      "inputs": [],
      "name": "price1Average",
      "outputs": [
        {
          "internalType": "uint224",
          "name": "_x",
          "type": "uint224"
        }
      ],
      "stateMutability": "view",
      "type": "function"
    },
    {
      "inputs": [],
      "name": "price1CumulativeLast",
      "outputs": [
        {
          "internalType": "uint256",
          "name": "",
          "type": "uint256"
        }
      ],
      "stateMutability": "view",
      "type": "function"
    },
    {
      "inputs": [],
      "name": "token0",
      "outputs": [
        {
          "internalType": "address",
          "name": "",
          "type": "address"
        }
      ],
      "stateMutability": "view",
      "type": "function"
    },
    {
      "inputs": [],
      "name": "token1",
      "outputs": [
        {
          "internalType": "address",
          "name": "",
          "type": "address"
        }
      ],
      "stateMutability": "view",
      "type": "function"
    },
    {
      "inputs": [],
      "name": "update",
      "outputs": [],
      "stateMutability": "nonpayable",
      "type": "function"
    },
    {
      "inputs": [
        {
          "internalType": "address",
          "name": "token",
          "type": "address"
        },
        {
          "internalType": "uint256",
          "name": "amountIn",
          "type": "uint256"
        }
      ],
      "name": "consult",
      "outputs": [
        {
          "internalType": "uint256",
          "name": "amountOut",
          "type": "uint256"
        }
      ],
      "stateMutability": "view",
      "type": "function"
    }
  ],
  "bytecode": "0x60e06040523480156200001157600080fd5b506040516200199938038062001999833981016040819052620000349162000543565b60006200004e8484846200034260201b620006311760201c565b9050806001600160a01b03166080816001600160a01b031681525050806001600160a01b0316630dfe16816040518163ffffffff1660e01b8152600401602060405180830381865afa158015620000a9573d6000803e3d6000fd5b505050506040513d601f19601f82011682018060405250810190620000cf91906200058d565b6001600160a01b031660a0816001600160a01b031681525050806001600160a01b031663d21220a76040518163ffffffff1660e01b8152600401602060405180830381865afa15801562000127573d6000803e3d6000fd5b505050506040513d601f19601f820116820180604052508101906200014d91906200058d565b6001600160a01b031660c0816001600160a01b031681525050806001600160a01b0316635909c0d56040518163ffffffff1660e01b8152600401602060405180830381865afa158015620001a5573d6000803e3d6000fd5b505050506040513d601f19601f82011682018060405250810190620001cb9190620005b2565b600081905550806001600160a01b0316635a3d54936040518163ffffffff1660e01b8152600401602060405180830381865afa15801562000210573d6000803e3d6000fd5b505050506040513d601f19601f82011682018060405250810190620002369190620005b2565b600181905550600080826001600160a01b0316630902f1ac6040518163ffffffff1660e01b8152600401606060405180830381865afa1580156200027e573d6000803e3d6000fd5b505050506040513d601f19601f82011682018060405250810190620002a49190620005e4565b6002805463ffffffff191663ffffffff9290921691909117905590925090506001600160701b03821615801590620002e457506001600160701b03811615155b620003365760405162461bcd60e51b815260206004820181905260248201527f4578616d706c654f7261636c6553696d706c653a204e4f5f524553455256455360448201526064015b60405180910390fd5b5050505050506200063a565b600080806200035285856200042b565b6040516001600160601b0319606084811b8216602084015283901b1660348201529193509150869060480160405160208183030381529060405280519060200120604051602001620004099291907fff00000000000000000000000000000000000000000000000000000000000000815260609290921b6001600160601b031916600183015260158201527f6582cb976959f37676f927ada60cce63e2a0269623981a28b6466eae7e77f544603582015260550190565b60408051601f1981840301815291905280516020909101209695505050505050565b600080826001600160a01b0316846001600160a01b0316036200049d5760405162461bcd60e51b815260206004820152602360248201527f416461737761704c6962726172793a204944454e544943414c5f41444452455360448201526253455360e81b60648201526084016200032d565b826001600160a01b0316846001600160a01b031610620004bf578284620004c2565b83835b90925090506001600160a01b0382166200051f5760405162461bcd60e51b815260206004820152601c60248201527f416461737761704c6962726172793a205a45524f5f414444524553530000000060448201526064016200032d565b9250929050565b80516001600160a01b03811681146200053e57600080fd5b919050565b6000806000606084860312156200055957600080fd5b620005648462000526565b9250620005746020850162000526565b9150620005846040850162000526565b90509250925092565b600060208284031215620005a057600080fd5b620005ab8262000526565b9392505050565b600060208284031215620005c557600080fd5b5051919050565b80516001600160701b03811681146200053e57600080fd5b600080600060608486031215620005fa57600080fd5b6200060584620005cc565b92506200061560208501620005cc565b9150604084015163ffffffff811681146200062f57600080fd5b809150509250925092565b60805160a05160c051611322620006776000396000818161020201526102d901526000818160c801526102280152600061041a01526113226000f3fe608060405234801561001057600080fd5b50600436106100be5760003560e01c8063a2e6204511610076578063b4d1d7951161005b578063b4d1d795146101ce578063c5700a02146101d8578063d21220a7146101fd57600080fd5b8063a2e620451461019c578063a6bb4539146101a657600080fd5b80635909c0d5116100a75780635909c0d5146101355780635a3d54931461013e5780635e6aaf2c1461014757600080fd5b80630dfe1681146100c35780633ddac95314610114575b600080fd5b6100ea7f000000000000000000000000000000000000000000000000000000000000000081565b60405173ffffffffffffffffffffffffffffffffffffffff90911681526020015b60405180910390f35b610127610122366004611104565b610224565b60405190815260200161010b565b61012760005481565b61012760015481565b60045461016f907bffffffffffffffffffffffffffffffffffffffffffffffffffffffff1681565b6040517bffffffffffffffffffffffffffffffffffffffffffffffffffffffff909116815260200161010b565b6101a4610410565b005b60035461016f907bffffffffffffffffffffffffffffffffffffffffffffffffffffffff1681565b6101276201518081565b6002546101e89063ffffffff1681565b60405163ffffffff909116815260200161010b565b6100ea7f000000000000000000000000000000000000000000000000000000000000000081565b60007f000000000000000000000000000000000000000000000000000000000000000073ffffffffffffffffffffffffffffffffffffffff168373ffffffffffffffffffffffffffffffffffffffff16036102d75760408051602081019091526003547bffffffffffffffffffffffffffffffffffffffffffffffffffffffff1681526102bc906102b59084610766565b5160701c90565b71ffffffffffffffffffffffffffffffffffff16905061040a565b7f000000000000000000000000000000000000000000000000000000000000000073ffffffffffffffffffffffffffffffffffffffff168373ffffffffffffffffffffffffffffffffffffffff16146103b7576040517f08c379a000000000000000000000000000000000000000000000000000000000815260206004820152602260248201527f4578616d706c654f7261636c6553696d706c653a20494e56414c49445f544f4b60448201527f454e00000000000000000000000000000000000000000000000000000000000060648201526084015b60405180910390fd5b60408051602081019091526004547bffffffffffffffffffffffffffffffffffffffffffffffffffffffff1681526103f3906102b59084610766565b71ffffffffffffffffffffffffffffffffffff1690505b92915050565b600080600061043e7f0000000000000000000000000000000000000000000000000000000000000000610833565b600254929550909350915060009061045c9063ffffffff1683611178565b9050620151808163ffffffff1610156104f7576040517f08c379a000000000000000000000000000000000000000000000000000000000815260206004820152602760248201527f4578616d706c654f7261636c6553696d706c653a20504552494f445f4e4f545f60448201527f454c41505345440000000000000000000000000000000000000000000000000060648201526084016103ae565b60405180602001604052808263ffffffff1660005487610517919061119d565b61052191906111e3565b7bffffffffffffffffffffffffffffffffffffffffffffffffffffffff9081169091529051600380547fffffffff0000000000000000000000000000000000000000000000000000000016919092161790556040805160208101909152600154819063ffffffff841690610595908761119d565b61059f91906111e3565b7bffffffffffffffffffffffffffffffffffffffffffffffffffffffff9081169091529051600480547fffffffff00000000000000000000000000000000000000000000000000000000169190921617905550600092909255600155600280547fffffffffffffffffffffffffffffffffffffffffffffffffffffffff000000001663ffffffff909216919091179055565b60008060006106408585610a97565b6040517fffffffffffffffffffffffffffffffffffffffff000000000000000000000000606084811b8216602084015283901b16603482015291935091508690604801604051602081830303815290604052805190602001206040516020016107269291907fff00000000000000000000000000000000000000000000000000000000000000815260609290921b7fffffffffffffffffffffffffffffffffffffffff00000000000000000000000016600183015260158201527f6582cb976959f37676f927ada60cce63e2a0269623981a28b6466eae7e77f544603582015260550190565b604080517fffffffffffffffffffffffffffffffffffffffffffffffffffffffffffffffe081840301815291905280516020909101209695505050505050565b60408051602081019091526000815260008215806107b8575083517bffffffffffffffffffffffffffffffffffffffffffffffffffffffff16836107aa81836111f7565b92506107b690836111e3565b145b61081e576040517f08c379a000000000000000000000000000000000000000000000000000000000815260206004820152601960248201527f4669786564506f696e743a3a6d756c3a206f766572666c6f770000000000000060448201526064016103ae565b60408051602081019091529081529392505050565b6000806000610840610c1b565b90508373ffffffffffffffffffffffffffffffffffffffff16635909c0d56040518163ffffffff1660e01b8152600401602060405180830381865afa15801561088d573d6000803e3d6000fd5b505050506040513d601f19601f820116820180604052508101906108b19190611234565b92508373ffffffffffffffffffffffffffffffffffffffff16635a3d54936040518163ffffffff1660e01b8152600401602060405180830381865afa1580156108fe573d6000803e3d6000fd5b505050506040513d601f19601f820116820180604052508101906109229190611234565b915060008060008673ffffffffffffffffffffffffffffffffffffffff16630902f1ac6040518163ffffffff1660e01b8152600401606060405180830381865afa158015610974573d6000803e3d6000fd5b505050506040513d601f19601f820116820180604052508101906109989190611270565b9250925092508363ffffffff168163ffffffff1614610a8d5760006109bd8286611178565b90508063ffffffff166109f0846dffffffffffffffffffffffffffff16866dffffffffffffffffffffffffffff16610c31565b51610a1991907bffffffffffffffffffffffffffffffffffffffffffffffffffffffff166111f7565b610a2390886112c0565b96508063ffffffff16610a56856dffffffffffffffffffffffffffff16856dffffffffffffffffffffffffffff16610c31565b51610a7f91907bffffffffffffffffffffffffffffffffffffffffffffffffffffffff166111f7565b610a8990876112c0565b9550505b5050509193909250565b6000808273ffffffffffffffffffffffffffffffffffffffff168473ffffffffffffffffffffffffffffffffffffffff1603610b55576040517f08c379a000000000000000000000000000000000000000000000000000000000815260206004820152602360248201527f416461737761704c6962726172793a204944454e544943414c5f41444452455360448201527f534553000000000000000000000000000000000000000000000000000000000060648201526084016103ae565b8273ffffffffffffffffffffffffffffffffffffffff168473ffffffffffffffffffffffffffffffffffffffff1610610b8f578284610b92565b83835b909250905073ffffffffffffffffffffffffffffffffffffffff8216610c14576040517f08c379a000000000000000000000000000000000000000000000000000000000815260206004820152601c60248201527f416461737761704c6962726172793a205a45524f5f414444524553530000000060448201526064016103ae565b9250929050565b6000610c2c640100000000426112d8565b905090565b60408051602081019091526000815260008211610cd0576040517f08c379a000000000000000000000000000000000000000000000000000000000815260206004820152602660248201527f4669786564506f696e743a3a6672616374696f6e3a206469766973696f6e206260448201527f79207a65726f000000000000000000000000000000000000000000000000000060648201526084016103ae565b82600003610ced575060408051602081019091526000815261040a565b71ffffffffffffffffffffffffffffffffffff8311610dd3576000610d1683607086901b6111e3565b90507bffffffffffffffffffffffffffffffffffffffffffffffffffffffff811115610d9e576040517f08c379a000000000000000000000000000000000000000000000000000000000815260206004820152601e60248201527f4669786564506f696e743a3a6672616374696f6e3a206f766572666c6f77000060448201526064016103ae565b6040518060200160405280827bffffffffffffffffffffffffffffffffffffffffffffffffffffffff1681525091505061040a565b6000610d16846e010000000000000000000000000000856000806000610df98686610ed1565b9150915060008480610e0d57610e0d6111b4565b868809905082811115610e2857610e2560018361119d565b91505b610e32818461119d565b925081600003610e5057610e4685846111e3565b9350505050610eca565b848210610eb9576040517f08c379a000000000000000000000000000000000000000000000000000000000815260206004820152601a60248201527f46756c6c4d6174683a2046554c4c4449565f4f564552464c4f5700000000000060448201526064016103ae565b610ec4838387610f31565b93505050505b9392505050565b600080807fffffffffffffffffffffffffffffffffffffffffffffffffffffffffffffffff8486099050610f0584866111f7565b9250610f11838261119d565b915082811015610f2957610f2660018361119d565b91505b509250929050565b600080610f5e837fffffffffffffffffffffffffffffffffffffffffffffffffffffffffffffffff61119d565b610f699060016112c0565b83169050610f7781846111e3565b9250610f8381866111e3565b945080610fb0817fffffffffffffffffffffffffffffffffffffffffffffffffffffffffffffffff61119d565b610fbb9060016112c0565b610fc591906111e3565b610fd09060016112c0565b610fda90856111f7565b610fe490866112c0565b94506001610ff281856111f7565b610ffd90600261119d565b61100790826111f7565b905061101381856111f7565b61101e90600261119d565b61102890826111f7565b905061103481856111f7565b61103f90600261119d565b61104990826111f7565b905061105581856111f7565b61106090600261119d565b61106a90826111f7565b905061107681856111f7565b61108190600261119d565b61108b90826111f7565b905061109781856111f7565b6110a290600261119d565b6110ac90826111f7565b90506110b881856111f7565b6110c390600261119d565b6110cd90826111f7565b90506110d981856111f7565b6110e490600261119d565b6110ee90826111f7565b90506110fa81876111f7565b9695505050505050565b6000806040838503121561111757600080fd5b823573ffffffffffffffffffffffffffffffffffffffff8116811461113b57600080fd5b946020939093013593505050565b7f4e487b7100000000000000000000000000000000000000000000000000000000600052601160045260246000fd5b600063ffffffff8381169083168181101561119557611195611149565b039392505050565b6000828210156111af576111af611149565b500390565b7f4e487b7100000000000000000000000000000000000000000000000000000000600052601260045260246000fd5b6000826111f2576111f26111b4565b500490565b6000817fffffffffffffffffffffffffffffffffffffffffffffffffffffffffffffffff048311821515161561122f5761122f611149565b500290565b60006020828403121561124657600080fd5b5051919050565b80516dffffffffffffffffffffffffffff8116811461126b57600080fd5b919050565b60008060006060848603121561128557600080fd5b61128e8461124d565b925061129c6020850161124d565b9150604084015163ffffffff811681146112b557600080fd5b809150509250925092565b600082198211156112d3576112d3611149565b500190565b6000826112e7576112e76111b4565b50069056fea2646970667358221220dac3a74a421b5b2d7bf8684cd37ebf647edb0557c565fa367129c598e995a20164736f6c634300080d0033",
  "immutableReferences": {
    "5485": [
      {
        "length": 32,
        "start": 1050
      }
    ],
    "5487": [
      {
        "length": 32,
        "start": 200
      },
      {
        "length": 32,
        "start": 552
      }
    ],
    "5489": [
      {
        "length": 32,
        "start": 514
      },
      {
        "length": 32,
        "start": 729
      }
    ]
  },
  "source": "pragma solidity >=0.8.13;\n\nimport '@adaswap-dev/core/contracts/interfaces/IAdaswapFactory.sol';\nimport '@adaswap-dev/core/contracts/interfaces/IAdaswapPair.sol';\nimport '@adaswap-dev/lib/contracts/libraries/FixedPoint.sol';\n\nimport '../libraries/AdaswapOracleLibrary.sol';\nimport '../libraries/AdaswapLibrary.sol';\n\n// fixed window oracle that recomputes the average price for the entire period once every period\n// note that the price average is only guaranteed to be over at least 1 period, but may be over a longer period\ncontract ExampleOracleSimple {\n    using FixedPoint for *;\n\n    uint public constant PERIOD = 24 hours;\n\n    IAdaswapPair immutable pair;\n    address public immutable token0;\n    address public immutable token1;\n\n    uint    public price0CumulativeLast;\n    uint    public price1CumulativeLast;\n    uint32  public blockTimestampLast;\n    FixedPoint.uq112x112 public price0Average;\n    FixedPoint.uq112x112 public price1Average;\n\n    constructor(address factory, address tokenA, address tokenB) {\n        IAdaswapPair _pair = IAdaswapPair(AdaswapLibrary.pairFor(factory, tokenA, tokenB));\n        pair = _pair;\n        token0 = _pair.token0();\n        token1 = _pair.token1();\n        price0CumulativeLast = _pair.price0CumulativeLast(); // fetch the current accumulated price value (1 / 0)\n        price1CumulativeLast = _pair.price1CumulativeLast(); // fetch the current accumulated price value (0 / 1)\n        uint112 reserve0;\n        uint112 reserve1;\n        (reserve0, reserve1, blockTimestampLast) = _pair.getReserves();\n        require(reserve0 != 0 && reserve1 != 0, 'ExampleOracleSimple: NO_RESERVES'); // ensure that there's liquidity in the pair\n    }\n\n    function update() external {\n        (uint price0Cumulative, uint price1Cumulative, uint32 blockTimestamp) =\n            AdaswapOracleLibrary.currentCumulativePrices(address(pair));\n        uint32 timeElapsed = blockTimestamp - blockTimestampLast; // overflow is desired\n\n        // ensure that at least one full period has passed since the last update\n        require(timeElapsed >= PERIOD, 'ExampleOracleSimple: PERIOD_NOT_ELAPSED');\n\n        // overflow is desired, casting never truncates\n        // cumulative price is in (uq112x112 price * seconds) units so we simply wrap it after division by time elapsed\n        price0Average = FixedPoint.uq112x112(uint224((price0Cumulative - price0CumulativeLast) / timeElapsed));\n        price1Average = FixedPoint.uq112x112(uint224((price1Cumulative - price1CumulativeLast) / timeElapsed));\n\n        price0CumulativeLast = price0Cumulative;\n        price1CumulativeLast = price1Cumulative;\n        blockTimestampLast = blockTimestamp;\n    }\n\n    // note this will always return 0 before update has been called successfully for the first time.\n    function consult(address token, uint amountIn) external view returns (uint amountOut) {\n        if (token == token0) {\n            amountOut = price0Average.mul(amountIn).decode144();\n        } else {\n            require(token == token1, 'ExampleOracleSimple: INVALID_TOKEN');\n            amountOut = price1Average.mul(amountIn).decode144();\n        }\n    }\n}\n",
  "sourcePath": "/home/dung/workspace/adaswap/periphery/contracts/examples/ExampleOracleSimple.sol",
  "compiler": {
    "name": "solc",
    "version": "0.8.13+commit.abaa5c0e.Emscripten.clang"
  },
  "schemaVersion": "3.4.4",
  "updatedAt": "2022-06-09T10:04:11.034Z",
  "devdoc": {
    "kind": "dev",
    "methods": {},
    "version": 1
  },
  "userdoc": {
    "kind": "user",
    "methods": {},
    "version": 1
  }
}