{
  "contractName": "ExampleSwapToPrice",
  "abi": [
    {
      "inputs": [
        {
          "internalType": "address",
          "name": "factory_",
          "type": "address"
        },
        {
          "internalType": "contract IAdaswapRouter01",
          "name": "router_",
          "type": "address"
        }
      ],
      "stateMutability": "nonpayable",
      "type": "constructor"
    },
    {
      "inputs": [],
      "name": "factory",
      "outputs": [
        {
          "internalType": "address",
          "name": "",
          "type": "address"
        }
      ],
      "stateMutability": "view",
      "type": "function"
    },
    {
      "inputs": [],
      "name": "router",
      "outputs": [
        {
          "internalType": "contract IAdaswapRouter01",
          "name": "",
          "type": "address"
        }
      ],
      "stateMutability": "view",
      "type": "function"
    },
    {
      "inputs": [
        {
          "internalType": "address",
          "name": "tokenA",
          "type": "address"
        },
        {
          "internalType": "address",
          "name": "tokenB",
          "type": "address"
        },
        {
          "internalType": "uint256",
          "name": "truePriceTokenA",
          "type": "uint256"
        },
        {
          "internalType": "uint256",
          "name": "truePriceTokenB",
          "type": "uint256"
        },
        {
          "internalType": "uint256",
          "name": "maxSpendTokenA",
          "type": "uint256"
        },
        {
          "internalType": "uint256",
          "name": "maxSpendTokenB",
          "type": "uint256"
        },
        {
          "internalType": "address",
          "name": "to",
          "type": "address"
        },
        {
          "internalType": "uint256",
          "name": "deadline",
          "type": "uint256"
        }
      ],
      "name": "swapToPrice",
      "outputs": [],
      "stateMutability": "nonpayable",
      "type": "function"
    }
  ],
  "bytecode": "0x60c060405234801561001057600080fd5b506040516200172e3803806200172e83398101604081905261003191610060565b6001600160a01b0391821660a0521660805261009a565b6001600160a01b038116811461005d57600080fd5b50565b6000806040838503121561007357600080fd5b825161007e81610048565b602084015190925061008f81610048565b809150509250929050565b60805160a05161165b620000d360003960008181606001526101c901526000818160b0015281816102e401526103d7015261165b6000f3fe608060405234801561001057600080fd5b50600436106100415760003560e01c8063bef90fd314610046578063c45a01551461005b578063f887ea40146100ab575b600080fd5b61005961005436600461121c565b6100d2565b005b6100827f000000000000000000000000000000000000000000000000000000000000000081565b60405173ffffffffffffffffffffffffffffffffffffffff909116815260200160405180910390f35b6100827f000000000000000000000000000000000000000000000000000000000000000081565b85158015906100e057508415155b61014b576040517f08c379a000000000000000000000000000000000000000000000000000000000815260206004820152601e60248201527f4578616d706c6553776170546f50726963653a205a45524f5f5052494345000060448201526064015b60405180910390fd5b8315158061015857508215155b6101be576040517f08c379a000000000000000000000000000000000000000000000000000000000815260206004820152601e60248201527f4578616d706c6553776170546f50726963653a205a45524f5f5350454e4400006044820152606401610142565b6000806000806101ef7f00000000000000000000000000000000000000000000000000000000000000008d8d61048d565b915091506101ff8a8a848461058c565b9094509250505080610293576040517f08c379a000000000000000000000000000000000000000000000000000000000815260206004820152602260248201527f4578616d706c6553776170546f50726963653a205a45524f5f414d4f554e545f60448201527f494e0000000000000000000000000000000000000000000000000000000000006064820152608401610142565b6000826102a057856102a2565b865b9050808211156102b0578091505b6000836102bd578a6102bf565b8b5b90506000846102ce578c6102d0565b8b5b90506102de82333087610655565b610309827f0000000000000000000000000000000000000000000000000000000000000000866107f4565b604080516002808252606082018352600092602083019080368337019050509050828160008151811061033e5761033e6112bf565b602002602001019073ffffffffffffffffffffffffffffffffffffffff16908173ffffffffffffffffffffffffffffffffffffffff1681525050818160018151811061038c5761038c6112bf565b73ffffffffffffffffffffffffffffffffffffffff92831660209182029290920101526040517f38ed17390000000000000000000000000000000000000000000000000000000081527f0000000000000000000000000000000000000000000000000000000000000000909116906338ed17399061041790889060009086908e908e906004016112ee565b6000604051808303816000875af1158015610436573d6000803e3d6000fd5b505050506040513d6000823e601f3d9081017fffffffffffffffffffffffffffffffffffffffffffffffffffffffffffffffe016820160405261047c9190810190611379565b505050505050505050505050505050565b600080600061049c858561098a565b5090506000806104ad888888610b0e565b73ffffffffffffffffffffffffffffffffffffffff16630902f1ac6040518163ffffffff1660e01b8152600401606060405180830381865afa1580156104f7573d6000803e3d6000fd5b505050506040513d601f19601f8201168201806040525081019061051b9190611473565b506dffffffffffffffffffffffffffff1691506dffffffffffffffffffffffffffff1691508273ffffffffffffffffffffffffffffffffffffffff168773ffffffffffffffffffffffffffffffffffffffff161461057a57808261057d565b81815b90999098509650505050505050565b6000808561059b858786610c43565b10915060006105aa8585610d2a565b905060006105f06105eb6105c0846103e8610d2a565b866105cb57896105cd565b8a5b6105e66103e5896105de578d6105e0565b8c5b90610d2a565b610c43565b610dba565b905060006103e58561060d57610608876103e8610d2a565b610619565b610619886103e8610d2a565b6106239190611521565b90508082101561063c576000809450945050505061064c565b6106468282610f48565b93505050505b94509492505050565b6040805173ffffffffffffffffffffffffffffffffffffffff85811660248301528481166044830152606480830185905283518084039091018152608490920183526020820180517bffffffffffffffffffffffffffffffffffffffffffffffffffffffff167f23b872dd0000000000000000000000000000000000000000000000000000000017905291516000928392908816916106f4919061155c565b6000604051808303816000865af19150503d8060008114610731576040519150601f19603f3d011682016040523d82523d6000602084013e610736565b606091505b50915091508180156107605750805115806107605750808060200190518101906107609190611597565b6107ec576040517f08c379a000000000000000000000000000000000000000000000000000000000815260206004820152603160248201527f5472616e7366657248656c7065723a3a7472616e7366657246726f6d3a20747260448201527f616e7366657246726f6d206661696c65640000000000000000000000000000006064820152608401610142565b505050505050565b6040805173ffffffffffffffffffffffffffffffffffffffff8481166024830152604480830185905283518084039091018152606490920183526020820180517bffffffffffffffffffffffffffffffffffffffffffffffffffffffff167f095ea7b300000000000000000000000000000000000000000000000000000000179052915160009283929087169161088b919061155c565b6000604051808303816000865af19150503d80600081146108c8576040519150601f19603f3d011682016040523d82523d6000602084013e6108cd565b606091505b50915091508180156108f75750805115806108f75750808060200190518101906108f79190611597565b610983576040517f08c379a000000000000000000000000000000000000000000000000000000000815260206004820152602b60248201527f5472616e7366657248656c7065723a3a73616665417070726f76653a2061707060448201527f726f7665206661696c65640000000000000000000000000000000000000000006064820152608401610142565b5050505050565b6000808273ffffffffffffffffffffffffffffffffffffffff168473ffffffffffffffffffffffffffffffffffffffff1603610a48576040517f08c379a000000000000000000000000000000000000000000000000000000000815260206004820152602360248201527f416461737761704c6962726172793a204944454e544943414c5f41444452455360448201527f53455300000000000000000000000000000000000000000000000000000000006064820152608401610142565b8273ffffffffffffffffffffffffffffffffffffffff168473ffffffffffffffffffffffffffffffffffffffff1610610a82578284610a85565b83835b909250905073ffffffffffffffffffffffffffffffffffffffff8216610b07576040517f08c379a000000000000000000000000000000000000000000000000000000000815260206004820152601c60248201527f416461737761704c6962726172793a205a45524f5f41444452455353000000006044820152606401610142565b9250929050565b6000806000610b1d858561098a565b6040517fffffffffffffffffffffffffffffffffffffffff000000000000000000000000606084811b8216602084015283901b1660348201529193509150869060480160405160208183030381529060405280519060200120604051602001610c039291907fff00000000000000000000000000000000000000000000000000000000000000815260609290921b7fffffffffffffffffffffffffffffffffffffffff00000000000000000000000016600183015260158201527f6582cb976959f37676f927ada60cce63e2a0269623981a28b6466eae7e77f544603582015260550190565b604080517fffffffffffffffffffffffffffffffffffffffffffffffffffffffffffffffe081840301815291905280516020909101209695505050505050565b6000806000610c528686610fc0565b9150915060008480610c6657610c666114c3565b868809905082811115610c8157610c7e6001836115b9565b91505b610c8b81846115b9565b925081600003610ca957610c9f8584611521565b9350505050610d23565b848210610d12576040517f08c379a000000000000000000000000000000000000000000000000000000000815260206004820152601a60248201527f46756c6c4d6174683a2046554c4c4449565f4f564552464c4f570000000000006044820152606401610142565b610d1d838387611020565b93505050505b9392505050565b6000811580610d4e57508282610d4081836115d0565b9250610d4c9083611521565b145b610db4576040517f08c379a000000000000000000000000000000000000000000000000000000000815260206004820152601460248201527f64732d6d6174682d6d756c2d6f766572666c6f770000000000000000000000006044820152606401610142565b92915050565b600081600003610dcc57506000919050565b8160017001000000000000000000000000000000008210610df25760809190911c9060401b5b680100000000000000008210610e0d5760409190911c9060201b5b6401000000008210610e245760209190911c9060101b5b620100008210610e395760109190911c9060081b5b6101008210610e4d5760089190911c9060041b5b60108210610e605760049190911c9060021b5b60088210610e6c5760011b5b6001610e788286611521565b610e82908361160d565b901c90506001610e928286611521565b610e9c908361160d565b901c90506001610eac8286611521565b610eb6908361160d565b901c90506001610ec68286611521565b610ed0908361160d565b901c90506001610ee08286611521565b610eea908361160d565b901c90506001610efa8286611521565b610f04908361160d565b901c90506001610f148286611521565b610f1e908361160d565b901c90506000610f2e8286611521565b9050808210610f3d5780610f3f565b815b95945050505050565b600082610f5583826115b9565b9150811115610db4576040517f08c379a000000000000000000000000000000000000000000000000000000000815260206004820152601560248201527f64732d6d6174682d7375622d756e646572666c6f7700000000000000000000006044820152606401610142565b600080807fffffffffffffffffffffffffffffffffffffffffffffffffffffffffffffffff8486099050610ff484866115d0565b925061100083826115b9565b915082811015611018576110156001836115b9565b91505b509250929050565b60008061104d837fffffffffffffffffffffffffffffffffffffffffffffffffffffffffffffffff6115b9565b61105890600161160d565b831690506110668184611521565b92506110728186611521565b94508061109f817fffffffffffffffffffffffffffffffffffffffffffffffffffffffffffffffff6115b9565b6110aa90600161160d565b6110b49190611521565b6110bf90600161160d565b6110c990856115d0565b6110d3908661160d565b945060016110e181856115d0565b6110ec9060026115b9565b6110f690826115d0565b905061110281856115d0565b61110d9060026115b9565b61111790826115d0565b905061112381856115d0565b61112e9060026115b9565b61113890826115d0565b905061114481856115d0565b61114f9060026115b9565b61115990826115d0565b905061116581856115d0565b6111709060026115b9565b61117a90826115d0565b905061118681856115d0565b6111919060026115b9565b61119b90826115d0565b90506111a781856115d0565b6111b29060026115b9565b6111bc90826115d0565b90506111c881856115d0565b6111d39060026115b9565b6111dd90826115d0565b90506111e981876115d0565b9695505050505050565b803573ffffffffffffffffffffffffffffffffffffffff8116811461121757600080fd5b919050565b600080600080600080600080610100898b03121561123957600080fd5b611242896111f3565b975061125060208a016111f3565b965060408901359550606089013594506080890135935060a0890135925061127a60c08a016111f3565b915060e089013590509295985092959890939650565b7f4e487b7100000000000000000000000000000000000000000000000000000000600052604160045260246000fd5b7f4e487b7100000000000000000000000000000000000000000000000000000000600052603260045260246000fd5b600060a082018783526020878185015260a0604085015281875180845260c086019150828901935060005b8181101561134b57845173ffffffffffffffffffffffffffffffffffffffff1683529383019391830191600101611319565b505073ffffffffffffffffffffffffffffffffffffffff969096166060850152505050608001529392505050565b6000602080838503121561138c57600080fd5b825167ffffffffffffffff808211156113a457600080fd5b818501915085601f8301126113b857600080fd5b8151818111156113ca576113ca611290565b8060051b6040517fffffffffffffffffffffffffffffffffffffffffffffffffffffffffffffffe0603f8301168101818110858211171561140d5761140d611290565b60405291825284820192508381018501918883111561142b57600080fd5b938501935b8285101561144957845184529385019392850192611430565b98975050505050505050565b80516dffffffffffffffffffffffffffff8116811461121757600080fd5b60008060006060848603121561148857600080fd5b61149184611455565b925061149f60208501611455565b9150604084015163ffffffff811681146114b857600080fd5b809150509250925092565b7f4e487b7100000000000000000000000000000000000000000000000000000000600052601260045260246000fd5b7f4e487b7100000000000000000000000000000000000000000000000000000000600052601160045260246000fd5b600082611557577f4e487b7100000000000000000000000000000000000000000000000000000000600052601260045260246000fd5b500490565b6000825160005b8181101561157d5760208186018101518583015201611563565b8181111561158c576000828501525b509190910192915050565b6000602082840312156115a957600080fd5b81518015158114610d2357600080fd5b6000828210156115cb576115cb6114f2565b500390565b6000817fffffffffffffffffffffffffffffffffffffffffffffffffffffffffffffffff0483118215151615611608576116086114f2565b500290565b60008219821115611620576116206114f2565b50019056fea26469706673582212203f6512247a54fc0068863276a76a89a55cad6340b38aa01e061facf700c995cf64736f6c634300080d0033",
  "immutableReferences": {
    "6068": [
      {
        "length": 32,
        "start": 176
      },
      {
        "length": 32,
        "start": 740
      },
      {
        "length": 32,
        "start": 983
      }
    ],
    "6070": [
      {
        "length": 32,
        "start": 96
      },
      {
        "length": 32,
        "start": 457
      }
    ]
  },
  "source": "pragma solidity >=0.8.13;\n\nimport '@adaswap-dev/core/contracts/interfaces/IAdaswapPair.sol';\nimport '@adaswap-dev/lib/contracts/libraries/Babylonian.sol';\nimport '@adaswap-dev/lib/contracts/libraries/TransferHelper.sol';\n\nimport '../libraries/AdaswapLiquidityMathLibrary.sol';\nimport '../interfaces/IAdaswapRouter01.sol';\nimport '../libraries/SafeMath.sol';\nimport '../libraries/AdaswapLibrary.sol';\n\ncontract ExampleSwapToPrice {\n    using SafeMath for uint256;\n\n    IAdaswapRouter01 public immutable router;\n    address public immutable factory;\n\n    constructor(address factory_, IAdaswapRouter01 router_) {\n        factory = factory_;\n        router = router_;\n    }\n\n    // swaps an amount of either token such that the trade is profit-maximizing, given an external true price\n    // true price is expressed in the ratio of token A to token B\n    // caller must approve this contract to spend whichever token is intended to be swapped\n    function swapToPrice(\n        address tokenA,\n        address tokenB,\n        uint256 truePriceTokenA,\n        uint256 truePriceTokenB,\n        uint256 maxSpendTokenA,\n        uint256 maxSpendTokenB,\n        address to,\n        uint256 deadline\n    ) public {\n        // true price is expressed as a ratio, so both values must be non-zero\n        require(truePriceTokenA != 0 && truePriceTokenB != 0, \"ExampleSwapToPrice: ZERO_PRICE\");\n        // caller can specify 0 for either if they wish to swap in only one direction, but not both\n        require(maxSpendTokenA != 0 || maxSpendTokenB != 0, \"ExampleSwapToPrice: ZERO_SPEND\");\n\n        bool aToB;\n        uint256 amountIn;\n        {\n            (uint256 reserveA, uint256 reserveB) = AdaswapLibrary.getReserves(factory, tokenA, tokenB);\n            (aToB, amountIn) = AdaswapLiquidityMathLibrary.computeProfitMaximizingTrade(\n                truePriceTokenA, truePriceTokenB,\n                reserveA, reserveB\n            );\n        }\n\n        require(amountIn > 0, 'ExampleSwapToPrice: ZERO_AMOUNT_IN');\n\n        // spend up to the allowance of the token in\n        uint256 maxSpend = aToB ? maxSpendTokenA : maxSpendTokenB;\n        if (amountIn > maxSpend) {\n            amountIn = maxSpend;\n        }\n\n        address tokenIn = aToB ? tokenA : tokenB;\n        address tokenOut = aToB ? tokenB : tokenA;\n        TransferHelper.safeTransferFrom(tokenIn, msg.sender, address(this), amountIn);\n        TransferHelper.safeApprove(tokenIn, address(router), amountIn);\n\n        address[] memory path = new address[](2);\n        path[0] = tokenIn;\n        path[1] = tokenOut;\n\n        router.swapExactTokensForTokens(\n            amountIn,\n            0, // amountOutMin: we can skip computing this number because the math is tested\n            path,\n            to,\n            deadline\n        );\n    }\n}\n",
  "sourcePath": "/home/dung/workspace/adaswap/periphery/contracts/examples/ExampleSwapToPrice.sol",
  "compiler": {
    "name": "solc",
    "version": "0.8.13+commit.abaa5c0e.Emscripten.clang"
  },
  "schemaVersion": "3.4.4",
  "updatedAt": "2022-06-09T10:04:11.067Z",
  "devdoc": {
    "kind": "dev",
    "methods": {},
    "version": 1
  },
  "userdoc": {
    "kind": "user",
    "methods": {},
    "version": 1
  }
}