{
  "contractName": "FixedPoint",
  "abi": [
    {
      "inputs": [],
      "name": "Q112",
      "outputs": [
        {
          "internalType": "uint256",
          "name": "",
          "type": "uint256"
        }
      ],
      "stateMutability": "view",
      "type": "function"
    },
    {
      "inputs": [],
      "name": "RESOLUTION",
      "outputs": [
        {
          "internalType": "uint8",
          "name": "",
          "type": "uint8"
        }
      ],
      "stateMutability": "view",
      "type": "function"
    }
  ],
  "bytecode": "0x60b8610039600b82828239805160001a60731461002c57634e487b7160e01b600052600060045260246000fd5b30600052607381538281f3fe7300000000000000000000000000000000000000003014608060405260043610603d5760003560e01c80633bf7a83e146042578063552f888a14606a575b600080fd5b60576e01000000000000000000000000000081565b6040519081526020015b60405180910390f35b6071607081565b60405160ff9091168152602001606156fea2646970667358221220fad8578fe324835f07d4143dec7a46e5c7a831445ac768a1c356b57abb2a57f464736f6c634300080d0033",
  "immutableReferences": {},
  "source": "// SPDX-License-Identifier: GPL-3.0-or-later\npragma solidity =0.8.13;\n\nimport \"./FullMath.sol\";\nimport \"./Babylonian.sol\";\nimport \"./BitMath.sol\";\n\n// a library for handling binary fixed point numbers (https://en.wikipedia.org/wiki/Q_(number_format))\nlibrary FixedPoint {\n    // range: [0, 2**112 - 1]\n    // resolution: 1 / 2**112\n    struct uq112x112 {\n        uint224 _x;\n    }\n\n    // range: [0, 2**144 - 1]\n    // resolution: 1 / 2**112\n    struct uq144x112 {\n        uint256 _x;\n    }\n\n    uint8 public constant RESOLUTION = 112;\n    uint256 public constant Q112 = 0x10000000000000000000000000000; // 2**112\n    uint256 private constant Q224 =\n        0x100000000000000000000000000000000000000000000000000000000; // 2**224\n    uint256 private constant LOWER_MASK = 0xffffffffffffffffffffffffffff; // decimal of UQ*x112 (lower 112 bits)\n\n    // encode a uint112 as a UQ112x112\n    function encode(uint112 x) internal pure returns (uq112x112 memory) {\n        return uq112x112(uint224(x) << RESOLUTION);\n    }\n\n    // encodes a uint144 as a UQ144x112\n    function encode144(uint144 x) internal pure returns (uq144x112 memory) {\n        return uq144x112(uint256(x) << RESOLUTION);\n    }\n\n    // decode a UQ112x112 into a uint112 by truncating after the radix point\n    function decode(uq112x112 memory self) internal pure returns (uint112) {\n        return uint112(self._x >> RESOLUTION);\n    }\n\n    // decode a UQ144x112 into a uint144 by truncating after the radix point\n    function decode144(uq144x112 memory self) internal pure returns (uint144) {\n        return uint144(self._x >> RESOLUTION);\n    }\n\n    // multiply a UQ112x112 by a uint, returning a UQ144x112\n    // reverts on overflow\n    function mul(uq112x112 memory self, uint256 y)\n        internal\n        pure\n        returns (uq144x112 memory)\n    {\n        uint256 z = 0;\n        require(\n            y == 0 || (z = self._x * y) / y == self._x,\n            \"FixedPoint::mul: overflow\"\n        );\n        return uq144x112(z);\n    }\n\n    // multiply a UQ112x112 by an int and decode, returning an int\n    // reverts on overflow\n    function muli(uq112x112 memory self, int256 y)\n        internal\n        pure\n        returns (int256)\n    {\n        uint256 z = FullMath.mulDiv(self._x, uint256(y < 0 ? -y : y), Q112);\n        require(z < 2**255, \"FixedPoint::muli: overflow\");\n        return y < 0 ? -int256(z) : int256(z);\n    }\n\n    // multiply a UQ112x112 by a UQ112x112, returning a UQ112x112\n    // lossy\n    function muluq(uq112x112 memory self, uq112x112 memory other)\n        internal\n        pure\n        returns (uq112x112 memory)\n    {\n        if (self._x == 0 || other._x == 0) {\n            return uq112x112(0);\n        }\n        uint112 upper_self = uint112(self._x >> RESOLUTION); // * 2^0\n        uint112 lower_self = uint112(self._x & LOWER_MASK); // * 2^-112\n        uint112 upper_other = uint112(other._x >> RESOLUTION); // * 2^0\n        uint112 lower_other = uint112(other._x & LOWER_MASK); // * 2^-112\n\n        // partial products\n        uint224 upper = uint224(upper_self) * upper_other; // * 2^0\n        uint224 lower = uint224(lower_self) * lower_other; // * 2^-224\n        uint224 uppers_lowero = uint224(upper_self) * lower_other; // * 2^-112\n        uint224 uppero_lowers = uint224(upper_other) * lower_self; // * 2^-112\n\n        // so the bit shift does not overflow\n        require(\n            upper <= type(uint112).max,\n            \"FixedPoint::muluq: upper overflow\"\n        );\n\n        // this cannot exceed 256 bits, all values are 224 bits\n        uint256 sum = uint256(upper << RESOLUTION) +\n            uppers_lowero +\n            uppero_lowers +\n            (lower >> RESOLUTION);\n\n        // so the cast does not overflow\n        require(sum <= type(uint224).max, \"FixedPoint::muluq: sum overflow\");\n\n        return uq112x112(uint224(sum));\n    }\n\n    // divide a UQ112x112 by a UQ112x112, returning a UQ112x112\n    function divuq(uq112x112 memory self, uq112x112 memory other)\n        internal\n        pure\n        returns (uq112x112 memory)\n    {\n        require(other._x > 0, \"FixedPoint::divuq: division by zero\");\n        if (self._x == other._x) {\n            return uq112x112(uint224(Q112));\n        }\n        if (self._x <= type(uint144).max) {\n            uint256 value = (uint256(self._x) << RESOLUTION) / other._x;\n            require(value <= type(uint224).max, \"FixedPoint::divuq: overflow\");\n            return uq112x112(uint224(value));\n        }\n\n        uint256 result = FullMath.mulDiv(Q112, self._x, other._x);\n        require(result <= type(uint224).max, \"FixedPoint::divuq: overflow\");\n        return uq112x112(uint224(result));\n    }\n\n    // returns a UQ112x112 which represents the ratio of the numerator to the denominator\n    // can be lossy\n    function fraction(uint256 numerator, uint256 denominator)\n        internal\n        pure\n        returns (uq112x112 memory)\n    {\n        require(denominator > 0, \"FixedPoint::fraction: division by zero\");\n        if (numerator == 0) return FixedPoint.uq112x112(0);\n\n        if (numerator <= type(uint144).max) {\n            uint256 result = (numerator << RESOLUTION) / denominator;\n            require(\n                result <= type(uint224).max,\n                \"FixedPoint::fraction: overflow\"\n            );\n            return uq112x112(uint224(result));\n        } else {\n            uint256 result = FullMath.mulDiv(numerator, Q112, denominator);\n            require(\n                result <= type(uint224).max,\n                \"FixedPoint::fraction: overflow\"\n            );\n            return uq112x112(uint224(result));\n        }\n    }\n\n    // take the reciprocal of a UQ112x112\n    // reverts on overflow\n    // lossy\n    function reciprocal(uq112x112 memory self)\n        internal\n        pure\n        returns (uq112x112 memory)\n    {\n        require(self._x != 0, \"FixedPoint::reciprocal: reciprocal of zero\");\n        require(self._x != 1, \"FixedPoint::reciprocal: overflow\");\n        return uq112x112(uint224(Q224 / self._x));\n    }\n\n    // square root of a UQ112x112\n    // lossy between 0/1 and 40 bits\n    function sqrt(uq112x112 memory self)\n        internal\n        pure\n        returns (uq112x112 memory)\n    {\n        if (self._x <= type(uint144).max) {\n            return uq112x112(uint224(Babylonian.sqrt(uint256(self._x) << 112)));\n        }\n\n        uint8 safeShiftBits = 255 - BitMath.mostSignificantBit(self._x);\n        safeShiftBits -= safeShiftBits % 2;\n        return\n            uq112x112(\n                uint224(\n                    Babylonian.sqrt(uint256(self._x) << safeShiftBits) <<\n                        ((112 - safeShiftBits) / 2)\n                )\n            );\n    }\n}\n",
  "sourcePath": "/home/dung/workspace/adaswap/lib/contracts/libraries/FixedPoint.sol",
  "compiler": {
    "name": "solc",
    "version": "0.8.13+commit.abaa5c0e.Emscripten.clang"
  },
  "schemaVersion": "3.4.4",
  "updatedAt": "2022-06-20T03:33:20.429Z",
  "devdoc": {
    "kind": "dev",
    "methods": {},
    "version": 1
  },
  "userdoc": {
    "kind": "user",
    "methods": {},
    "version": 1
  }
}