{
  "contractName": "AdaswapFactory",
  "abi": [
    {
      "inputs": [
        {
          "internalType": "address",
          "name": "_feeToSetter",
          "type": "address"
        }
      ],
      "stateMutability": "nonpayable",
      "type": "constructor"
    },
    {
      "anonymous": false,
      "inputs": [
        {
          "indexed": true,
          "internalType": "address",
          "name": "token0",
          "type": "address"
        },
        {
          "indexed": true,
          "internalType": "address",
          "name": "token1",
          "type": "address"
        },
        {
          "indexed": false,
          "internalType": "address",
          "name": "pair",
          "type": "address"
        },
        {
          "indexed": false,
          "internalType": "uint256",
          "name": "",
          "type": "uint256"
        }
      ],
      "name": "PairCreated",
      "type": "event"
    },
    {
      "inputs": [
        {
          "internalType": "uint256",
          "name": "",
          "type": "uint256"
        }
      ],
      "name": "allPairs",
      "outputs": [
        {
          "internalType": "address",
          "name": "",
          "type": "address"
        }
      ],
      "stateMutability": "view",
      "type": "function",
      "constant": true
    },
    {
      "inputs": [],
      "name": "feeTo",
      "outputs": [
        {
          "internalType": "address",
          "name": "",
          "type": "address"
        }
      ],
      "stateMutability": "view",
      "type": "function",
      "constant": true
    },
    {
      "inputs": [],
      "name": "feeToSetter",
      "outputs": [
        {
          "internalType": "address",
          "name": "",
          "type": "address"
        }
      ],
      "stateMutability": "view",
      "type": "function",
      "constant": true
    },
    {
      "inputs": [
        {
          "internalType": "address",
          "name": "",
          "type": "address"
        },
        {
          "internalType": "address",
          "name": "",
          "type": "address"
        }
      ],
      "name": "getPair",
      "outputs": [
        {
          "internalType": "address",
          "name": "",
          "type": "address"
        }
      ],
      "stateMutability": "view",
      "type": "function",
      "constant": true
    },
    {
      "inputs": [],
      "name": "allPairsLength",
      "outputs": [
        {
          "internalType": "uint256",
          "name": "",
          "type": "uint256"
        }
      ],
      "stateMutability": "view",
      "type": "function",
      "constant": true
    },
    {
      "inputs": [],
      "name": "pairCodeHash",
      "outputs": [
        {
          "internalType": "bytes32",
          "name": "",
          "type": "bytes32"
        }
      ],
      "stateMutability": "pure",
      "type": "function",
      "constant": true
    },
    {
      "inputs": [
        {
          "internalType": "address",
          "name": "tokenA",
          "type": "address"
        },
        {
          "internalType": "address",
          "name": "tokenB",
          "type": "address"
        }
      ],
      "name": "createPair",
      "outputs": [
        {
          "internalType": "address",
          "name": "pair",
          "type": "address"
        }
      ],
      "stateMutability": "nonpayable",
      "type": "function"
    },
    {
      "inputs": [
        {
          "internalType": "address",
          "name": "_feeTo",
          "type": "address"
        }
      ],
      "name": "setFeeTo",
      "outputs": [],
      "stateMutability": "nonpayable",
      "type": "function"
    },
    {
      "inputs": [
        {
          "internalType": "address",
          "name": "_feeToSetter",
          "type": "address"
        }
      ],
      "name": "setFeeToSetter",
      "outputs": [],
      "stateMutability": "nonpayable",
      "type": "function"
    }
  ],
  "bytecode": "0x608060405234801561001057600080fd5b50604051620052b4380380620052b4833981810160405281019061003491906100de565b80600160006101000a81548173ffffffffffffffffffffffffffffffffffffffff021916908373ffffffffffffffffffffffffffffffffffffffff1602179055505061010b565b600080fd5b600073ffffffffffffffffffffffffffffffffffffffff82169050919050565b60006100ab82610080565b9050919050565b6100bb816100a0565b81146100c657600080fd5b50565b6000815190506100d8816100b2565b92915050565b6000602082840312156100f4576100f361007b565b5b6000610102848285016100c9565b91505092915050565b615199806200011b6000396000f3fe60806040523480156200001157600080fd5b5060043610620000b25760003560e01c80639aab92481162000081578063c9c653961162000063578063c9c653961462000195578063e6a4390514620001cb578063f46901ed146200020157620000b2565b80639aab92481462000153578063a2e74af6146200017557620000b2565b8063017e7e5814620000b7578063094b741514620000d95780631e3dd18b14620000fb578063574f2ba31462000131575b600080fd5b620000c162000221565b604051620000d0919062000a8e565b60405180910390f35b620000e362000245565b604051620000f2919062000a8e565b60405180910390f35b62000119600480360381019062000113919062000aeb565b6200026b565b60405162000128919062000a8e565b60405180910390f35b6200013b620002ab565b6040516200014a919062000b2e565b60405180910390f35b6200015d620002b8565b6040516200016c919062000b66565b60405180910390f35b6200019360048036038101906200018d919062000bb4565b620002ec565b005b620001b36004803603810190620001ad919062000be6565b620003c3565b604051620001c2919062000a8e565b60405180910390f35b620001e96004803603810190620001e3919062000be6565b62000923565b604051620001f8919062000a8e565b60405180910390f35b6200021f600480360381019062000219919062000bb4565b62000965565b005b60008054906101000a900473ffffffffffffffffffffffffffffffffffffffff1681565b600160009054906101000a900473ffffffffffffffffffffffffffffffffffffffff1681565b600381815481106200027c57600080fd5b906000526020600020016000915054906101000a900473ffffffffffffffffffffffffffffffffffffffff1681565b6000600380549050905090565b600060405180602001620002cc9062000a3b565b6020820181038252601f19601f8201166040525080519060200120905090565b600160009054906101000a900473ffffffffffffffffffffffffffffffffffffffff1673ffffffffffffffffffffffffffffffffffffffff163373ffffffffffffffffffffffffffffffffffffffff16146200037f576040517f08c379a0000000000000000000000000000000000000000000000000000000008152600401620003769062000c8e565b60405180910390fd5b80600160006101000a81548173ffffffffffffffffffffffffffffffffffffffff021916908373ffffffffffffffffffffffffffffffffffffffff16021790555050565b60008173ffffffffffffffffffffffffffffffffffffffff168373ffffffffffffffffffffffffffffffffffffffff160362000436576040517f08c379a00000000000000000000000000000000000000000000000000000000081526004016200042d9062000d00565b60405180910390fd5b6000808373ffffffffffffffffffffffffffffffffffffffff168573ffffffffffffffffffffffffffffffffffffffff16106200047557838562000478565b84845b91509150600073ffffffffffffffffffffffffffffffffffffffff168273ffffffffffffffffffffffffffffffffffffffff1603620004ee576040517f08c379a0000000000000000000000000000000000000000000000000000000008152600401620004e59062000d72565b60405180910390fd5b600073ffffffffffffffffffffffffffffffffffffffff16600260008473ffffffffffffffffffffffffffffffffffffffff1673ffffffffffffffffffffffffffffffffffffffff16815260200190815260200160002060008373ffffffffffffffffffffffffffffffffffffffff1673ffffffffffffffffffffffffffffffffffffffff16815260200190815260200160002060009054906101000a900473ffffffffffffffffffffffffffffffffffffffff1673ffffffffffffffffffffffffffffffffffffffff1614620005fc576040517f08c379a0000000000000000000000000000000000000000000000000000000008152600401620005f39062000de4565b60405180910390fd5b600060405180602001620006109062000a3b565b6020820181038252601f19601f820116604052509050600083836040516020016200063d92919062000e56565b604051602081830303815290604052805190602001209050808251602084016000f594508473ffffffffffffffffffffffffffffffffffffffff1663485cc95585856040518363ffffffff1660e01b81526004016200069e92919062000e86565b600060405180830381600087803b158015620006b957600080fd5b505af1158015620006ce573d6000803e3d6000fd5b5050505084600260008673ffffffffffffffffffffffffffffffffffffffff1673ffffffffffffffffffffffffffffffffffffffff16815260200190815260200160002060008573ffffffffffffffffffffffffffffffffffffffff1673ffffffffffffffffffffffffffffffffffffffff16815260200190815260200160002060006101000a81548173ffffffffffffffffffffffffffffffffffffffff021916908373ffffffffffffffffffffffffffffffffffffffff16021790555084600260008573ffffffffffffffffffffffffffffffffffffffff1673ffffffffffffffffffffffffffffffffffffffff16815260200190815260200160002060008673ffffffffffffffffffffffffffffffffffffffff1673ffffffffffffffffffffffffffffffffffffffff16815260200190815260200160002060006101000a81548173ffffffffffffffffffffffffffffffffffffffff021916908373ffffffffffffffffffffffffffffffffffffffff1602179055506003859080600181540180825580915050600190039060005260206000200160009091909190916101000a81548173ffffffffffffffffffffffffffffffffffffffff021916908373ffffffffffffffffffffffffffffffffffffffff1602179055508273ffffffffffffffffffffffffffffffffffffffff168473ffffffffffffffffffffffffffffffffffffffff167f0d3648bd0f6ba80134a33ba9275ac585d9d315f0ad8355cddefde31afa28d0e9876003805490506040516200091192919062000eb3565b60405180910390a35050505092915050565b60026020528160005260406000206020528060005260406000206000915091509054906101000a900473ffffffffffffffffffffffffffffffffffffffff1681565b600160009054906101000a900473ffffffffffffffffffffffffffffffffffffffff1673ffffffffffffffffffffffffffffffffffffffff163373ffffffffffffffffffffffffffffffffffffffff1614620009f8576040517f08c379a0000000000000000000000000000000000000000000000000000000008152600401620009ef9062000c8e565b60405180910390fd5b806000806101000a81548173ffffffffffffffffffffffffffffffffffffffff021916908373ffffffffffffffffffffffffffffffffffffffff16021790555050565b6142838062000ee183390190565b600073ffffffffffffffffffffffffffffffffffffffff82169050919050565b600062000a768262000a49565b9050919050565b62000a888162000a69565b82525050565b600060208201905062000aa5600083018462000a7d565b92915050565b600080fd5b6000819050919050565b62000ac58162000ab0565b811462000ad157600080fd5b50565b60008135905062000ae58162000aba565b92915050565b60006020828403121562000b045762000b0362000aab565b5b600062000b148482850162000ad4565b91505092915050565b62000b288162000ab0565b82525050565b600060208201905062000b45600083018462000b1d565b92915050565b6000819050919050565b62000b608162000b4b565b82525050565b600060208201905062000b7d600083018462000b55565b92915050565b62000b8e8162000a69565b811462000b9a57600080fd5b50565b60008135905062000bae8162000b83565b92915050565b60006020828403121562000bcd5762000bcc62000aab565b5b600062000bdd8482850162000b9d565b91505092915050565b6000806040838503121562000c005762000bff62000aab565b5b600062000c108582860162000b9d565b925050602062000c238582860162000b9d565b9150509250929050565b600082825260208201905092915050565b7f416461737761703a20464f5242494444454e0000000000000000000000000000600082015250565b600062000c7660128362000c2d565b915062000c838262000c3e565b602082019050919050565b6000602082019050818103600083015262000ca98162000c67565b9050919050565b7f416461737761703a204944454e544943414c5f41444452455353455300000000600082015250565b600062000ce8601c8362000c2d565b915062000cf58262000cb0565b602082019050919050565b6000602082019050818103600083015262000d1b8162000cd9565b9050919050565b7f416461737761703a205a45524f5f414444524553530000000000000000000000600082015250565b600062000d5a60158362000c2d565b915062000d678262000d22565b602082019050919050565b6000602082019050818103600083015262000d8d8162000d4b565b9050919050565b7f416461737761703a20504149525f455849535453000000000000000000000000600082015250565b600062000dcc60148362000c2d565b915062000dd98262000d94565b602082019050919050565b6000602082019050818103600083015262000dff8162000dbd565b9050919050565b60008160601b9050919050565b600062000e208262000e06565b9050919050565b600062000e348262000e13565b9050919050565b62000e5062000e4a8262000a69565b62000e27565b82525050565b600062000e64828562000e3b565b60148201915062000e76828462000e3b565b6014820191508190509392505050565b600060408201905062000e9d600083018562000a7d565b62000eac602083018462000a7d565b9392505050565b600060408201905062000eca600083018562000a7d565b62000ed9602083018462000b1d565b939250505056fe60806040526001600c553480156200001657600080fd5b5060004690507f8b73c3c69bb8fe3d512ecc4cf759cc79239f7b179b0ffacaa9a75d522b39400f6040518060400160405280601081526020017f41646173776170204c5020546f6b656e00000000000000000000000000000000815250805190602001206040518060400160405280600181526020017f3100000000000000000000000000000000000000000000000000000000000000815250805190602001208330604051602001620000cf959493929190620001ae565b604051602081830303815290604052805190602001206003819055505033600560006101000a81548173ffffffffffffffffffffffffffffffffffffffff021916908373ffffffffffffffffffffffffffffffffffffffff1602179055506200020b565b6000819050919050565b620001488162000133565b82525050565b6000819050919050565b62000163816200014e565b82525050565b600073ffffffffffffffffffffffffffffffffffffffff82169050919050565b6000620001968262000169565b9050919050565b620001a88162000189565b82525050565b600060a082019050620001c560008301886200013d565b620001d460208301876200013d565b620001e360408301866200013d565b620001f2606083018562000158565b6200020160808301846200019d565b9695505050505050565b614068806200021b6000396000f3fe608060405234801561001057600080fd5b50600436106101b95760003560e01c80636a627842116100f9578063ba9a7a5611610097578063d21220a711610071578063d21220a7146104eb578063d505accf14610509578063dd62ed3e14610525578063fff6cae914610555576101b9565b8063ba9a7a5614610493578063bc25cf77146104b1578063c45a0155146104cd576101b9565b80637ecebe00116100d35780637ecebe00146103e457806389afcb441461041457806395d89b4114610445578063a9059cbb14610463576101b9565b80636a6278421461036657806370a08231146103965780637464fc3d146103c6576101b9565b806323b872dd116101665780633644e515116101405780633644e515146102f0578063485cc9551461030e5780635909c0d51461032a5780635a3d549314610348576101b9565b806323b872dd1461028457806330adf81f146102b4578063313ce567146102d2576101b9565b8063095ea7b311610197578063095ea7b3146102185780630dfe16811461024857806318160ddd14610266576101b9565b8063022c0d9f146101be57806306fdde03146101da5780630902f1ac146101f8575b600080fd5b6101d860048036038101906101d39190612d6f565b61055f565b005b6101e2610bb1565b6040516101ef9190612e90565b60405180910390f35b610200610bea565b60405161020f93929190612efa565b60405180910390f35b610232600480360381019061022d9190612f31565b610c47565b60405161023f9190612f8c565b60405180910390f35b610250610c5e565b60405161025d9190612fb6565b60405180910390f35b61026e610c84565b60405161027b9190612fe0565b60405180910390f35b61029e60048036038101906102999190612ffb565b610c8a565b6040516102ab9190612f8c565b60405180910390f35b6102bc610e55565b6040516102c99190613067565b60405180910390f35b6102da610e7c565b6040516102e7919061309e565b60405180910390f35b6102f8610e81565b6040516103059190613067565b60405180910390f35b610328600480360381019061032391906130b9565b610e87565b005b610332610f9d565b60405161033f9190612fe0565b60405180910390f35b610350610fa3565b60405161035d9190612fe0565b60405180910390f35b610380600480360381019061037b91906130f9565b610fa9565b60405161038d9190612fe0565b60405180910390f35b6103b060048036038101906103ab91906130f9565b611392565b6040516103bd9190612fe0565b60405180910390f35b6103ce6113aa565b6040516103db9190612fe0565b60405180910390f35b6103fe60048036038101906103f991906130f9565b6113b0565b60405161040b9190612fe0565b60405180910390f35b61042e600480360381019061042991906130f9565b6113c8565b60405161043c929190613126565b60405180910390f35b61044d611872565b60405161045a9190612e90565b60405180910390f35b61047d60048036038101906104789190612f31565b6118ab565b60405161048a9190612f8c565b60405180910390f35b61049b6118c2565b6040516104a89190612fe0565b60405180910390f35b6104cb60048036038101906104c691906130f9565b6118c8565b005b6104d5611af4565b6040516104e29190612fb6565b60405180910390f35b6104f3611b1a565b6040516105009190612fb6565b60405180910390f35b610523600480360381019061051e91906131a7565b611b40565b005b61053f600480360381019061053a91906130b9565b611d68565b60405161054c9190612fe0565b60405180910390f35b61055d611d8d565b005b6001600c54146105a4576040517f08c379a000000000000000000000000000000000000000000000000000000000815260040161059b90613295565b60405180910390fd5b6000600c8190555060008511806105bb5750600084115b6105fa576040517f08c379a00000000000000000000000000000000000000000000000000000000081526004016105f190613327565b60405180910390fd5b600080610605610bea565b5091509150816dffffffffffffffffffffffffffff16871080156106385750806dffffffffffffffffffffffffffff1686105b610677576040517f08c379a000000000000000000000000000000000000000000000000000000000815260040161066e90613393565b60405180910390fd5b6000806000600660009054906101000a900473ffffffffffffffffffffffffffffffffffffffff1690506000600760009054906101000a900473ffffffffffffffffffffffffffffffffffffffff1690508173ffffffffffffffffffffffffffffffffffffffff168973ffffffffffffffffffffffffffffffffffffffff161415801561073057508073ffffffffffffffffffffffffffffffffffffffff168973ffffffffffffffffffffffffffffffffffffffff1614155b61076f576040517f08c379a0000000000000000000000000000000000000000000000000000000008152600401610766906133ff565b60405180910390fd5b60008b111561078457610783828a8d611f5e565b5b60008a111561079957610798818a8c611f5e565b5b6000888890501115610819578873ffffffffffffffffffffffffffffffffffffffff166331f22e23338d8d8c8c6040518663ffffffff1660e01b81526004016107e695949392919061346c565b600060405180830381600087803b15801561080057600080fd5b505af1158015610814573d6000803e3d6000fd5b505050505b8173ffffffffffffffffffffffffffffffffffffffff166370a08231306040518263ffffffff1660e01b81526004016108529190612fb6565b602060405180830381865afa15801561086f573d6000803e3d6000fd5b505050506040513d601f19601f8201168201806040525081019061089391906134cf565b93508073ffffffffffffffffffffffffffffffffffffffff166370a08231306040518263ffffffff1660e01b81526004016108ce9190612fb6565b602060405180830381865afa1580156108eb573d6000803e3d6000fd5b505050506040513d601f19601f8201168201806040525081019061090f91906134cf565b92505050600089856dffffffffffffffffffffffffffff16610931919061352b565b831161093e576000610966565b89856dffffffffffffffffffffffffffff1661095a919061352b565b83610965919061352b565b5b9050600089856dffffffffffffffffffffffffffff16610986919061352b565b83116109935760006109bb565b89856dffffffffffffffffffffffffffff166109af919061352b565b836109ba919061352b565b5b905060008211806109cc5750600081115b610a0b576040517f08c379a0000000000000000000000000000000000000000000000000000000008152600401610a02906135d1565b60405180910390fd5b6000610a47610a246003856120e890919063ffffffff16565b610a396103e8886120e890919063ffffffff16565b61215590919063ffffffff16565b90506000610a85610a626003856120e890919063ffffffff16565b610a776103e8886120e890919063ffffffff16565b61215590919063ffffffff16565b9050610acf620f4240610ac1896dffffffffffffffffffffffffffff168b6dffffffffffffffffffffffffffff166120e890919063ffffffff16565b6120e890919063ffffffff16565b610ae282846120e890919063ffffffff16565b1015610b23576040517f08c379a0000000000000000000000000000000000000000000000000000000008152600401610b1a9061363d565b60405180910390fd5b5050610b31848488886121ae565b8873ffffffffffffffffffffffffffffffffffffffff163373ffffffffffffffffffffffffffffffffffffffff167fd78ad95fa46c994b6551d0da85fc275fe613ce37657fb8d5e3d130840159d82284848f8f604051610b94949392919061365d565b60405180910390a35050505050506001600c819055505050505050565b6040518060400160405280601081526020017f41646173776170204c5020546f6b656e0000000000000000000000000000000081525081565b6000806000600860009054906101000a90046dffffffffffffffffffffffffffff1692506008600e9054906101000a90046dffffffffffffffffffffffffffff1691506008601c9054906101000a900463ffffffff169050909192565b6000610c543384846124a2565b6001905092915050565b600660009054906101000a900473ffffffffffffffffffffffffffffffffffffffff1681565b60005481565b60007fffffffffffffffffffffffffffffffffffffffffffffffffffffffffffffffff600260008673ffffffffffffffffffffffffffffffffffffffff1673ffffffffffffffffffffffffffffffffffffffff16815260200190815260200160002060003373ffffffffffffffffffffffffffffffffffffffff1673ffffffffffffffffffffffffffffffffffffffff1681526020019081526020016000205414610e3f57610dbe82600260008773ffffffffffffffffffffffffffffffffffffffff1673ffffffffffffffffffffffffffffffffffffffff16815260200190815260200160002060003373ffffffffffffffffffffffffffffffffffffffff1673ffffffffffffffffffffffffffffffffffffffff1681526020019081526020016000205461215590919063ffffffff16565b600260008673ffffffffffffffffffffffffffffffffffffffff1673ffffffffffffffffffffffffffffffffffffffff16815260200190815260200160002060003373ffffffffffffffffffffffffffffffffffffffff1673ffffffffffffffffffffffffffffffffffffffff168152602001908152602001600020819055505b610e4a84848461258d565b600190509392505050565b7f6e71edae12b1b97f4d1f60370fef10105fa2faae0126114a169c64845d6126c960001b81565b601281565b60035481565b600560009054906101000a900473ffffffffffffffffffffffffffffffffffffffff1673ffffffffffffffffffffffffffffffffffffffff163373ffffffffffffffffffffffffffffffffffffffff1614610f17576040517f08c379a0000000000000000000000000000000000000000000000000000000008152600401610f0e906136ee565b60405180910390fd5b81600660006101000a81548173ffffffffffffffffffffffffffffffffffffffff021916908373ffffffffffffffffffffffffffffffffffffffff16021790555080600760006101000a81548173ffffffffffffffffffffffffffffffffffffffff021916908373ffffffffffffffffffffffffffffffffffffffff1602179055505050565b60095481565b600a5481565b60006001600c5414610ff0576040517f08c379a0000000000000000000000000000000000000000000000000000000008152600401610fe790613295565b60405180910390fd5b6000600c81905550600080611003610bea565b50915091506000600660009054906101000a900473ffffffffffffffffffffffffffffffffffffffff1673ffffffffffffffffffffffffffffffffffffffff166370a08231306040518263ffffffff1660e01b81526004016110659190612fb6565b602060405180830381865afa158015611082573d6000803e3d6000fd5b505050506040513d601f19601f820116820180604052508101906110a691906134cf565b90506000600760009054906101000a900473ffffffffffffffffffffffffffffffffffffffff1673ffffffffffffffffffffffffffffffffffffffff166370a08231306040518263ffffffff1660e01b81526004016111059190612fb6565b602060405180830381865afa158015611122573d6000803e3d6000fd5b505050506040513d601f19601f8201168201806040525081019061114691906134cf565b9050600061116d856dffffffffffffffffffffffffffff168461215590919063ffffffff16565b90506000611194856dffffffffffffffffffffffffffff168461215590919063ffffffff16565b905060006111a28787612721565b9050600080549050600081036111f5576111e16103e86111d36111ce86886120e890919063ffffffff16565b6128f2565b61215590919063ffffffff16565b98506111f060006103e861296c565b61125c565b611259886dffffffffffffffffffffffffffff1661121c83876120e890919063ffffffff16565b611226919061373d565b886dffffffffffffffffffffffffffff1661124a84876120e890919063ffffffff16565b611254919061373d565b612a86565b98505b6000891161129f576040517f08c379a0000000000000000000000000000000000000000000000000000000008152600401611296906137e0565b60405180910390fd5b6112a98a8a61296c565b6112b586868a8a6121ae565b811561132d576113266008600e9054906101000a90046dffffffffffffffffffffffffffff166dffffffffffffffffffffffffffff16600860009054906101000a90046dffffffffffffffffffffffffffff166dffffffffffffffffffffffffffff166120e890919063ffffffff16565b600b819055505b3373ffffffffffffffffffffffffffffffffffffffff167f4c209b5fc8ad50758f13e2e1088ba56a560dff690a1c6fef26394f4c03821c4f8585604051611375929190613126565b60405180910390a250505050505050506001600c81905550919050565b60016020528060005260406000206000915090505481565b600b5481565b60046020528060005260406000206000915090505481565b6000806001600c5414611410576040517f08c379a000000000000000000000000000000000000000000000000000000000815260040161140790613295565b60405180910390fd5b6000600c81905550600080611423610bea565b50915091506000600660009054906101000a900473ffffffffffffffffffffffffffffffffffffffff1690506000600760009054906101000a900473ffffffffffffffffffffffffffffffffffffffff16905060008273ffffffffffffffffffffffffffffffffffffffff166370a08231306040518263ffffffff1660e01b81526004016114b19190612fb6565b602060405180830381865afa1580156114ce573d6000803e3d6000fd5b505050506040513d601f19601f820116820180604052508101906114f291906134cf565b905060008273ffffffffffffffffffffffffffffffffffffffff166370a08231306040518263ffffffff1660e01b815260040161152f9190612fb6565b602060405180830381865afa15801561154c573d6000803e3d6000fd5b505050506040513d601f19601f8201168201806040525081019061157091906134cf565b90506000600160003073ffffffffffffffffffffffffffffffffffffffff1673ffffffffffffffffffffffffffffffffffffffff16815260200190815260200160002054905060006115c28888612721565b9050600080549050806115de86856120e890919063ffffffff16565b6115e8919061373d565b9a50806115fe85856120e890919063ffffffff16565b611608919061373d565b995060008b11801561161a575060008a115b611659576040517f08c379a000000000000000000000000000000000000000000000000000000000815260040161165090613872565b60405180910390fd5b6116633084612a9f565b61166e878d8d611f5e565b611679868d8c611f5e565b8673ffffffffffffffffffffffffffffffffffffffff166370a08231306040518263ffffffff1660e01b81526004016116b29190612fb6565b602060405180830381865afa1580156116cf573d6000803e3d6000fd5b505050506040513d601f19601f820116820180604052508101906116f391906134cf565b94508573ffffffffffffffffffffffffffffffffffffffff166370a08231306040518263ffffffff1660e01b815260040161172e9190612fb6565b602060405180830381865afa15801561174b573d6000803e3d6000fd5b505050506040513d601f19601f8201168201806040525081019061176f91906134cf565b935061177d85858b8b6121ae565b81156117f5576117ee6008600e9054906101000a90046dffffffffffffffffffffffffffff166dffffffffffffffffffffffffffff16600860009054906101000a90046dffffffffffffffffffffffffffff166dffffffffffffffffffffffffffff166120e890919063ffffffff16565b600b819055505b8b73ffffffffffffffffffffffffffffffffffffffff163373ffffffffffffffffffffffffffffffffffffffff167fdccd412f0b1252819cb1fd330b93224ca42612892bb3f4f789976e6d819364968d8d604051611854929190613126565b60405180910390a35050505050505050506001600c81905550915091565b6040518060400160405280600381526020017f414c50000000000000000000000000000000000000000000000000000000000081525081565b60006118b833848461258d565b6001905092915050565b6103e881565b6001600c541461190d576040517f08c379a000000000000000000000000000000000000000000000000000000000815260040161190490613295565b60405180910390fd5b6000600c819055506000600660009054906101000a900473ffffffffffffffffffffffffffffffffffffffff1690506000600760009054906101000a900473ffffffffffffffffffffffffffffffffffffffff169050611a258284611a20600860009054906101000a90046dffffffffffffffffffffffffffff166dffffffffffffffffffffffffffff168673ffffffffffffffffffffffffffffffffffffffff166370a08231306040518263ffffffff1660e01b81526004016119d19190612fb6565b602060405180830381865afa1580156119ee573d6000803e3d6000fd5b505050506040513d601f19601f82011682018060405250810190611a1291906134cf565b61215590919063ffffffff16565b611f5e565b611ae78184611ae26008600e9054906101000a90046dffffffffffffffffffffffffffff166dffffffffffffffffffffffffffff168573ffffffffffffffffffffffffffffffffffffffff166370a08231306040518263ffffffff1660e01b8152600401611a939190612fb6565b602060405180830381865afa158015611ab0573d6000803e3d6000fd5b505050506040513d601f19601f82011682018060405250810190611ad491906134cf565b61215590919063ffffffff16565b611f5e565b50506001600c8190555050565b600560009054906101000a900473ffffffffffffffffffffffffffffffffffffffff1681565b600760009054906101000a900473ffffffffffffffffffffffffffffffffffffffff1681565b42841015611b83576040517f08c379a0000000000000000000000000000000000000000000000000000000008152600401611b7a906138de565b60405180910390fd5b60006003547f6e71edae12b1b97f4d1f60370fef10105fa2faae0126114a169c64845d6126c960001b898989600460008e73ffffffffffffffffffffffffffffffffffffffff1673ffffffffffffffffffffffffffffffffffffffff1681526020019081526020016000206000815480929190611bff906138fe565b919050558a604051602001611c1996959493929190613946565b60405160208183030381529060405280519060200120604051602001611c40929190613a1f565b604051602081830303815290604052805190602001209050600060018286868660405160008152602001604052604051611c7d9493929190613a56565b6020604051602081039080840390855afa158015611c9f573d6000803e3d6000fd5b505050602060405103519050600073ffffffffffffffffffffffffffffffffffffffff168173ffffffffffffffffffffffffffffffffffffffff1614158015611d1357508873ffffffffffffffffffffffffffffffffffffffff168173ffffffffffffffffffffffffffffffffffffffff16145b611d52576040517f08c379a0000000000000000000000000000000000000000000000000000000008152600401611d4990613ae7565b60405180910390fd5b611d5d8989896124a2565b505050505050505050565b6002602052816000526040600020602052806000526040600020600091509150505481565b6001600c5414611dd2576040517f08c379a0000000000000000000000000000000000000000000000000000000008152600401611dc990613295565b60405180910390fd5b6000600c81905550611f54600660009054906101000a900473ffffffffffffffffffffffffffffffffffffffff1673ffffffffffffffffffffffffffffffffffffffff166370a08231306040518263ffffffff1660e01b8152600401611e389190612fb6565b602060405180830381865afa158015611e55573d6000803e3d6000fd5b505050506040513d601f19601f82011682018060405250810190611e7991906134cf565b600760009054906101000a900473ffffffffffffffffffffffffffffffffffffffff1673ffffffffffffffffffffffffffffffffffffffff166370a08231306040518263ffffffff1660e01b8152600401611ed49190612fb6565b602060405180830381865afa158015611ef1573d6000803e3d6000fd5b505050506040513d601f19601f82011682018060405250810190611f1591906134cf565b600860009054906101000a90046dffffffffffffffffffffffffffff166008600e9054906101000a90046dffffffffffffffffffffffffffff166121ae565b6001600c81905550565b6000808473ffffffffffffffffffffffffffffffffffffffff166040518060400160405280601981526020017f7472616e7366657228616464726573732c75696e743235362900000000000000815250805190602001208585604051602401611fc8929190613b07565b604051602081830303815290604052907bffffffffffffffffffffffffffffffffffffffffffffffffffffffff19166020820180517bffffffffffffffffffffffffffffffffffffffffffffffffffffffff83818316178352505050506040516120329190613b77565b6000604051808303816000865af19150503d806000811461206f576040519150601f19603f3d011682016040523d82523d6000602084013e612074565b606091505b50915091508180156120a257506000815114806120a15750808060200190518101906120a09190613bba565b5b5b6120e1576040517f08c379a00000000000000000000000000000000000000000000000000000000081526004016120d890613c33565b60405180910390fd5b5050505050565b6000808214806121105750828283856121019190613c53565b92508261210e919061373d565b145b61214f576040517f08c379a000000000000000000000000000000000000000000000000000000000815260040161214690613cf9565b60405180910390fd5b92915050565b6000828284612164919061352b565b91508111156121a8576040517f08c379a000000000000000000000000000000000000000000000000000000000815260040161219f90613d65565b60405180910390fd5b92915050565b6dffffffffffffffffffffffffffff801684111580156121de57506dffffffffffffffffffffffffffff80168311155b61221d576040517f08c379a000000000000000000000000000000000000000000000000000000000815260040161221490613dd1565b60405180910390fd5b6000640100000000426122309190613df1565b905060006008601c9054906101000a900463ffffffff16826122529190613e22565b905060008163ffffffff1611801561227b57506000846dffffffffffffffffffffffffffff1614155b801561229857506000836dffffffffffffffffffffffffffff1614155b1561239e578063ffffffff166122dd856122b186612bb9565b7bffffffffffffffffffffffffffffffffffffffffffffffffffffffff16612bed90919063ffffffff16565b7bffffffffffffffffffffffffffffffffffffffffffffffffffffffff166123059190613c53565b600960008282546123169190613e56565b925050819055508063ffffffff1661235d8461233187612bb9565b7bffffffffffffffffffffffffffffffffffffffffffffffffffffffff16612bed90919063ffffffff16565b7bffffffffffffffffffffffffffffffffffffffffffffffffffffffff166123859190613c53565b600a60008282546123969190613e56565b925050819055505b85600860006101000a8154816dffffffffffffffffffffffffffff02191690836dffffffffffffffffffffffffffff160217905550846008600e6101000a8154816dffffffffffffffffffffffffffff02191690836dffffffffffffffffffffffffffff160217905550816008601c6101000a81548163ffffffff021916908363ffffffff1602179055507f1c411e9a96e071241c2f21f7726b17ae89e3cab4c78be50e062b03a9fffbbad1600860009054906101000a90046dffffffffffffffffffffffffffff166008600e9054906101000a90046dffffffffffffffffffffffffffff16604051612492929190613eac565b60405180910390a1505050505050565b80600260008573ffffffffffffffffffffffffffffffffffffffff1673ffffffffffffffffffffffffffffffffffffffff16815260200190815260200160002060008473ffffffffffffffffffffffffffffffffffffffff1673ffffffffffffffffffffffffffffffffffffffff168152602001908152602001600020819055508173ffffffffffffffffffffffffffffffffffffffff168373ffffffffffffffffffffffffffffffffffffffff167f8c5be1e5ebec7d5bd14f71427d1e84f3dd0314c0f7b2291e5b200ac8c7c3b925836040516125809190612fe0565b60405180910390a3505050565b6125df81600160008673ffffffffffffffffffffffffffffffffffffffff1673ffffffffffffffffffffffffffffffffffffffff1681526020019081526020016000205461215590919063ffffffff16565b600160008573ffffffffffffffffffffffffffffffffffffffff1673ffffffffffffffffffffffffffffffffffffffff1681526020019081526020016000208190555061267481600160008573ffffffffffffffffffffffffffffffffffffffff1673ffffffffffffffffffffffffffffffffffffffff16815260200190815260200160002054612c1390919063ffffffff16565b600160008473ffffffffffffffffffffffffffffffffffffffff1673ffffffffffffffffffffffffffffffffffffffff168152602001908152602001600020819055508173ffffffffffffffffffffffffffffffffffffffff168373ffffffffffffffffffffffffffffffffffffffff167fddf252ad1be2c89b69c2b068fc378daa952ba7f163c4a11628f55a4df523b3ef836040516127149190612fe0565b60405180910390a3505050565b600080600560009054906101000a900473ffffffffffffffffffffffffffffffffffffffff1673ffffffffffffffffffffffffffffffffffffffff1663017e7e586040518163ffffffff1660e01b8152600401602060405180830381865afa158015612791573d6000803e3d6000fd5b505050506040513d601f19601f820116820180604052508101906127b59190613eea565b9050600073ffffffffffffffffffffffffffffffffffffffff168173ffffffffffffffffffffffffffffffffffffffff16141591506000600b54905082156128d857600081146128d357600061283c612837866dffffffffffffffffffffffffffff16886dffffffffffffffffffffffffffff166120e890919063ffffffff16565b6128f2565b90506000612849836128f2565b9050808211156128d057600061287c61286b838561215590919063ffffffff16565b6000546120e890919063ffffffff16565b905060006128a6836128986005876120e890919063ffffffff16565b612c1390919063ffffffff16565b9050600081836128b6919061373d565b905060008111156128cc576128cb878261296c565b5b5050505b50505b6128ea565b600081146128e9576000600b819055505b5b505092915050565b600060038211156129595781905060006001600284612911919061373d565b61291b9190613e56565b90505b81811015612953578091506002818285612938919061373d565b6129429190613e56565b61294c919061373d565b905061291e565b50612967565b6000821461296657600190505b5b919050565b61298181600054612c1390919063ffffffff16565b6000819055506129d981600160008573ffffffffffffffffffffffffffffffffffffffff1673ffffffffffffffffffffffffffffffffffffffff16815260200190815260200160002054612c1390919063ffffffff16565b600160008473ffffffffffffffffffffffffffffffffffffffff1673ffffffffffffffffffffffffffffffffffffffff168152602001908152602001600020819055508173ffffffffffffffffffffffffffffffffffffffff16600073ffffffffffffffffffffffffffffffffffffffff167fddf252ad1be2c89b69c2b068fc378daa952ba7f163c4a11628f55a4df523b3ef83604051612a7a9190612fe0565b60405180910390a35050565b6000818310612a955781612a97565b825b905092915050565b612af181600160008573ffffffffffffffffffffffffffffffffffffffff1673ffffffffffffffffffffffffffffffffffffffff1681526020019081526020016000205461215590919063ffffffff16565b600160008473ffffffffffffffffffffffffffffffffffffffff1673ffffffffffffffffffffffffffffffffffffffff16815260200190815260200160002081905550612b498160005461215590919063ffffffff16565b600081905550600073ffffffffffffffffffffffffffffffffffffffff168273ffffffffffffffffffffffffffffffffffffffff167fddf252ad1be2c89b69c2b068fc378daa952ba7f163c4a11628f55a4df523b3ef83604051612bad9190612fe0565b60405180910390a35050565b60006e010000000000000000000000000000826dffffffffffffffffffffffffffff16612be69190613f3f565b9050919050565b6000816dffffffffffffffffffffffffffff1683612c0b9190613f95565b905092915050565b6000828284612c229190613e56565b9150811015612c66576040517f08c379a0000000000000000000000000000000000000000000000000000000008152600401612c5d90614012565b60405180910390fd5b92915050565b600080fd5b600080fd5b6000819050919050565b612c8981612c76565b8114612c9457600080fd5b50565b600081359050612ca681612c80565b92915050565b600073ffffffffffffffffffffffffffffffffffffffff82169050919050565b6000612cd782612cac565b9050919050565b612ce781612ccc565b8114612cf257600080fd5b50565b600081359050612d0481612cde565b92915050565b600080fd5b600080fd5b600080fd5b60008083601f840112612d2f57612d2e612d0a565b5b8235905067ffffffffffffffff811115612d4c57612d4b612d0f565b5b602083019150836001820283011115612d6857612d67612d14565b5b9250929050565b600080600080600060808688031215612d8b57612d8a612c6c565b5b6000612d9988828901612c97565b9550506020612daa88828901612c97565b9450506040612dbb88828901612cf5565b935050606086013567ffffffffffffffff811115612ddc57612ddb612c71565b5b612de888828901612d19565b92509250509295509295909350565b600081519050919050565b600082825260208201905092915050565b60005b83811015612e31578082015181840152602081019050612e16565b83811115612e40576000848401525b50505050565b6000601f19601f8301169050919050565b6000612e6282612df7565b612e6c8185612e02565b9350612e7c818560208601612e13565b612e8581612e46565b840191505092915050565b60006020820190508181036000830152612eaa8184612e57565b905092915050565b60006dffffffffffffffffffffffffffff82169050919050565b612ed581612eb2565b82525050565b600063ffffffff82169050919050565b612ef481612edb565b82525050565b6000606082019050612f0f6000830186612ecc565b612f1c6020830185612ecc565b612f296040830184612eeb565b949350505050565b60008060408385031215612f4857612f47612c6c565b5b6000612f5685828601612cf5565b9250506020612f6785828601612c97565b9150509250929050565b60008115159050919050565b612f8681612f71565b82525050565b6000602082019050612fa16000830184612f7d565b92915050565b612fb081612ccc565b82525050565b6000602082019050612fcb6000830184612fa7565b92915050565b612fda81612c76565b82525050565b6000602082019050612ff56000830184612fd1565b92915050565b60008060006060848603121561301457613013612c6c565b5b600061302286828701612cf5565b935050602061303386828701612cf5565b925050604061304486828701612c97565b9150509250925092565b6000819050919050565b6130618161304e565b82525050565b600060208201905061307c6000830184613058565b92915050565b600060ff82169050919050565b61309881613082565b82525050565b60006020820190506130b3600083018461308f565b92915050565b600080604083850312156130d0576130cf612c6c565b5b60006130de85828601612cf5565b92505060206130ef85828601612cf5565b9150509250929050565b60006020828403121561310f5761310e612c6c565b5b600061311d84828501612cf5565b91505092915050565b600060408201905061313b6000830185612fd1565b6131486020830184612fd1565b9392505050565b61315881613082565b811461316357600080fd5b50565b6000813590506131758161314f565b92915050565b6131848161304e565b811461318f57600080fd5b50565b6000813590506131a18161317b565b92915050565b600080600080600080600060e0888a0312156131c6576131c5612c6c565b5b60006131d48a828b01612cf5565b97505060206131e58a828b01612cf5565b96505060406131f68a828b01612c97565b95505060606132078a828b01612c97565b94505060806132188a828b01613166565b93505060a06132298a828b01613192565b92505060c061323a8a828b01613192565b91505092959891949750929550565b7f416461737761703a204c4f434b45440000000000000000000000000000000000600082015250565b600061327f600f83612e02565b915061328a82613249565b602082019050919050565b600060208201905081810360008301526132ae81613272565b9050919050565b7f416461737761703a20494e53554646494349454e545f4f55545055545f414d4f60008201527f554e540000000000000000000000000000000000000000000000000000000000602082015250565b6000613311602383612e02565b915061331c826132b5565b604082019050919050565b6000602082019050818103600083015261334081613304565b9050919050565b7f416461737761703a20494e53554646494349454e545f4c495155494449545900600082015250565b600061337d601f83612e02565b915061338882613347565b602082019050919050565b600060208201905081810360008301526133ac81613370565b9050919050565b7f416461737761703a20494e56414c49445f544f00000000000000000000000000600082015250565b60006133e9601383612e02565b91506133f4826133b3565b602082019050919050565b60006020820190508181036000830152613418816133dc565b9050919050565b600082825260208201905092915050565b82818337600083830152505050565b600061344b838561341f565b9350613458838584613430565b61346183612e46565b840190509392505050565b60006080820190506134816000830188612fa7565b61348e6020830187612fd1565b61349b6040830186612fd1565b81810360608301526134ae81848661343f565b90509695505050505050565b6000815190506134c981612c80565b92915050565b6000602082840312156134e5576134e4612c6c565b5b60006134f3848285016134ba565b91505092915050565b7f4e487b7100000000000000000000000000000000000000000000000000000000600052601160045260246000fd5b600061353682612c76565b915061354183612c76565b925082821015613554576135536134fc565b5b828203905092915050565b7f416461737761703a20494e53554646494349454e545f494e5055545f414d4f5560008201527f4e54000000000000000000000000000000000000000000000000000000000000602082015250565b60006135bb602283612e02565b91506135c68261355f565b604082019050919050565b600060208201905081810360008301526135ea816135ae565b9050919050565b7f416461737761703a204b00000000000000000000000000000000000000000000600082015250565b6000613627600a83612e02565b9150613632826135f1565b602082019050919050565b600060208201905081810360008301526136568161361a565b9050919050565b60006080820190506136726000830187612fd1565b61367f6020830186612fd1565b61368c6040830185612fd1565b6136996060830184612fd1565b95945050505050565b7f416461737761703a20464f5242494444454e0000000000000000000000000000600082015250565b60006136d8601283612e02565b91506136e3826136a2565b602082019050919050565b60006020820190508181036000830152613707816136cb565b9050919050565b7f4e487b7100000000000000000000000000000000000000000000000000000000600052601260045260246000fd5b600061374882612c76565b915061375383612c76565b9250826137635761376261370e565b5b828204905092915050565b7f416461737761703a20494e53554646494349454e545f4c49515549444954595f60008201527f4d494e5445440000000000000000000000000000000000000000000000000000602082015250565b60006137ca602683612e02565b91506137d58261376e565b604082019050919050565b600060208201905081810360008301526137f9816137bd565b9050919050565b7f416461737761703a20494e53554646494349454e545f4c49515549444954595f60008201527f4255524e45440000000000000000000000000000000000000000000000000000602082015250565b600061385c602683612e02565b915061386782613800565b604082019050919050565b6000602082019050818103600083015261388b8161384f565b9050919050565b7f416461737761703a204558504952454400000000000000000000000000000000600082015250565b60006138c8601083612e02565b91506138d382613892565b602082019050919050565b600060208201905081810360008301526138f7816138bb565b9050919050565b600061390982612c76565b91507fffffffffffffffffffffffffffffffffffffffffffffffffffffffffffffffff820361393b5761393a6134fc565b5b600182019050919050565b600060c08201905061395b6000830189613058565b6139686020830188612fa7565b6139756040830187612fa7565b6139826060830186612fd1565b61398f6080830185612fd1565b61399c60a0830184612fd1565b979650505050505050565b600081905092915050565b7f1901000000000000000000000000000000000000000000000000000000000000600082015250565b60006139e86002836139a7565b91506139f3826139b2565b600282019050919050565b6000819050919050565b613a19613a148261304e565b6139fe565b82525050565b6000613a2a826139db565b9150613a368285613a08565b602082019150613a468284613a08565b6020820191508190509392505050565b6000608082019050613a6b6000830187613058565b613a78602083018661308f565b613a856040830185613058565b613a926060830184613058565b95945050505050565b7f416461737761703a20494e56414c49445f5349474e4154555245000000000000600082015250565b6000613ad1601a83612e02565b9150613adc82613a9b565b602082019050919050565b60006020820190508181036000830152613b0081613ac4565b9050919050565b6000604082019050613b1c6000830185612fa7565b613b296020830184612fd1565b9392505050565b600081519050919050565b600081905092915050565b6000613b5182613b30565b613b5b8185613b3b565b9350613b6b818560208601612e13565b80840191505092915050565b6000613b838284613b46565b915081905092915050565b613b9781612f71565b8114613ba257600080fd5b50565b600081519050613bb481613b8e565b92915050565b600060208284031215613bd057613bcf612c6c565b5b6000613bde84828501613ba5565b91505092915050565b7f416461737761703a205452414e534645525f4641494c45440000000000000000600082015250565b6000613c1d601883612e02565b9150613c2882613be7565b602082019050919050565b60006020820190508181036000830152613c4c81613c10565b9050919050565b6000613c5e82612c76565b9150613c6983612c76565b9250817fffffffffffffffffffffffffffffffffffffffffffffffffffffffffffffffff0483118215151615613ca257613ca16134fc565b5b828202905092915050565b7f64732d6d6174682d6d756c2d6f766572666c6f77000000000000000000000000600082015250565b6000613ce3601483612e02565b9150613cee82613cad565b602082019050919050565b60006020820190508181036000830152613d1281613cd6565b9050919050565b7f64732d6d6174682d7375622d756e646572666c6f770000000000000000000000600082015250565b6000613d4f601583612e02565b9150613d5a82613d19565b602082019050919050565b60006020820190508181036000830152613d7e81613d42565b9050919050565b7f416461737761703a204f564552464c4f57000000000000000000000000000000600082015250565b6000613dbb601183612e02565b9150613dc682613d85565b602082019050919050565b60006020820190508181036000830152613dea81613dae565b9050919050565b6000613dfc82612c76565b9150613e0783612c76565b925082613e1757613e1661370e565b5b828206905092915050565b6000613e2d82612edb565b9150613e3883612edb565b925082821015613e4b57613e4a6134fc565b5b828203905092915050565b6000613e6182612c76565b9150613e6c83612c76565b9250827fffffffffffffffffffffffffffffffffffffffffffffffffffffffffffffffff03821115613ea157613ea06134fc565b5b828201905092915050565b6000604082019050613ec16000830185612ecc565b613ece6020830184612ecc565b9392505050565b600081519050613ee481612cde565b92915050565b600060208284031215613f0057613eff612c6c565b5b6000613f0e84828501613ed5565b91505092915050565b60007bffffffffffffffffffffffffffffffffffffffffffffffffffffffff82169050919050565b6000613f4a82613f17565b9150613f5583613f17565b9250817bffffffffffffffffffffffffffffffffffffffffffffffffffffffff0483118215151615613f8a57613f896134fc565b5b828202905092915050565b6000613fa082613f17565b9150613fab83613f17565b925082613fbb57613fba61370e565b5b828204905092915050565b7f64732d6d6174682d6164642d6f766572666c6f77000000000000000000000000600082015250565b6000613ffc601483612e02565b915061400782613fc6565b602082019050919050565b6000602082019050818103600083015261402b81613fef565b905091905056fea2646970667358221220db93b80e894c8ccbd1f4c4f80c75a4013d95880f86cc1693fddb67f4a2bbe55764736f6c634300080d0033a264697066735822122023a55aed2bd2f75c648aef662a57d1e5885cafa3ecf60d2e7e83796b31f2835464736f6c634300080d0033",
  "immutableReferences": {},
  "source": "pragma solidity >=0.8.13;\n\nimport './interfaces/IAdaswapFactory.sol';\nimport './AdaswapPair.sol';\n\ncontract AdaswapFactory is IAdaswapFactory {\n    address public feeTo;\n    address public feeToSetter;\n\n    mapping(address => mapping(address => address)) public getPair;\n    address[] public allPairs;\n\n    constructor(address _feeToSetter) {\n        feeToSetter = _feeToSetter;\n    }\n\n    function allPairsLength() external view returns (uint) {\n        return allPairs.length;\n    }\n\n    function pairCodeHash() external pure returns (bytes32) {\n        return keccak256(type(AdaswapPair).creationCode);\n    }\n\n    function createPair(address tokenA, address tokenB) external returns (address pair) {\n        require(tokenA != tokenB, 'Adaswap: IDENTICAL_ADDRESSES');\n        (address token0, address token1) = tokenA < tokenB ? (tokenA, tokenB) : (tokenB, tokenA);\n        require(token0 != address(0), 'Adaswap: ZERO_ADDRESS');\n        require(getPair[token0][token1] == address(0), 'Adaswap: PAIR_EXISTS'); // single check is sufficient\n        bytes memory bytecode = type(AdaswapPair).creationCode;\n        bytes32 salt = keccak256(abi.encodePacked(token0, token1));\n        assembly {\n            pair := create2(0, add(bytecode, 32), mload(bytecode), salt)\n        }\n        IAdaswapPair(pair).initialize(token0, token1);\n        getPair[token0][token1] = pair;\n        getPair[token1][token0] = pair; // populate mapping in the reverse direction\n        allPairs.push(pair);\n        emit PairCreated(token0, token1, pair, allPairs.length);\n    }\n\n    function setFeeTo(address _feeTo) external {\n        require(msg.sender == feeToSetter, 'Adaswap: FORBIDDEN');\n        feeTo = _feeTo;\n    }\n\n    function setFeeToSetter(address _feeToSetter) external {\n        require(msg.sender == feeToSetter, 'Adaswap: FORBIDDEN');\n        feeToSetter = _feeToSetter;\n    }\n}\n",
  "sourcePath": "/home/dung/workspace/adaswap/core/contracts/AdaswapFactory.sol",
  "compiler": {
    "name": "solc",
    "version": "0.8.13+commit.abaa5c0e.Emscripten.clang"
  },
  "schemaVersion": "3.4.4",
  "updatedAt": "2022-06-07T11:48:56.256Z",
  "networkType": "ethereum",
  "devdoc": {
    "kind": "dev",
    "methods": {},
    "version": 1
  },
  "userdoc": {
    "kind": "user",
    "methods": {},
    "version": 1
  }
}