{
  "contractName": "ExampleSwapToPrice",
  "abi": [
    {
      "inputs": [
        {
          "internalType": "address",
          "name": "factory_",
          "type": "address"
        },
        {
          "internalType": "contract IUniswapV2Router01",
          "name": "router_",
          "type": "address"
        }
      ],
      "stateMutability": "nonpayable",
      "type": "constructor"
    },
    {
      "inputs": [],
      "name": "factory",
      "outputs": [
        {
          "internalType": "address",
          "name": "",
          "type": "address"
        }
      ],
      "stateMutability": "view",
      "type": "function"
    },
    {
      "inputs": [],
      "name": "router",
      "outputs": [
        {
          "internalType": "contract IUniswapV2Router01",
          "name": "",
          "type": "address"
        }
      ],
      "stateMutability": "view",
      "type": "function"
    },
    {
      "inputs": [
        {
          "internalType": "address",
          "name": "tokenA",
          "type": "address"
        },
        {
          "internalType": "address",
          "name": "tokenB",
          "type": "address"
        },
        {
          "internalType": "uint256",
          "name": "truePriceTokenA",
          "type": "uint256"
        },
        {
          "internalType": "uint256",
          "name": "truePriceTokenB",
          "type": "uint256"
        },
        {
          "internalType": "uint256",
          "name": "maxSpendTokenA",
          "type": "uint256"
        },
        {
          "internalType": "uint256",
          "name": "maxSpendTokenB",
          "type": "uint256"
        },
        {
          "internalType": "address",
          "name": "to",
          "type": "address"
        },
        {
          "internalType": "uint256",
          "name": "deadline",
          "type": "uint256"
        }
      ],
      "name": "swapToPrice",
      "outputs": [],
      "stateMutability": "nonpayable",
      "type": "function"
    }
  ],
  "bytecode": "0x60c06040523480156200001157600080fd5b506040516200217038038062002170833981810160405281019062000037919062000156565b8173ffffffffffffffffffffffffffffffffffffffff1660a08173ffffffffffffffffffffffffffffffffffffffff16815250508073ffffffffffffffffffffffffffffffffffffffff1660808173ffffffffffffffffffffffffffffffffffffffff168152505050506200019d565b600080fd5b600073ffffffffffffffffffffffffffffffffffffffff82169050919050565b6000620000d982620000ac565b9050919050565b620000eb81620000cc565b8114620000f757600080fd5b50565b6000815190506200010b81620000e0565b92915050565b60006200011e82620000cc565b9050919050565b620001308162000111565b81146200013c57600080fd5b50565b600081519050620001508162000125565b92915050565b6000806040838503121562000170576200016f620000a7565b5b60006200018085828601620000fa565b925050602062000193858286016200013f565b9150509250929050565b60805160a051611f98620001d86000396000818161014a01526103ec01526000818161021e0152818161033101526104100152611f986000f3fe608060405234801561001057600080fd5b50600436106100415760003560e01c8063bef90fd314610046578063c45a015514610062578063f887ea4014610080575b600080fd5b610060600480360381019061005b91906110bd565b61009e565b005b61006a6103ea565b6040516100779190611182565b60405180910390f35b61008861040e565b60405161009591906111fc565b60405180910390f35b600086141580156100b0575060008514155b6100ef576040517f08c379a00000000000000000000000000000000000000000000000000000000081526004016100e690611274565b60405180910390fd5b600084141580610100575060008314155b61013f576040517f08c379a0000000000000000000000000000000000000000000000000000000008152600401610136906112e0565b60405180910390fd5b6000806000806101707f00000000000000000000000000000000000000000000000000000000000000008d8d610432565b915091506101808a8a8484610535565b80945081955050505050600081116101cd576040517f08c379a00000000000000000000000000000000000000000000000000000000081526004016101c490611372565b60405180910390fd5b6000826101da57856101dc565b865b9050808211156101ea578091505b6000836101f7578a6101f9565b8b5b9050600084610208578c61020a565b8b5b905061021882333087610634565b610243827f00000000000000000000000000000000000000000000000000000000000000008661076d565b6000600267ffffffffffffffff8111156102605761025f611392565b5b60405190808252806020026020018201604052801561028e5781602001602082028036833780820191505090505b50905082816000815181106102a6576102a56113c1565b5b602002602001019073ffffffffffffffffffffffffffffffffffffffff16908173ffffffffffffffffffffffffffffffffffffffff168152505081816001815181106102f5576102f46113c1565b5b602002602001019073ffffffffffffffffffffffffffffffffffffffff16908173ffffffffffffffffffffffffffffffffffffffff16815250507f000000000000000000000000000000000000000000000000000000000000000073ffffffffffffffffffffffffffffffffffffffff166338ed1739866000848c8c6040518663ffffffff1660e01b81526004016103919594939291906114f8565b6000604051808303816000875af11580156103b0573d6000803e3d6000fd5b505050506040513d6000823e3d601f19601f820116820180604052508101906103d99190611691565b505050505050505050505050505050565b7f000000000000000000000000000000000000000000000000000000000000000081565b7f000000000000000000000000000000000000000000000000000000000000000081565b600080600061044185856108a3565b5090506000806104528888886109cf565b73ffffffffffffffffffffffffffffffffffffffff16630902f1ac6040518163ffffffff1660e01b8152600401606060405180830381865afa15801561049c573d6000803e3d6000fd5b505050506040513d601f19601f820116820180604052508101906104c0919061175c565b506dffffffffffffffffffffffffffff1691506dffffffffffffffffffffffffffff1691508273ffffffffffffffffffffffffffffffffffffffff168773ffffffffffffffffffffffffffffffffffffffff161461051f578082610522565b81815b8095508196505050505050935093915050565b60008085610544858786610a41565b109150600061055c8486610b0890919063ffffffff16565b905060006105b36105ae61057b6103e885610b0890919063ffffffff16565b866105865789610588565b8a5b6105a96103e589610599578d61059b565b8c5b610b0890919063ffffffff16565b610a41565b610b75565b905060006103e5856105d9576105d46103e888610b0890919063ffffffff16565b6105ef565b6105ee6103e889610b0890919063ffffffff16565b5b6105f9919061180d565b905080821015610612576000809450945050505061062b565b6106258183610d4090919063ffffffff16565b93505050505b94509492505050565b6000808573ffffffffffffffffffffffffffffffffffffffff166323b872dd8686866040516024016106689392919061183e565b6040516020818303038152906040529060e01b6020820180517bffffffffffffffffffffffffffffffffffffffffffffffffffffffff83818316178352505050506040516106b691906118ef565b6000604051808303816000865af19150503d80600081146106f3576040519150601f19603f3d011682016040523d82523d6000602084013e6106f8565b606091505b50915091508180156107265750600081511480610725575080806020019051810190610724919061193e565b5b5b610765576040517f08c379a000000000000000000000000000000000000000000000000000000000815260040161075c906119dd565b60405180910390fd5b505050505050565b6000808473ffffffffffffffffffffffffffffffffffffffff1663095ea7b3858560405160240161079f9291906119fd565b6040516020818303038152906040529060e01b6020820180517bffffffffffffffffffffffffffffffffffffffffffffffffffffffff83818316178352505050506040516107ed91906118ef565b6000604051808303816000865af19150503d806000811461082a576040519150601f19603f3d011682016040523d82523d6000602084013e61082f565b606091505b509150915081801561085d575060008151148061085c57508080602001905181019061085b919061193e565b5b5b61089c576040517f08c379a000000000000000000000000000000000000000000000000000000000815260040161089390611a98565b60405180910390fd5b5050505050565b6000808273ffffffffffffffffffffffffffffffffffffffff168473ffffffffffffffffffffffffffffffffffffffff1603610914576040517f08c379a000000000000000000000000000000000000000000000000000000000815260040161090b90611b2a565b60405180910390fd5b8273ffffffffffffffffffffffffffffffffffffffff168473ffffffffffffffffffffffffffffffffffffffff161061094e578284610951565b83835b8092508193505050600073ffffffffffffffffffffffffffffffffffffffff168273ffffffffffffffffffffffffffffffffffffffff16036109c8576040517f08c379a00000000000000000000000000000000000000000000000000000000081526004016109bf90611b96565b60405180910390fd5b9250929050565b60008060006109de85856108a3565b915091508582826040516020016109f6929190611bfe565b60405160208183030381529060405280519060200120604051602001610a1d929190611cf8565b6040516020818303038152906040528051906020012060001c925050509392505050565b6000806000610a508686610d99565b9150915060008480610a6557610a646117af565b5b868809905082811115610a8257600182610a7f9190611d3a565b91505b8083610a8e9190611d3a565b925060008203610aae578483610aa4919061180d565b9350505050610b01565b848210610af0576040517f08c379a0000000000000000000000000000000000000000000000000000000008152600401610ae790611dba565b60405180910390fd5b610afb838387610e0e565b93505050505b9392505050565b600080821480610b30575082828385610b219190611dda565b925082610b2e919061180d565b145b610b6f576040517f08c379a0000000000000000000000000000000000000000000000000000000008152600401610b6690611e80565b60405180910390fd5b92915050565b6000808203610b875760009050610d3b565b60008290506000600190507001000000000000000000000000000000008210610bb957608082901c9150604081901b90505b680100000000000000008210610bd857604082901c9150602081901b90505b6401000000008210610bf357602082901c9150601081901b90505b620100008210610c0c57601082901c9150600881901b90505b6101008210610c2457600882901c9150600481901b90505b60108210610c3b57600482901c9150600281901b90505b60088210610c4b57600181901b90505b60018185610c59919061180d565b82610c649190611ea0565b901c905060018185610c76919061180d565b82610c819190611ea0565b901c905060018185610c93919061180d565b82610c9e9190611ea0565b901c905060018185610cb0919061180d565b82610cbb9190611ea0565b901c905060018185610ccd919061180d565b82610cd89190611ea0565b901c905060018185610cea919061180d565b82610cf59190611ea0565b901c905060018185610d07919061180d565b82610d129190611ea0565b901c905060008185610d24919061180d565b9050808210610d335780610d35565b815b93505050505b919050565b6000828284610d4f9190611d3a565b9150811115610d93576040517f08c379a0000000000000000000000000000000000000000000000000000000008152600401610d8a90611f42565b60405180910390fd5b92915050565b60008060007fffffffffffffffffffffffffffffffffffffffffffffffffffffffffffffffff80610dcd57610dcc6117af565b5b84860990508385610dde9190611dda565b92508281610dec9190611d3a565b915082811015610e0657600182610e039190611d3a565b91505b509250929050565b6000806001837fffffffffffffffffffffffffffffffffffffffffffffffffffffffffffffffff610e3f9190611d3a565b610e499190611ea0565b831690508083610e59919061180d565b92508085610e67919061180d565b94506001816001837fffffffffffffffffffffffffffffffffffffffffffffffffffffffffffffffff610e9a9190611d3a565b610ea49190611ea0565b610eae919061180d565b610eb89190611ea0565b84610ec39190611dda565b85610ece9190611ea0565b94506000600190508084610ee29190611dda565b6002610eee9190611d3a565b81610ef99190611dda565b90508084610f079190611dda565b6002610f139190611d3a565b81610f1e9190611dda565b90508084610f2c9190611dda565b6002610f389190611d3a565b81610f439190611dda565b90508084610f519190611dda565b6002610f5d9190611d3a565b81610f689190611dda565b90508084610f769190611dda565b6002610f829190611d3a565b81610f8d9190611dda565b90508084610f9b9190611dda565b6002610fa79190611d3a565b81610fb29190611dda565b90508084610fc09190611dda565b6002610fcc9190611d3a565b81610fd79190611dda565b90508084610fe59190611dda565b6002610ff19190611d3a565b81610ffc9190611dda565b9050808661100a9190611dda565b925050509392505050565b6000604051905090565b600080fd5b600080fd5b600073ffffffffffffffffffffffffffffffffffffffff82169050919050565b600061105482611029565b9050919050565b61106481611049565b811461106f57600080fd5b50565b6000813590506110818161105b565b92915050565b6000819050919050565b61109a81611087565b81146110a557600080fd5b50565b6000813590506110b781611091565b92915050565b600080600080600080600080610100898b0312156110de576110dd61101f565b5b60006110ec8b828c01611072565b98505060206110fd8b828c01611072565b975050604061110e8b828c016110a8565b965050606061111f8b828c016110a8565b95505060806111308b828c016110a8565b94505060a06111418b828c016110a8565b93505060c06111528b828c01611072565b92505060e06111638b828c016110a8565b9150509295985092959890939650565b61117c81611049565b82525050565b60006020820190506111976000830184611173565b92915050565b6000819050919050565b60006111c26111bd6111b884611029565b61119d565b611029565b9050919050565b60006111d4826111a7565b9050919050565b60006111e6826111c9565b9050919050565b6111f6816111db565b82525050565b600060208201905061121160008301846111ed565b92915050565b600082825260208201905092915050565b7f4578616d706c6553776170546f50726963653a205a45524f5f50524943450000600082015250565b600061125e601e83611217565b915061126982611228565b602082019050919050565b6000602082019050818103600083015261128d81611251565b9050919050565b7f4578616d706c6553776170546f50726963653a205a45524f5f5350454e440000600082015250565b60006112ca601e83611217565b91506112d582611294565b602082019050919050565b600060208201905081810360008301526112f9816112bd565b9050919050565b7f4578616d706c6553776170546f50726963653a205a45524f5f414d4f554e545f60008201527f494e000000000000000000000000000000000000000000000000000000000000602082015250565b600061135c602283611217565b915061136782611300565b604082019050919050565b6000602082019050818103600083015261138b8161134f565b9050919050565b7f4e487b7100000000000000000000000000000000000000000000000000000000600052604160045260246000fd5b7f4e487b7100000000000000000000000000000000000000000000000000000000600052603260045260246000fd5b6113f981611087565b82525050565b6000819050919050565b600061142461141f61141a846113ff565b61119d565b611087565b9050919050565b61143481611409565b82525050565b600081519050919050565b600082825260208201905092915050565b6000819050602082019050919050565b61146f81611049565b82525050565b60006114818383611466565b60208301905092915050565b6000602082019050919050565b60006114a58261143a565b6114af8185611445565b93506114ba83611456565b8060005b838110156114eb5781516114d28882611475565b97506114dd8361148d565b9250506001810190506114be565b5085935050505092915050565b600060a08201905061150d60008301886113f0565b61151a602083018761142b565b818103604083015261152c818661149a565b905061153b6060830185611173565b61154860808301846113f0565b9695505050505050565b600080fd5b6000601f19601f8301169050919050565b61157182611557565b810181811067ffffffffffffffff821117156115905761158f611392565b5b80604052505050565b60006115a3611015565b90506115af8282611568565b919050565b600067ffffffffffffffff8211156115cf576115ce611392565b5b602082029050602081019050919050565b600080fd5b6000815190506115f481611091565b92915050565b600061160d611608846115b4565b611599565b905080838252602082019050602084028301858111156116305761162f6115e0565b5b835b81811015611659578061164588826115e5565b845260208401935050602081019050611632565b5050509392505050565b600082601f83011261167857611677611552565b5b81516116888482602086016115fa565b91505092915050565b6000602082840312156116a7576116a661101f565b5b600082015167ffffffffffffffff8111156116c5576116c4611024565b5b6116d184828501611663565b91505092915050565b60006dffffffffffffffffffffffffffff82169050919050565b6116fd816116da565b811461170857600080fd5b50565b60008151905061171a816116f4565b92915050565b600063ffffffff82169050919050565b61173981611720565b811461174457600080fd5b50565b60008151905061175681611730565b92915050565b6000806000606084860312156117755761177461101f565b5b60006117838682870161170b565b93505060206117948682870161170b565b92505060406117a586828701611747565b9150509250925092565b7f4e487b7100000000000000000000000000000000000000000000000000000000600052601260045260246000fd5b7f4e487b7100000000000000000000000000000000000000000000000000000000600052601160045260246000fd5b600061181882611087565b915061182383611087565b925082611833576118326117af565b5b828204905092915050565b60006060820190506118536000830186611173565b6118606020830185611173565b61186d60408301846113f0565b949350505050565b600081519050919050565b600081905092915050565b60005b838110156118a957808201518184015260208101905061188e565b838111156118b8576000848401525b50505050565b60006118c982611875565b6118d38185611880565b93506118e381856020860161188b565b80840191505092915050565b60006118fb82846118be565b915081905092915050565b60008115159050919050565b61191b81611906565b811461192657600080fd5b50565b60008151905061193881611912565b92915050565b6000602082840312156119545761195361101f565b5b600061196284828501611929565b91505092915050565b7f5472616e7366657248656c7065723a3a7472616e7366657246726f6d3a20747260008201527f616e7366657246726f6d206661696c6564000000000000000000000000000000602082015250565b60006119c7603183611217565b91506119d28261196b565b604082019050919050565b600060208201905081810360008301526119f6816119ba565b9050919050565b6000604082019050611a126000830185611173565b611a1f60208301846113f0565b9392505050565b7f5472616e7366657248656c7065723a3a73616665417070726f76653a2061707060008201527f726f7665206661696c6564000000000000000000000000000000000000000000602082015250565b6000611a82602b83611217565b9150611a8d82611a26565b604082019050919050565b60006020820190508181036000830152611ab181611a75565b9050919050565b7f556e697377617056324c6962726172793a204944454e544943414c5f4144445260008201527f4553534553000000000000000000000000000000000000000000000000000000602082015250565b6000611b14602583611217565b9150611b1f82611ab8565b604082019050919050565b60006020820190508181036000830152611b4381611b07565b9050919050565b7f556e697377617056324c6962726172793a205a45524f5f414444524553530000600082015250565b6000611b80601e83611217565b9150611b8b82611b4a565b602082019050919050565b60006020820190508181036000830152611baf81611b73565b9050919050565b60008160601b9050919050565b6000611bce82611bb6565b9050919050565b6000611be082611bc3565b9050919050565b611bf8611bf382611049565b611bd5565b82525050565b6000611c0a8285611be7565b601482019150611c1a8284611be7565b6014820191508190509392505050565b600081905092915050565b7fff00000000000000000000000000000000000000000000000000000000000000600082015250565b6000611c6b600183611c2a565b9150611c7682611c35565b600182019050919050565b6000819050919050565b6000819050919050565b611ca6611ca182611c81565b611c8b565b82525050565b7f96e8ac4277198ff8b6f785478aa9a39f403cb768dd02cbee326c3e7da348845f600082015250565b6000611ce2602083611c2a565b9150611ced82611cac565b602082019050919050565b6000611d0382611c5e565b9150611d0f8285611be7565b601482019150611d1f8284611c95565b602082019150611d2e82611cd5565b91508190509392505050565b6000611d4582611087565b9150611d5083611087565b925082821015611d6357611d626117de565b5b828203905092915050565b7f46756c6c4d6174683a2046554c4c4449565f4f564552464c4f57000000000000600082015250565b6000611da4601a83611217565b9150611daf82611d6e565b602082019050919050565b60006020820190508181036000830152611dd381611d97565b9050919050565b6000611de582611087565b9150611df083611087565b9250817fffffffffffffffffffffffffffffffffffffffffffffffffffffffffffffffff0483118215151615611e2957611e286117de565b5b828202905092915050565b7f64732d6d6174682d6d756c2d6f766572666c6f77000000000000000000000000600082015250565b6000611e6a601483611217565b9150611e7582611e34565b602082019050919050565b60006020820190508181036000830152611e9981611e5d565b9050919050565b6000611eab82611087565b9150611eb683611087565b9250827fffffffffffffffffffffffffffffffffffffffffffffffffffffffffffffffff03821115611eeb57611eea6117de565b5b828201905092915050565b7f64732d6d6174682d7375622d756e646572666c6f770000000000000000000000600082015250565b6000611f2c601583611217565b9150611f3782611ef6565b602082019050919050565b60006020820190508181036000830152611f5b81611f1f565b905091905056fea2646970667358221220432c948b85af5a2e27b9d0cb13193fb30b51b4a4ef7eb8af0c6a1936a97a1c1f64736f6c634300080d0033",
  "immutableReferences": {
    "6909": [
      {
        "length": 32,
        "start": 542
      },
      {
        "length": 32,
        "start": 817
      },
      {
        "length": 32,
        "start": 1040
      }
    ],
    "6911": [
      {
        "length": 32,
        "start": 330
      },
      {
        "length": 32,
        "start": 1004
      }
    ]
  },
  "source": "pragma solidity >=0.8.13;\n\nimport '@uniswap/v2-core/contracts/interfaces/IUniswapV2Pair.sol';\nimport '../@dungvan/adaswap-libraries/contracts/libraries/Babylonian.sol';\nimport '../@dungvan/adaswap-libraries/contracts/libraries/TransferHelper.sol';\n\nimport '../libraries/UniswapV2LiquidityMathLibrary.sol';\nimport '../interfaces/IERC20.sol';\nimport '../interfaces/IUniswapV2Router01.sol';\nimport '../libraries/SafeMath.sol';\nimport '../libraries/UniswapV2Library.sol';\n\ncontract ExampleSwapToPrice {\n    using SafeMath for uint256;\n\n    IUniswapV2Router01 public immutable router;\n    address public immutable factory;\n\n    constructor(address factory_, IUniswapV2Router01 router_) {\n        factory = factory_;\n        router = router_;\n    }\n\n    // swaps an amount of either token such that the trade is profit-maximizing, given an external true price\n    // true price is expressed in the ratio of token A to token B\n    // caller must approve this contract to spend whichever token is intended to be swapped\n    function swapToPrice(\n        address tokenA,\n        address tokenB,\n        uint256 truePriceTokenA,\n        uint256 truePriceTokenB,\n        uint256 maxSpendTokenA,\n        uint256 maxSpendTokenB,\n        address to,\n        uint256 deadline\n    ) public {\n        // true price is expressed as a ratio, so both values must be non-zero\n        require(truePriceTokenA != 0 && truePriceTokenB != 0, \"ExampleSwapToPrice: ZERO_PRICE\");\n        // caller can specify 0 for either if they wish to swap in only one direction, but not both\n        require(maxSpendTokenA != 0 || maxSpendTokenB != 0, \"ExampleSwapToPrice: ZERO_SPEND\");\n\n        bool aToB;\n        uint256 amountIn;\n        {\n            (uint256 reserveA, uint256 reserveB) = UniswapV2Library.getReserves(factory, tokenA, tokenB);\n            (aToB, amountIn) = UniswapV2LiquidityMathLibrary.computeProfitMaximizingTrade(\n                truePriceTokenA, truePriceTokenB,\n                reserveA, reserveB\n            );\n        }\n\n        require(amountIn > 0, 'ExampleSwapToPrice: ZERO_AMOUNT_IN');\n\n        // spend up to the allowance of the token in\n        uint256 maxSpend = aToB ? maxSpendTokenA : maxSpendTokenB;\n        if (amountIn > maxSpend) {\n            amountIn = maxSpend;\n        }\n\n        address tokenIn = aToB ? tokenA : tokenB;\n        address tokenOut = aToB ? tokenB : tokenA;\n        TransferHelper.safeTransferFrom(tokenIn, msg.sender, address(this), amountIn);\n        TransferHelper.safeApprove(tokenIn, address(router), amountIn);\n\n        address[] memory path = new address[](2);\n        path[0] = tokenIn;\n        path[1] = tokenOut;\n\n        router.swapExactTokensForTokens(\n            amountIn,\n            0, // amountOutMin: we can skip computing this number because the math is tested\n            path,\n            to,\n            deadline\n        );\n    }\n}\n",
  "sourcePath": "/home/dung/workspace/adaswap/adaswap-periphery/contracts/examples/ExampleSwapToPrice.sol",
  "compiler": {
    "name": "solc",
    "version": "0.8.13+commit.abaa5c0e.Emscripten.clang"
  },
  "schemaVersion": "3.4.4",
  "updatedAt": "2022-03-18T15:20:40.722Z",
  "devdoc": {
    "kind": "dev",
    "methods": {},
    "version": 1
  },
  "userdoc": {
    "kind": "user",
    "methods": {},
    "version": 1
  }
}