{
  "contractName": "ExampleComputeLiquidityValue",
  "abi": [
    {
      "inputs": [
        {
          "internalType": "address",
          "name": "factory_",
          "type": "address"
        }
      ],
      "stateMutability": "nonpayable",
      "type": "constructor"
    },
    {
      "inputs": [],
      "name": "factory",
      "outputs": [
        {
          "internalType": "address",
          "name": "",
          "type": "address"
        }
      ],
      "stateMutability": "view",
      "type": "function"
    },
    {
      "inputs": [
        {
          "internalType": "address",
          "name": "tokenA",
          "type": "address"
        },
        {
          "internalType": "address",
          "name": "tokenB",
          "type": "address"
        },
        {
          "internalType": "uint256",
          "name": "truePriceTokenA",
          "type": "uint256"
        },
        {
          "internalType": "uint256",
          "name": "truePriceTokenB",
          "type": "uint256"
        }
      ],
      "name": "getReservesAfterArbitrage",
      "outputs": [
        {
          "internalType": "uint256",
          "name": "reserveA",
          "type": "uint256"
        },
        {
          "internalType": "uint256",
          "name": "reserveB",
          "type": "uint256"
        }
      ],
      "stateMutability": "view",
      "type": "function"
    },
    {
      "inputs": [
        {
          "internalType": "address",
          "name": "tokenA",
          "type": "address"
        },
        {
          "internalType": "address",
          "name": "tokenB",
          "type": "address"
        },
        {
          "internalType": "uint256",
          "name": "liquidityAmount",
          "type": "uint256"
        }
      ],
      "name": "getLiquidityValue",
      "outputs": [
        {
          "internalType": "uint256",
          "name": "tokenAAmount",
          "type": "uint256"
        },
        {
          "internalType": "uint256",
          "name": "tokenBAmount",
          "type": "uint256"
        }
      ],
      "stateMutability": "view",
      "type": "function"
    },
    {
      "inputs": [
        {
          "internalType": "address",
          "name": "tokenA",
          "type": "address"
        },
        {
          "internalType": "address",
          "name": "tokenB",
          "type": "address"
        },
        {
          "internalType": "uint256",
          "name": "truePriceTokenA",
          "type": "uint256"
        },
        {
          "internalType": "uint256",
          "name": "truePriceTokenB",
          "type": "uint256"
        },
        {
          "internalType": "uint256",
          "name": "liquidityAmount",
          "type": "uint256"
        }
      ],
      "name": "getLiquidityValueAfterArbitrageToPrice",
      "outputs": [
        {
          "internalType": "uint256",
          "name": "tokenAAmount",
          "type": "uint256"
        },
        {
          "internalType": "uint256",
          "name": "tokenBAmount",
          "type": "uint256"
        }
      ],
      "stateMutability": "view",
      "type": "function"
    },
    {
      "inputs": [
        {
          "internalType": "address",
          "name": "tokenA",
          "type": "address"
        },
        {
          "internalType": "address",
          "name": "tokenB",
          "type": "address"
        },
        {
          "internalType": "uint256",
          "name": "truePriceTokenA",
          "type": "uint256"
        },
        {
          "internalType": "uint256",
          "name": "truePriceTokenB",
          "type": "uint256"
        },
        {
          "internalType": "uint256",
          "name": "liquidityAmount",
          "type": "uint256"
        }
      ],
      "name": "getGasCostOfGetLiquidityValueAfterArbitrageToPrice",
      "outputs": [
        {
          "internalType": "uint256",
          "name": "",
          "type": "uint256"
        }
      ],
      "stateMutability": "view",
      "type": "function"
    }
  ],
  "bytecode": "0x60a06040523480156200001157600080fd5b5060405162002062380380620020628339818101604052810190620000379190620000dc565b8073ffffffffffffffffffffffffffffffffffffffff1660808173ffffffffffffffffffffffffffffffffffffffff1681525050506200010e565b600080fd5b600073ffffffffffffffffffffffffffffffffffffffff82169050919050565b6000620000a48262000077565b9050919050565b620000b68162000097565b8114620000c257600080fd5b50565b600081519050620000d681620000ab565b92915050565b600060208284031215620000f557620000f462000072565b5b60006200010584828501620000c5565b91505092915050565b608051611f1c620001466000396000818161014501528181610182015281816101c40152818161020f01526102390152611f1c6000f3fe608060405234801561001057600080fd5b50600436106100575760003560e01c80633558e94c1461005c57806369a2fcbd1461008d57806380caa353146100be578063c45a0155146100ee578063d9b7a6e71461010c575b600080fd5b610076600480360381019061007191906113dd565b61013d565b604051610084929190611453565b60405180910390f35b6100a760048036038101906100a2919061147c565b61017a565b6040516100b5929190611453565b60405180910390f35b6100d860048036038101906100d3919061147c565b6101b9565b6040516100e591906114f7565b60405180910390f35b6100f661020d565b6040516101039190611521565b60405180910390f35b6101266004803603810190610121919061153c565b610231565b604051610134929190611453565b60405180910390f35b60008061016d7f00000000000000000000000000000000000000000000000000000000000000008787878761026c565b9150915094509492505050565b6000806101ab7f00000000000000000000000000000000000000000000000000000000000000008888888888610364565b915091509550959350505050565b6000805a90506101ed7f00000000000000000000000000000000000000000000000000000000000000008888888888610364565b505060005a9050808261020091906115be565b9250505095945050505050565b7f000000000000000000000000000000000000000000000000000000000000000081565b6000806102607f0000000000000000000000000000000000000000000000000000000000000000868686610591565b91509150935093915050565b60008061027a87878761076b565b80925081935050506000821180156102925750600081115b6102d1576040517f08c379a00000000000000000000000000000000000000000000000000000000081526004016102c890611675565b60405180910390fd5b6000806102e08686868661086e565b91509150600081036102f357505061035a565b811561032a57600061030682868661096d565b905081856103149190611695565b9450808461032291906115be565b935050610357565b600061033782858761096d565b905081846103459190611695565b9350808561035391906115be565b9450505b50505b9550959350505050565b60008060008073ffffffffffffffffffffffffffffffffffffffff168973ffffffffffffffffffffffffffffffffffffffff1663017e7e586040518163ffffffff1660e01b8152600401602060405180830381865afa1580156103cb573d6000803e3d6000fd5b505050506040513d601f19601f820116820180604052508101906103ef9190611700565b73ffffffffffffffffffffffffffffffffffffffff161415905060006104168a8a8a610a73565b9050600082610426576000610496565b8173ffffffffffffffffffffffffffffffffffffffff16637464fc3d6040518163ffffffff1660e01b8152600401602060405180830381865afa158015610471573d6000803e3d6000fd5b505050506040513d601f19601f820116820180604052508101906104959190611742565b5b905060008273ffffffffffffffffffffffffffffffffffffffff166318160ddd6040518163ffffffff1660e01b8152600401602060405180830381865afa1580156104e5573d6000803e3d6000fd5b505050506040513d601f19601f820116820180604052508101906105099190611742565b905086811015801561051b5750600087115b61055a576040517f08c379a0000000000000000000000000000000000000000000000000000000008152600401610551906117e1565b60405180910390fd5b60008061056a8e8e8e8e8e61026c565b9150915061057c8282858c8a89610ae5565b97509750505050505050965096945050505050565b6000806000806105a288888861076b565b9150915060006105b3898989610a73565b905060008073ffffffffffffffffffffffffffffffffffffffff168a73ffffffffffffffffffffffffffffffffffffffff1663017e7e586040518163ffffffff1660e01b8152600401602060405180830381865afa158015610619573d6000803e3d6000fd5b505050506040513d601f19601f8201168201806040525081019061063d9190611700565b73ffffffffffffffffffffffffffffffffffffffff16141590506000816106655760006106d5565b8273ffffffffffffffffffffffffffffffffffffffff16637464fc3d6040518163ffffffff1660e01b8152600401602060405180830381865afa1580156106b0573d6000803e3d6000fd5b505050506040513d601f19601f820116820180604052508101906106d49190611742565b5b905060008373ffffffffffffffffffffffffffffffffffffffff166318160ddd6040518163ffffffff1660e01b8152600401602060405180830381865afa158015610724573d6000803e3d6000fd5b505050506040513d601f19601f820116820180604052508101906107489190611742565b90506107588686838c8787610ae5565b9750975050505050505094509492505050565b600080600061077a8585610beb565b50905060008061078b888888610a73565b73ffffffffffffffffffffffffffffffffffffffff16630902f1ac6040518163ffffffff1660e01b8152600401606060405180830381865afa1580156107d5573d6000803e3d6000fd5b505050506040513d601f19601f820116820180604052508101906107f99190611883565b506dffffffffffffffffffffffffffff1691506dffffffffffffffffffffffffffff1691508273ffffffffffffffffffffffffffffffffffffffff168773ffffffffffffffffffffffffffffffffffffffff161461085857808261085b565b81815b8095508196505050505050935093915050565b6000808561087d858786610d17565b10915060006108958486610dde90919063ffffffff16565b905060006108ec6108e76108b46103e885610dde90919063ffffffff16565b866108bf57896108c1565b8a5b6108e26103e5896108d2578d6108d4565b8c5b610dde90919063ffffffff16565b610d17565b610e4b565b905060006103e5856109125761090d6103e888610dde90919063ffffffff16565b610928565b6109276103e889610dde90919063ffffffff16565b5b6109329190611905565b90508082101561094b5760008094509450505050610964565b61095e818361101690919063ffffffff16565b93505050505b94509492505050565b60008084116109b1576040517f08c379a00000000000000000000000000000000000000000000000000000000081526004016109a8906119a8565b60405180910390fd5b6000831180156109c15750600082115b610a00576040517f08c379a00000000000000000000000000000000000000000000000000000000081526004016109f790611a3a565b60405180910390fd5b6000610a176103e586610dde90919063ffffffff16565b90506000610a2e8483610dde90919063ffffffff16565b90506000610a5983610a4b6103e889610dde90919063ffffffff16565b61106f90919063ffffffff16565b90508082610a679190611905565b93505050509392505050565b6000806000610a828585610beb565b91509150858282604051602001610a9a929190611aa2565b60405160208183030381529060405280519060200120604051602001610ac1929190611b9c565b6040516020818303038152906040528051906020012060001c925050509392505050565b600080838015610af55750600083115b15610ba0576000610b17610b12898b610dde90919063ffffffff16565b610e4b565b90506000610b2485610e4b565b905080821115610b9d5760008890506000610b48838561101690919063ffffffff16565b90506000610b7284610b64600588610dde90919063ffffffff16565b61106f90919063ffffffff16565b90506000610b81848484610d17565b9050610b96818d61106f90919063ffffffff16565b9b50505050505b50505b85610bb4868a610dde90919063ffffffff16565b610bbe9190611905565b86610bd2878a610dde90919063ffffffff16565b610bdc9190611905565b91509150965096945050505050565b6000808273ffffffffffffffffffffffffffffffffffffffff168473ffffffffffffffffffffffffffffffffffffffff1603610c5c576040517f08c379a0000000000000000000000000000000000000000000000000000000008152600401610c5390611c50565b60405180910390fd5b8273ffffffffffffffffffffffffffffffffffffffff168473ffffffffffffffffffffffffffffffffffffffff1610610c96578284610c99565b83835b8092508193505050600073ffffffffffffffffffffffffffffffffffffffff168273ffffffffffffffffffffffffffffffffffffffff1603610d10576040517f08c379a0000000000000000000000000000000000000000000000000000000008152600401610d0790611cbc565b60405180910390fd5b9250929050565b6000806000610d2686866110c8565b9150915060008480610d3b57610d3a6118d6565b5b868809905082811115610d5857600182610d5591906115be565b91505b8083610d6491906115be565b925060008203610d84578483610d7a9190611905565b9350505050610dd7565b848210610dc6576040517f08c379a0000000000000000000000000000000000000000000000000000000008152600401610dbd90611d28565b60405180910390fd5b610dd183838761113d565b93505050505b9392505050565b600080821480610e06575082828385610df79190611d48565b925082610e049190611905565b145b610e45576040517f08c379a0000000000000000000000000000000000000000000000000000000008152600401610e3c90611dee565b60405180910390fd5b92915050565b6000808203610e5d5760009050611011565b60008290506000600190507001000000000000000000000000000000008210610e8f57608082901c9150604081901b90505b680100000000000000008210610eae57604082901c9150602081901b90505b6401000000008210610ec957602082901c9150601081901b90505b620100008210610ee257601082901c9150600881901b90505b6101008210610efa57600882901c9150600481901b90505b60108210610f1157600482901c9150600281901b90505b60088210610f2157600181901b90505b60018185610f2f9190611905565b82610f3a9190611695565b901c905060018185610f4c9190611905565b82610f579190611695565b901c905060018185610f699190611905565b82610f749190611695565b901c905060018185610f869190611905565b82610f919190611695565b901c905060018185610fa39190611905565b82610fae9190611695565b901c905060018185610fc09190611905565b82610fcb9190611695565b901c905060018185610fdd9190611905565b82610fe89190611695565b901c905060008185610ffa9190611905565b9050808210611009578061100b565b815b93505050505b919050565b600082828461102591906115be565b9150811115611069576040517f08c379a000000000000000000000000000000000000000000000000000000000815260040161106090611e5a565b60405180910390fd5b92915050565b600082828461107e9190611695565b91508110156110c2576040517f08c379a00000000000000000000000000000000000000000000000000000000081526004016110b990611ec6565b60405180910390fd5b92915050565b60008060007fffffffffffffffffffffffffffffffffffffffffffffffffffffffffffffffff806110fc576110fb6118d6565b5b8486099050838561110d9190611d48565b9250828161111b91906115be565b9150828110156111355760018261113291906115be565b91505b509250929050565b6000806001837fffffffffffffffffffffffffffffffffffffffffffffffffffffffffffffffff61116e91906115be565b6111789190611695565b8316905080836111889190611905565b925080856111969190611905565b94506001816001837fffffffffffffffffffffffffffffffffffffffffffffffffffffffffffffffff6111c991906115be565b6111d39190611695565b6111dd9190611905565b6111e79190611695565b846111f29190611d48565b856111fd9190611695565b945060006001905080846112119190611d48565b600261121d91906115be565b816112289190611d48565b905080846112369190611d48565b600261124291906115be565b8161124d9190611d48565b9050808461125b9190611d48565b600261126791906115be565b816112729190611d48565b905080846112809190611d48565b600261128c91906115be565b816112979190611d48565b905080846112a59190611d48565b60026112b191906115be565b816112bc9190611d48565b905080846112ca9190611d48565b60026112d691906115be565b816112e19190611d48565b905080846112ef9190611d48565b60026112fb91906115be565b816113069190611d48565b905080846113149190611d48565b600261132091906115be565b8161132b9190611d48565b905080866113399190611d48565b925050509392505050565b600080fd5b600073ffffffffffffffffffffffffffffffffffffffff82169050919050565b600061137482611349565b9050919050565b61138481611369565b811461138f57600080fd5b50565b6000813590506113a18161137b565b92915050565b6000819050919050565b6113ba816113a7565b81146113c557600080fd5b50565b6000813590506113d7816113b1565b92915050565b600080600080608085870312156113f7576113f6611344565b5b600061140587828801611392565b945050602061141687828801611392565b9350506040611427878288016113c8565b9250506060611438878288016113c8565b91505092959194509250565b61144d816113a7565b82525050565b60006040820190506114686000830185611444565b6114756020830184611444565b9392505050565b600080600080600060a0868803121561149857611497611344565b5b60006114a688828901611392565b95505060206114b788828901611392565b94505060406114c8888289016113c8565b93505060606114d9888289016113c8565b92505060806114ea888289016113c8565b9150509295509295909350565b600060208201905061150c6000830184611444565b92915050565b61151b81611369565b82525050565b60006020820190506115366000830184611512565b92915050565b60008060006060848603121561155557611554611344565b5b600061156386828701611392565b935050602061157486828701611392565b9250506040611585868287016113c8565b9150509250925092565b7f4e487b7100000000000000000000000000000000000000000000000000000000600052601160045260246000fd5b60006115c9826113a7565b91506115d4836113a7565b9250828210156115e7576115e661158f565b5b828203905092915050565b600082825260208201905092915050565b7f556e697377617056324172626974726167654c6962726172793a205a45524f5f60008201527f504149525f524553455256455300000000000000000000000000000000000000602082015250565b600061165f602d836115f2565b915061166a82611603565b604082019050919050565b6000602082019050818103600083015261168e81611652565b9050919050565b60006116a0826113a7565b91506116ab836113a7565b9250827fffffffffffffffffffffffffffffffffffffffffffffffffffffffffffffffff038211156116e0576116df61158f565b5b828201905092915050565b6000815190506116fa8161137b565b92915050565b60006020828403121561171657611715611344565b5b6000611724848285016116eb565b91505092915050565b60008151905061173c816113b1565b92915050565b60006020828403121561175857611757611344565b5b60006117668482850161172d565b91505092915050565b7f436f6d707574654c697175696469747956616c75653a204c495155494449545960008201527f5f414d4f554e5400000000000000000000000000000000000000000000000000602082015250565b60006117cb6027836115f2565b91506117d68261176f565b604082019050919050565b600060208201905081810360008301526117fa816117be565b9050919050565b60006dffffffffffffffffffffffffffff82169050919050565b61182481611801565b811461182f57600080fd5b50565b6000815190506118418161181b565b92915050565b600063ffffffff82169050919050565b61186081611847565b811461186b57600080fd5b50565b60008151905061187d81611857565b92915050565b60008060006060848603121561189c5761189b611344565b5b60006118aa86828701611832565b93505060206118bb86828701611832565b92505060406118cc8682870161186e565b9150509250925092565b7f4e487b7100000000000000000000000000000000000000000000000000000000600052601260045260246000fd5b6000611910826113a7565b915061191b836113a7565b92508261192b5761192a6118d6565b5b828204905092915050565b7f556e697377617056324c6962726172793a20494e53554646494349454e545f4960008201527f4e5055545f414d4f554e54000000000000000000000000000000000000000000602082015250565b6000611992602b836115f2565b915061199d82611936565b604082019050919050565b600060208201905081810360008301526119c181611985565b9050919050565b7f556e697377617056324c6962726172793a20494e53554646494349454e545f4c60008201527f4951554944495459000000000000000000000000000000000000000000000000602082015250565b6000611a246028836115f2565b9150611a2f826119c8565b604082019050919050565b60006020820190508181036000830152611a5381611a17565b9050919050565b60008160601b9050919050565b6000611a7282611a5a565b9050919050565b6000611a8482611a67565b9050919050565b611a9c611a9782611369565b611a79565b82525050565b6000611aae8285611a8b565b601482019150611abe8284611a8b565b6014820191508190509392505050565b600081905092915050565b7fff00000000000000000000000000000000000000000000000000000000000000600082015250565b6000611b0f600183611ace565b9150611b1a82611ad9565b600182019050919050565b6000819050919050565b6000819050919050565b611b4a611b4582611b25565b611b2f565b82525050565b7f96e8ac4277198ff8b6f785478aa9a39f403cb768dd02cbee326c3e7da348845f600082015250565b6000611b86602083611ace565b9150611b9182611b50565b602082019050919050565b6000611ba782611b02565b9150611bb38285611a8b565b601482019150611bc38284611b39565b602082019150611bd282611b79565b91508190509392505050565b7f556e697377617056324c6962726172793a204944454e544943414c5f4144445260008201527f4553534553000000000000000000000000000000000000000000000000000000602082015250565b6000611c3a6025836115f2565b9150611c4582611bde565b604082019050919050565b60006020820190508181036000830152611c6981611c2d565b9050919050565b7f556e697377617056324c6962726172793a205a45524f5f414444524553530000600082015250565b6000611ca6601e836115f2565b9150611cb182611c70565b602082019050919050565b60006020820190508181036000830152611cd581611c99565b9050919050565b7f46756c6c4d6174683a2046554c4c4449565f4f564552464c4f57000000000000600082015250565b6000611d12601a836115f2565b9150611d1d82611cdc565b602082019050919050565b60006020820190508181036000830152611d4181611d05565b9050919050565b6000611d53826113a7565b9150611d5e836113a7565b9250817fffffffffffffffffffffffffffffffffffffffffffffffffffffffffffffffff0483118215151615611d9757611d9661158f565b5b828202905092915050565b7f64732d6d6174682d6d756c2d6f766572666c6f77000000000000000000000000600082015250565b6000611dd86014836115f2565b9150611de382611da2565b602082019050919050565b60006020820190508181036000830152611e0781611dcb565b9050919050565b7f64732d6d6174682d7375622d756e646572666c6f770000000000000000000000600082015250565b6000611e446015836115f2565b9150611e4f82611e0e565b602082019050919050565b60006020820190508181036000830152611e7381611e37565b9050919050565b7f64732d6d6174682d6164642d6f766572666c6f77000000000000000000000000600082015250565b6000611eb06014836115f2565b9150611ebb82611e7a565b602082019050919050565b60006020820190508181036000830152611edf81611ea3565b905091905056fea2646970667358221220cd8c6cae8e2c393014b39515e78ccb886da414397eda95ebb2a76ebf6e8c602964736f6c634300080d0033",
  "immutableReferences": {
    "5802": [
      {
        "length": 32,
        "start": 325
      },
      {
        "length": 32,
        "start": 386
      },
      {
        "length": 32,
        "start": 452
      },
      {
        "length": 32,
        "start": 527
      },
      {
        "length": 32,
        "start": 569
      }
    ]
  },
  "source": "pragma solidity >=0.8.13;\n\nimport '../libraries/UniswapV2LiquidityMathLibrary.sol';\n\ncontract ExampleComputeLiquidityValue {\n    using SafeMath for uint256;\n\n    address public immutable factory;\n\n    constructor(address factory_) {\n        factory = factory_;\n    }\n\n    // see UniswapV2LiquidityMathLibrary#getReservesAfterArbitrage\n    function getReservesAfterArbitrage(\n        address tokenA,\n        address tokenB,\n        uint256 truePriceTokenA,\n        uint256 truePriceTokenB\n    ) external view returns (uint256 reserveA, uint256 reserveB) {\n        return UniswapV2LiquidityMathLibrary.getReservesAfterArbitrage(\n            factory,\n            tokenA,\n            tokenB,\n            truePriceTokenA,\n            truePriceTokenB\n        );\n    }\n\n    // see UniswapV2LiquidityMathLibrary#getLiquidityValue\n    function getLiquidityValue(\n        address tokenA,\n        address tokenB,\n        uint256 liquidityAmount\n    ) external view returns (\n        uint256 tokenAAmount,\n        uint256 tokenBAmount\n    ) {\n        return UniswapV2LiquidityMathLibrary.getLiquidityValue(\n            factory,\n            tokenA,\n            tokenB,\n            liquidityAmount\n        );\n    }\n\n    // see UniswapV2LiquidityMathLibrary#getLiquidityValueAfterArbitrageToPrice\n    function getLiquidityValueAfterArbitrageToPrice(\n        address tokenA,\n        address tokenB,\n        uint256 truePriceTokenA,\n        uint256 truePriceTokenB,\n        uint256 liquidityAmount\n    ) external view returns (\n        uint256 tokenAAmount,\n        uint256 tokenBAmount\n    ) {\n        return UniswapV2LiquidityMathLibrary.getLiquidityValueAfterArbitrageToPrice(\n            factory,\n            tokenA,\n            tokenB,\n            truePriceTokenA,\n            truePriceTokenB,\n            liquidityAmount\n        );\n    }\n\n    // test function to measure the gas cost of the above function\n    function getGasCostOfGetLiquidityValueAfterArbitrageToPrice(\n        address tokenA,\n        address tokenB,\n        uint256 truePriceTokenA,\n        uint256 truePriceTokenB,\n        uint256 liquidityAmount\n    ) external view returns (\n        uint256\n    ) {\n        uint gasBefore = gasleft();\n        UniswapV2LiquidityMathLibrary.getLiquidityValueAfterArbitrageToPrice(\n            factory,\n            tokenA,\n            tokenB,\n            truePriceTokenA,\n            truePriceTokenB,\n            liquidityAmount\n        );\n        uint gasAfter = gasleft();\n        return gasBefore - gasAfter;\n    }\n}\n",
  "sourcePath": "/home/dung/workspace/adaswap/adaswap-periphery/contracts/examples/ExampleComputeLiquidityValue.sol",
  "compiler": {
    "name": "solc",
    "version": "0.8.13+commit.abaa5c0e.Emscripten.clang"
  },
  "schemaVersion": "3.4.4",
  "updatedAt": "2022-03-18T15:20:40.691Z",
  "devdoc": {
    "kind": "dev",
    "methods": {},
    "version": 1
  },
  "userdoc": {
    "kind": "user",
    "methods": {},
    "version": 1
  }
}