{
  "contractName": "RouterEventEmitter",
  "abi": [
    {
      "anonymous": false,
      "inputs": [
        {
          "indexed": false,
          "internalType": "uint256[]",
          "name": "amounts",
          "type": "uint256[]"
        }
      ],
      "name": "Amounts",
      "type": "event"
    },
    {
      "stateMutability": "payable",
      "type": "receive"
    },
    {
      "inputs": [
        {
          "internalType": "address",
          "name": "router",
          "type": "address"
        },
        {
          "internalType": "uint256",
          "name": "amountIn",
          "type": "uint256"
        },
        {
          "internalType": "uint256",
          "name": "amountOutMin",
          "type": "uint256"
        },
        {
          "internalType": "address[]",
          "name": "path",
          "type": "address[]"
        },
        {
          "internalType": "address",
          "name": "to",
          "type": "address"
        },
        {
          "internalType": "uint256",
          "name": "deadline",
          "type": "uint256"
        }
      ],
      "name": "swapExactTokensForTokens",
      "outputs": [],
      "stateMutability": "nonpayable",
      "type": "function"
    },
    {
      "inputs": [
        {
          "internalType": "address",
          "name": "router",
          "type": "address"
        },
        {
          "internalType": "uint256",
          "name": "amountOut",
          "type": "uint256"
        },
        {
          "internalType": "uint256",
          "name": "amountInMax",
          "type": "uint256"
        },
        {
          "internalType": "address[]",
          "name": "path",
          "type": "address[]"
        },
        {
          "internalType": "address",
          "name": "to",
          "type": "address"
        },
        {
          "internalType": "uint256",
          "name": "deadline",
          "type": "uint256"
        }
      ],
      "name": "swapTokensForExactTokens",
      "outputs": [],
      "stateMutability": "nonpayable",
      "type": "function"
    },
    {
      "inputs": [
        {
          "internalType": "address",
          "name": "router",
          "type": "address"
        },
        {
          "internalType": "uint256",
          "name": "amountOutMin",
          "type": "uint256"
        },
        {
          "internalType": "address[]",
          "name": "path",
          "type": "address[]"
        },
        {
          "internalType": "address",
          "name": "to",
          "type": "address"
        },
        {
          "internalType": "uint256",
          "name": "deadline",
          "type": "uint256"
        }
      ],
      "name": "swapExactETHForTokens",
      "outputs": [],
      "stateMutability": "payable",
      "type": "function"
    },
    {
      "inputs": [
        {
          "internalType": "address",
          "name": "router",
          "type": "address"
        },
        {
          "internalType": "uint256",
          "name": "amountOut",
          "type": "uint256"
        },
        {
          "internalType": "uint256",
          "name": "amountInMax",
          "type": "uint256"
        },
        {
          "internalType": "address[]",
          "name": "path",
          "type": "address[]"
        },
        {
          "internalType": "address",
          "name": "to",
          "type": "address"
        },
        {
          "internalType": "uint256",
          "name": "deadline",
          "type": "uint256"
        }
      ],
      "name": "swapTokensForExactETH",
      "outputs": [],
      "stateMutability": "nonpayable",
      "type": "function"
    },
    {
      "inputs": [
        {
          "internalType": "address",
          "name": "router",
          "type": "address"
        },
        {
          "internalType": "uint256",
          "name": "amountIn",
          "type": "uint256"
        },
        {
          "internalType": "uint256",
          "name": "amountOutMin",
          "type": "uint256"
        },
        {
          "internalType": "address[]",
          "name": "path",
          "type": "address[]"
        },
        {
          "internalType": "address",
          "name": "to",
          "type": "address"
        },
        {
          "internalType": "uint256",
          "name": "deadline",
          "type": "uint256"
        }
      ],
      "name": "swapExactTokensForETH",
      "outputs": [],
      "stateMutability": "nonpayable",
      "type": "function"
    },
    {
      "inputs": [
        {
          "internalType": "address",
          "name": "router",
          "type": "address"
        },
        {
          "internalType": "uint256",
          "name": "amountOut",
          "type": "uint256"
        },
        {
          "internalType": "address[]",
          "name": "path",
          "type": "address[]"
        },
        {
          "internalType": "address",
          "name": "to",
          "type": "address"
        },
        {
          "internalType": "uint256",
          "name": "deadline",
          "type": "uint256"
        }
      ],
      "name": "swapETHForExactTokens",
      "outputs": [],
      "stateMutability": "payable",
      "type": "function"
    }
  ],
  "bytecode": "0x608060405234801561001057600080fd5b50611079806100206000396000f3fe6080604052600436106100595760003560e01c806322b5841014610065578063375734d91461008e5780639c91fcb5146100b7578063b05f579e146100e0578063fa3219d5146100fc578063fde1adda1461012557610060565b3661006057005b600080fd5b34801561007157600080fd5b5061008c60048036038101906100879190610a22565b610141565b005b34801561009a57600080fd5b506100b560048036038101906100b09190610a22565b610290565b005b3480156100c357600080fd5b506100de60048036038101906100d99190610a22565b6103df565b005b6100fa60048036038101906100f59190610ad1565b61052e565b005b34801561010857600080fd5b50610123600480360381019061011e9190610a22565b61067a565b005b61013f600480360381019061013a9190610ad1565b6107c9565b005b6000808873ffffffffffffffffffffffffffffffffffffffff16638803dbee60e01b89898989898960405160240161017e96959493929190610c4c565b604051602081830303815290604052907bffffffffffffffffffffffffffffffffffffffffffffffffffffffff19166020820180517bffffffffffffffffffffffffffffffffffffffffffffffffffffffff83818316178352505050506040516101e89190610d22565b600060405180830381855af49150503d8060008114610223576040519150601f19603f3d011682016040523d82523d6000602084013e610228565b606091505b50915091508161023b5761023a610d39565b5b7f4cc17991e3610e3400e74a8306aa421daaee1e3446fa22b490604610999e10b3818060200190518101906102709190610ecc565b60405161027d9190610fd3565b60405180910390a1505050505050505050565b6000808873ffffffffffffffffffffffffffffffffffffffff166338ed173960e01b8989898989896040516024016102cd96959493929190610c4c565b604051602081830303815290604052907bffffffffffffffffffffffffffffffffffffffffffffffffffffffff19166020820180517bffffffffffffffffffffffffffffffffffffffffffffffffffffffff83818316178352505050506040516103379190610d22565b600060405180830381855af49150503d8060008114610372576040519150601f19603f3d011682016040523d82523d6000602084013e610377565b606091505b50915091508161038a57610389610d39565b5b7f4cc17991e3610e3400e74a8306aa421daaee1e3446fa22b490604610999e10b3818060200190518101906103bf9190610ecc565b6040516103cc9190610fd3565b60405180910390a1505050505050505050565b6000808873ffffffffffffffffffffffffffffffffffffffff166318cbafe560e01b89898989898960405160240161041c96959493929190610c4c565b604051602081830303815290604052907bffffffffffffffffffffffffffffffffffffffffffffffffffffffff19166020820180517bffffffffffffffffffffffffffffffffffffffffffffffffffffffff83818316178352505050506040516104869190610d22565b600060405180830381855af49150503d80600081146104c1576040519150601f19603f3d011682016040523d82523d6000602084013e6104c6565b606091505b5091509150816104d9576104d8610d39565b5b7f4cc17991e3610e3400e74a8306aa421daaee1e3446fa22b490604610999e10b38180602001905181019061050e9190610ecc565b60405161051b9190610fd3565b60405180910390a1505050505050505050565b6000808773ffffffffffffffffffffffffffffffffffffffff1663fb3bdb4160e01b8888888888604051602401610569959493929190610ff5565b604051602081830303815290604052907bffffffffffffffffffffffffffffffffffffffffffffffffffffffff19166020820180517bffffffffffffffffffffffffffffffffffffffffffffffffffffffff83818316178352505050506040516105d39190610d22565b600060405180830381855af49150503d806000811461060e576040519150601f19603f3d011682016040523d82523d6000602084013e610613565b606091505b50915091508161062657610625610d39565b5b7f4cc17991e3610e3400e74a8306aa421daaee1e3446fa22b490604610999e10b38180602001905181019061065b9190610ecc565b6040516106689190610fd3565b60405180910390a15050505050505050565b6000808873ffffffffffffffffffffffffffffffffffffffff16634a25d94a60e01b8989898989896040516024016106b796959493929190610c4c565b604051602081830303815290604052907bffffffffffffffffffffffffffffffffffffffffffffffffffffffff19166020820180517bffffffffffffffffffffffffffffffffffffffffffffffffffffffff83818316178352505050506040516107219190610d22565b600060405180830381855af49150503d806000811461075c576040519150601f19603f3d011682016040523d82523d6000602084013e610761565b606091505b50915091508161077457610773610d39565b5b7f4cc17991e3610e3400e74a8306aa421daaee1e3446fa22b490604610999e10b3818060200190518101906107a99190610ecc565b6040516107b69190610fd3565b60405180910390a1505050505050505050565b6000808773ffffffffffffffffffffffffffffffffffffffff16637ff36ab560e01b8888888888604051602401610804959493929190610ff5565b604051602081830303815290604052907bffffffffffffffffffffffffffffffffffffffffffffffffffffffff19166020820180517bffffffffffffffffffffffffffffffffffffffffffffffffffffffff838183161783525050505060405161086e9190610d22565b600060405180830381855af49150503d80600081146108a9576040519150601f19603f3d011682016040523d82523d6000602084013e6108ae565b606091505b5091509150816108c1576108c0610d39565b5b7f4cc17991e3610e3400e74a8306aa421daaee1e3446fa22b490604610999e10b3818060200190518101906108f69190610ecc565b6040516109039190610fd3565b60405180910390a15050505050505050565b6000604051905090565b600080fd5b600080fd5b600073ffffffffffffffffffffffffffffffffffffffff82169050919050565b600061095482610929565b9050919050565b61096481610949565b811461096f57600080fd5b50565b6000813590506109818161095b565b92915050565b6000819050919050565b61099a81610987565b81146109a557600080fd5b50565b6000813590506109b781610991565b92915050565b600080fd5b600080fd5b600080fd5b60008083601f8401126109e2576109e16109bd565b5b8235905067ffffffffffffffff8111156109ff576109fe6109c2565b5b602083019150836020820283011115610a1b57610a1a6109c7565b5b9250929050565b600080600080600080600060c0888a031215610a4157610a4061091f565b5b6000610a4f8a828b01610972565b9750506020610a608a828b016109a8565b9650506040610a718a828b016109a8565b955050606088013567ffffffffffffffff811115610a9257610a91610924565b5b610a9e8a828b016109cc565b94509450506080610ab18a828b01610972565b92505060a0610ac28a828b016109a8565b91505092959891949750929550565b60008060008060008060a08789031215610aee57610aed61091f565b5b6000610afc89828a01610972565b9650506020610b0d89828a016109a8565b955050604087013567ffffffffffffffff811115610b2e57610b2d610924565b5b610b3a89828a016109cc565b94509450506060610b4d89828a01610972565b9250506080610b5e89828a016109a8565b9150509295509295509295565b610b7481610987565b82525050565b600082825260208201905092915050565b6000819050919050565b610b9e81610949565b82525050565b6000610bb08383610b95565b60208301905092915050565b6000610bcb6020840184610972565b905092915050565b6000602082019050919050565b6000610bec8385610b7a565b9350610bf782610b8b565b8060005b85811015610c3057610c0d8284610bbc565b610c178882610ba4565b9750610c2283610bd3565b925050600181019050610bfb565b5085925050509392505050565b610c4681610949565b82525050565b600060a082019050610c616000830189610b6b565b610c6e6020830188610b6b565b8181036040830152610c81818688610be0565b9050610c906060830185610c3d565b610c9d6080830184610b6b565b979650505050505050565b600081519050919050565b600081905092915050565b60005b83811015610cdc578082015181840152602081019050610cc1565b83811115610ceb576000848401525b50505050565b6000610cfc82610ca8565b610d068185610cb3565b9350610d16818560208601610cbe565b80840191505092915050565b6000610d2e8284610cf1565b915081905092915050565b7f4e487b7100000000000000000000000000000000000000000000000000000000600052600160045260246000fd5b6000601f19601f8301169050919050565b7f4e487b7100000000000000000000000000000000000000000000000000000000600052604160045260246000fd5b610db182610d68565b810181811067ffffffffffffffff82111715610dd057610dcf610d79565b5b80604052505050565b6000610de3610915565b9050610def8282610da8565b919050565b600067ffffffffffffffff821115610e0f57610e0e610d79565b5b602082029050602081019050919050565b600081519050610e2f81610991565b92915050565b6000610e48610e4384610df4565b610dd9565b90508083825260208201905060208402830185811115610e6b57610e6a6109c7565b5b835b81811015610e945780610e808882610e20565b845260208401935050602081019050610e6d565b5050509392505050565b600082601f830112610eb357610eb26109bd565b5b8151610ec3848260208601610e35565b91505092915050565b600060208284031215610ee257610ee161091f565b5b600082015167ffffffffffffffff811115610f0057610eff610924565b5b610f0c84828501610e9e565b91505092915050565b600081519050919050565b600082825260208201905092915050565b6000819050602082019050919050565b610f4a81610987565b82525050565b6000610f5c8383610f41565b60208301905092915050565b6000602082019050919050565b6000610f8082610f15565b610f8a8185610f20565b9350610f9583610f31565b8060005b83811015610fc6578151610fad8882610f50565b9750610fb883610f68565b925050600181019050610f99565b5085935050505092915050565b60006020820190508181036000830152610fed8184610f75565b905092915050565b600060808201905061100a6000830188610b6b565b818103602083015261101d818688610be0565b905061102c6040830185610c3d565b6110396060830184610b6b565b969550505050505056fea26469706673582212209ca97a0ca22c031b136968ad57059e49a770866f8a6c5e737698f1fafd57b48164736f6c634300080d0033",
  "immutableReferences": {},
  "source": "pragma solidity >=0.8.13;\n\nimport '../interfaces/IUniswapV2Router01.sol';\n\ncontract RouterEventEmitter {\n    event Amounts(uint[] amounts);\n\n    receive() external payable {}\n\n    function swapExactTokensForTokens(\n        address router,\n        uint amountIn,\n        uint amountOutMin,\n        address[] calldata path,\n        address to,\n        uint deadline\n    ) external {\n        (bool success, bytes memory returnData) = router.delegatecall(abi.encodeWithSelector(\n            IUniswapV2Router01(router).swapExactTokensForTokens.selector, amountIn, amountOutMin, path, to, deadline\n        ));\n        assert(success);\n        emit Amounts(abi.decode(returnData, (uint[])));\n    }\n\n    function swapTokensForExactTokens(\n        address router,\n        uint amountOut,\n        uint amountInMax,\n        address[] calldata path,\n        address to,\n        uint deadline\n    ) external {\n        (bool success, bytes memory returnData) = router.delegatecall(abi.encodeWithSelector(\n            IUniswapV2Router01(router).swapTokensForExactTokens.selector, amountOut, amountInMax, path, to, deadline\n        ));\n        assert(success);\n        emit Amounts(abi.decode(returnData, (uint[])));\n    }\n\n    function swapExactETHForTokens(\n        address router,\n        uint amountOutMin,\n        address[] calldata path,\n        address to,\n        uint deadline\n    ) external payable {\n        (bool success, bytes memory returnData) = router.delegatecall(abi.encodeWithSelector(\n            IUniswapV2Router01(router).swapExactETHForTokens.selector, amountOutMin, path, to, deadline\n        ));\n        assert(success);\n        emit Amounts(abi.decode(returnData, (uint[])));\n    }\n\n    function swapTokensForExactETH(\n        address router,\n        uint amountOut,\n        uint amountInMax,\n        address[] calldata path,\n        address to,\n        uint deadline\n    ) external {\n        (bool success, bytes memory returnData) = router.delegatecall(abi.encodeWithSelector(\n            IUniswapV2Router01(router).swapTokensForExactETH.selector, amountOut, amountInMax, path, to, deadline\n        ));\n        assert(success);\n        emit Amounts(abi.decode(returnData, (uint[])));\n    }\n\n    function swapExactTokensForETH(\n        address router,\n        uint amountIn,\n        uint amountOutMin,\n        address[] calldata path,\n        address to,\n        uint deadline\n    ) external {\n        (bool success, bytes memory returnData) = router.delegatecall(abi.encodeWithSelector(\n            IUniswapV2Router01(router).swapExactTokensForETH.selector, amountIn, amountOutMin, path, to, deadline\n        ));\n        assert(success);\n        emit Amounts(abi.decode(returnData, (uint[])));\n    }\n\n    function swapETHForExactTokens(\n        address router,\n        uint amountOut,\n        address[] calldata path,\n        address to,\n        uint deadline\n    ) external payable {\n        (bool success, bytes memory returnData) = router.delegatecall(abi.encodeWithSelector(\n            IUniswapV2Router01(router).swapETHForExactTokens.selector, amountOut, path, to, deadline\n        ));\n        assert(success);\n        emit Amounts(abi.decode(returnData, (uint[])));\n    }\n}\n",
  "sourcePath": "/home/dung/workspace/adaswap/adaswap-periphery/contracts/test/RouterEventEmitter.sol",
  "compiler": {
    "name": "solc",
    "version": "0.8.13+commit.abaa5c0e.Emscripten.clang"
  },
  "schemaVersion": "3.4.4",
  "updatedAt": "2022-03-18T15:20:40.763Z",
  "devdoc": {
    "kind": "dev",
    "methods": {},
    "version": 1
  },
  "userdoc": {
    "kind": "user",
    "methods": {},
    "version": 1
  }
}