{
  "contractName": "UniswapV2Migrator",
  "abi": [
    {
      "inputs": [
        {
          "internalType": "address",
          "name": "_factoryV1",
          "type": "address"
        },
        {
          "internalType": "address",
          "name": "_router",
          "type": "address"
        }
      ],
      "stateMutability": "nonpayable",
      "type": "constructor"
    },
    {
      "stateMutability": "payable",
      "type": "receive"
    },
    {
      "inputs": [
        {
          "internalType": "address",
          "name": "token",
          "type": "address"
        },
        {
          "internalType": "uint256",
          "name": "amountTokenMin",
          "type": "uint256"
        },
        {
          "internalType": "uint256",
          "name": "amountETHMin",
          "type": "uint256"
        },
        {
          "internalType": "address",
          "name": "to",
          "type": "address"
        },
        {
          "internalType": "uint256",
          "name": "deadline",
          "type": "uint256"
        }
      ],
      "name": "migrate",
      "outputs": [],
      "stateMutability": "nonpayable",
      "type": "function"
    }
  ],
  "bytecode": "0x60c06040523480156200001157600080fd5b50604051620010c7380380620010c7833981810160405281019062000037919062000111565b8173ffffffffffffffffffffffffffffffffffffffff1660808173ffffffffffffffffffffffffffffffffffffffff16815250508073ffffffffffffffffffffffffffffffffffffffff1660a08173ffffffffffffffffffffffffffffffffffffffff1681525050505062000158565b600080fd5b600073ffffffffffffffffffffffffffffffffffffffff82169050919050565b6000620000d982620000ac565b9050919050565b620000eb81620000cc565b8114620000f757600080fd5b50565b6000815190506200010b81620000e0565b92915050565b600080604083850312156200012b576200012a620000a7565b5b60006200013b85828601620000fa565b92505060206200014e85828601620000fa565b9150509250929050565b60805160a051610f3c6200018b600039600081816102e10152818161030b01526103c301526000605b0152610f3c6000f3fe6080604052600436106100225760003560e01c8063b7df1d251461002e57610029565b3661002957005b600080fd5b34801561003a57600080fd5b5061005560048036038101906100509190610835565b610057565b005b60007f000000000000000000000000000000000000000000000000000000000000000073ffffffffffffffffffffffffffffffffffffffff166306f2bf62876040518263ffffffff1660e01b81526004016100b291906108bf565b602060405180830381865afa1580156100cf573d6000803e3d6000fd5b505050506040513d601f19601f820116820180604052508101906100f391906108ef565b905060008173ffffffffffffffffffffffffffffffffffffffff166370a08231336040518263ffffffff1660e01b815260040161013091906108bf565b602060405180830381865afa15801561014d573d6000803e3d6000fd5b505050506040513d601f19601f820116820180604052508101906101719190610931565b90508173ffffffffffffffffffffffffffffffffffffffff166323b872dd3330846040518463ffffffff1660e01b81526004016101b09392919061096d565b6020604051808303816000875af11580156101cf573d6000803e3d6000fd5b505050506040513d601f19601f820116820180604052508101906101f391906109dc565b610232576040517f08c379a000000000000000000000000000000000000000000000000000000000815260040161022990610a66565b60405180910390fd5b6000808373ffffffffffffffffffffffffffffffffffffffff1663f88bf15a846001807fffffffffffffffffffffffffffffffffffffffffffffffffffffffffffffffff6040518563ffffffff1660e01b81526004016102959493929190610acb565b60408051808303816000875af11580156102b3573d6000803e3d6000fd5b505050506040513d601f19601f820116820180604052508101906102d79190610b10565b91509150610306897f000000000000000000000000000000000000000000000000000000000000000083610430565b6000807f000000000000000000000000000000000000000000000000000000000000000073ffffffffffffffffffffffffffffffffffffffff1663f305d719858d868e8e8e8e6040518863ffffffff1660e01b815260040161036d96959493929190610b50565b60606040518083038185885af115801561038b573d6000803e3d6000fd5b50505050506040513d601f19601f820116820180604052508101906103b09190610bb1565b509150915081831115610404576103e98b7f00000000000000000000000000000000000000000000000000000000000000006000610430565b6103ff8b3384866103fa9190610c33565b610566565b610423565b808411156104225761042133828661041c9190610c33565b61069c565b5b5b5050505050505050505050565b6000808473ffffffffffffffffffffffffffffffffffffffff1663095ea7b38585604051602401610462929190610c67565b6040516020818303038152906040529060e01b6020820180517bffffffffffffffffffffffffffffffffffffffffffffffffffffffff83818316178352505050506040516104b09190610d0a565b6000604051808303816000865af19150503d80600081146104ed576040519150601f19603f3d011682016040523d82523d6000602084013e6104f2565b606091505b5091509150818015610520575060008151148061051f57508080602001905181019061051e91906109dc565b5b5b61055f576040517f08c379a000000000000000000000000000000000000000000000000000000000815260040161055690610d93565b60405180910390fd5b5050505050565b6000808473ffffffffffffffffffffffffffffffffffffffff1663a9059cbb8585604051602401610598929190610c67565b6040516020818303038152906040529060e01b6020820180517bffffffffffffffffffffffffffffffffffffffffffffffffffffffff83818316178352505050506040516105e69190610d0a565b6000604051808303816000865af19150503d8060008114610623576040519150601f19603f3d011682016040523d82523d6000602084013e610628565b606091505b5091509150818015610656575060008151148061065557508080602001905181019061065491906109dc565b5b5b610695576040517f08c379a000000000000000000000000000000000000000000000000000000000815260040161068c90610e25565b60405180910390fd5b5050505050565b60008273ffffffffffffffffffffffffffffffffffffffff1682600067ffffffffffffffff8111156106d1576106d0610e45565b5b6040519080825280601f01601f1916602001820160405280156107035781602001600182028036833780820191505090505b506040516107119190610d0a565b60006040518083038185875af1925050503d806000811461074e576040519150601f19603f3d011682016040523d82523d6000602084013e610753565b606091505b5050905080610797576040517f08c379a000000000000000000000000000000000000000000000000000000000815260040161078e90610ee6565b60405180910390fd5b505050565b600080fd5b600073ffffffffffffffffffffffffffffffffffffffff82169050919050565b60006107cc826107a1565b9050919050565b6107dc816107c1565b81146107e757600080fd5b50565b6000813590506107f9816107d3565b92915050565b6000819050919050565b610812816107ff565b811461081d57600080fd5b50565b60008135905061082f81610809565b92915050565b600080600080600060a086880312156108515761085061079c565b5b600061085f888289016107ea565b955050602061087088828901610820565b945050604061088188828901610820565b9350506060610892888289016107ea565b92505060806108a388828901610820565b9150509295509295909350565b6108b9816107c1565b82525050565b60006020820190506108d460008301846108b0565b92915050565b6000815190506108e9816107d3565b92915050565b6000602082840312156109055761090461079c565b5b6000610913848285016108da565b91505092915050565b60008151905061092b81610809565b92915050565b6000602082840312156109475761094661079c565b5b60006109558482850161091c565b91505092915050565b610967816107ff565b82525050565b600060608201905061098260008301866108b0565b61098f60208301856108b0565b61099c604083018461095e565b949350505050565b60008115159050919050565b6109b9816109a4565b81146109c457600080fd5b50565b6000815190506109d6816109b0565b92915050565b6000602082840312156109f2576109f161079c565b5b6000610a00848285016109c7565b91505092915050565b600082825260208201905092915050565b7f5452414e534645525f46524f4d5f4641494c4544000000000000000000000000600082015250565b6000610a50601483610a09565b9150610a5b82610a1a565b602082019050919050565b60006020820190508181036000830152610a7f81610a43565b9050919050565b6000819050919050565b6000819050919050565b6000610ab5610ab0610aab84610a86565b610a90565b6107ff565b9050919050565b610ac581610a9a565b82525050565b6000608082019050610ae0600083018761095e565b610aed6020830186610abc565b610afa6040830185610abc565b610b07606083018461095e565b95945050505050565b60008060408385031215610b2757610b2661079c565b5b6000610b358582860161091c565b9250506020610b468582860161091c565b9150509250929050565b600060c082019050610b6560008301896108b0565b610b72602083018861095e565b610b7f604083018761095e565b610b8c606083018661095e565b610b9960808301856108b0565b610ba660a083018461095e565b979650505050505050565b600080600060608486031215610bca57610bc961079c565b5b6000610bd88682870161091c565b9350506020610be98682870161091c565b9250506040610bfa8682870161091c565b9150509250925092565b7f4e487b7100000000000000000000000000000000000000000000000000000000600052601160045260246000fd5b6000610c3e826107ff565b9150610c49836107ff565b925082821015610c5c57610c5b610c04565b5b828203905092915050565b6000604082019050610c7c60008301856108b0565b610c89602083018461095e565b9392505050565b600081519050919050565b600081905092915050565b60005b83811015610cc4578082015181840152602081019050610ca9565b83811115610cd3576000848401525b50505050565b6000610ce482610c90565b610cee8185610c9b565b9350610cfe818560208601610ca6565b80840191505092915050565b6000610d168284610cd9565b915081905092915050565b7f5472616e7366657248656c7065723a3a73616665417070726f76653a2061707060008201527f726f7665206661696c6564000000000000000000000000000000000000000000602082015250565b6000610d7d602b83610a09565b9150610d8882610d21565b604082019050919050565b60006020820190508181036000830152610dac81610d70565b9050919050565b7f5472616e7366657248656c7065723a3a736166655472616e736665723a20747260008201527f616e73666572206661696c656400000000000000000000000000000000000000602082015250565b6000610e0f602d83610a09565b9150610e1a82610db3565b604082019050919050565b60006020820190508181036000830152610e3e81610e02565b9050919050565b7f4e487b7100000000000000000000000000000000000000000000000000000000600052604160045260246000fd5b7f5472616e7366657248656c7065723a3a736166655472616e736665724554483a60008201527f20455448207472616e73666572206661696c6564000000000000000000000000602082015250565b6000610ed0603483610a09565b9150610edb82610e74565b604082019050919050565b60006020820190508181036000830152610eff81610ec3565b905091905056fea26469706673582212208fe1c1db722232ab3aeb574e61749f651cfe79073908384bf9fc92d561798b8c64736f6c634300080d0033",
  "immutableReferences": {
    "1888": [
      {
        "length": 32,
        "start": 91
      }
    ],
    "1891": [
      {
        "length": 32,
        "start": 737
      },
      {
        "length": 32,
        "start": 779
      },
      {
        "length": 32,
        "start": 963
      }
    ]
  },
  "source": "pragma solidity >=0.8.13;\n\nimport '../../../../lib/contracts/libraries/TransferHelper.sol';\n\nimport './interfaces/IUniswapV2Migrator.sol';\nimport './interfaces/V1/IUniswapV1Factory.sol';\nimport './interfaces/V1/IUniswapV1Exchange.sol';\nimport './interfaces/IUniswapV2Router01.sol';\nimport './interfaces/IERC20.sol';\n\ncontract UniswapV2Migrator is IUniswapV2Migrator {\n    IUniswapV1Factory immutable factoryV1;\n    IUniswapV2Router01 immutable router;\n\n    constructor(address _factoryV1, address _router) {\n        factoryV1 = IUniswapV1Factory(_factoryV1);\n        router = IUniswapV2Router01(_router);\n    }\n\n    // needs to accept ETH from any v1 exchange and the router. ideally this could be enforced, as in the router,\n    // but it's not possible because it requires a call to the v1 factory, which takes too much gas\n    receive() external payable {}\n\n    function migrate(address token, uint amountTokenMin, uint amountETHMin, address to, uint deadline)\n        external\n        override\n    {\n        IUniswapV1Exchange exchangeV1 = IUniswapV1Exchange(factoryV1.getExchange(token));\n        uint liquidityV1 = exchangeV1.balanceOf(msg.sender);\n        require(exchangeV1.transferFrom(msg.sender, address(this), liquidityV1), 'TRANSFER_FROM_FAILED');\n        (uint amountETHV1, uint amountTokenV1) = exchangeV1.removeLiquidity(liquidityV1, 1, 1, type(uint).max);\n        TransferHelper.safeApprove(token, address(router), amountTokenV1);\n        (uint amountTokenV2, uint amountETHV2,) = router.addLiquidityETH{value: amountETHV1}(\n            token,\n            amountTokenV1,\n            amountTokenMin,\n            amountETHMin,\n            to,\n            deadline\n        );\n        if (amountTokenV1 > amountTokenV2) {\n            TransferHelper.safeApprove(token, address(router), 0); // be a good blockchain citizen, reset allowance to 0\n            TransferHelper.safeTransfer(token, msg.sender, amountTokenV1 - amountTokenV2);\n        } else if (amountETHV1 > amountETHV2) {\n            // addLiquidityETH guarantees that all of amountETHV1 or amountTokenV1 will be used, hence this else is safe\n            TransferHelper.safeTransferETH(msg.sender, amountETHV1 - amountETHV2);\n        }\n    }\n}\n",
  "sourcePath": "/home/dung/workspace/adaswap/adaswap-periphery/contracts/UniswapV2Migrator.sol",
  "compiler": {
    "name": "solc",
    "version": "0.8.13+commit.abaa5c0e.Emscripten.clang"
  },
  "schemaVersion": "3.4.4",
  "updatedAt": "2022-03-18T15:20:40.623Z",
  "devdoc": {
    "kind": "dev",
    "methods": {},
    "version": 1
  },
  "userdoc": {
    "kind": "user",
    "methods": {},
    "version": 1
  }
}